:100000000C942A000C9493000C94BA000C94E10018
:100010000C9447000C9447000C9447000C94470044
:100020000C9447000C9447000C942F010C94580139
:100030000C9408010C94CF010C94F8010C9421024B
:100040000C946A000C9447000C9447000C944700F1
:100050000C94470011241FBECFE5D8E0DEBFCDBF12
:1000600010E0A0E6B0E0E0E3F7E002C005900D92FA
:10007000A236B107D9F721E0A2E6B0E001C01D9297
:10008000A034B207E1F70E9449000C9496030C9447
:10009000000060EA76E881E090E00E9481010E9421
:1000A0009D0160E08FE00E94AE01809160000E949F
:1000B000BE010E94C801809160008F5F8093600044
:1000C0002FEF83ED90E3215080409040E1F700C096
:1000D0000000E5CF1F920F920FB60F9211242F93BD
:1000E0003F934F935F936F937F938F939F93AF93C0
:1000F000BF93EF93FF93E0916400F0916500309718
:1001000009F00995FF91EF91BF91AF919F918F9168
:100110007F916F915F914F913F912F910F900FBE03
:100120000F901F9018951F920F920FB60F921124E7
:100130002F933F934F935F936F937F938F939F93EF
:10014000AF93BF93EF93FF93E0916A00F0916B0040
:100150000995FF91EF91BF91AF919F918F917F9101
:100160006F915F914F913F912F910F900FBE0F9024
:100170001F9018951F920F920FB60F9211242F9374
:100180003F934F935F936F937F938F939F93AF931F
:10019000BF93EF93FF93E0916600F091670009959C
:1001A000FF91EF91BF91AF919F918F917F916F914F
:1001B0005F914F913F912F910F900FBE0F901F9025
:1001C00018951F920F920FB60F9211242F933F9301
:1001D0004F935F936F937F938F939F93AF93BF934F
:1001E000EF93FF93E0916800F09169000995FF910A
:1001F000EF91BF91AF919F918F917F916F915F919F
:100200004F913F912F910F900FBE0F901F90189517
:100210001F920F920FB60F9211242F933F934F937B
:100220005F936F937F938F939F93AF93BF93EF935E
:10023000FF93E0916200F09163000995FF91EF91C7
:10024000BF91AF919F918F917F916F915F914F91EE
:100250003F912F910F900FBE0F901F9018951F92F6
:100260000F920FB60F9211242F933F934F935F93EA
:100270006F937F938F939F93AF93BF93EF93FF936E
:10028000E0916C00F0916D00309709F00995FF91B5
:10029000EF91BF91AF919F918F917F916F915F91FE
:1002A0004F913F912F910F900FBE0F901F90189577
:1002B0001F920F920FB60F9211242F933F934F93DB
:1002C0005F936F937F938F939F93AF93BF93EF93BE
:1002D000FF93E0916E00F0916F00309709F009955F
:1002E000FF91EF91BF91AF919F918F917F916F910E
:1002F0005F914F913F912F910F900FBE0F901F90E4
:1003000018959B01AC0182E081B960E074E284EF52
:1003100090E00E947403CA01B9016051710981091A
:1003200091090E94790220E030E040E05DE30E9404
:10033000DF020E944A0260B9089586B7846A86BFC8
:1003400006B607FEFDCF81B1887F883029F486B7D5
:10035000846886BF81E0089580E0089590E8699FF1
:10036000B00111248F77682B63B986B7846886BF84
:1003700006B607FEFDCF81B1887F089583B986B7A1
:10038000846886BF06B607FEFDCF81B1887F0895D9
:1003900086B7846986BF06B604FCFDCF08951F9218
:1003A0000F920FB60F9211242F933F934F935F93A9
:1003B0006F937F938F939F93AF93BF93EF93FF932D
:1003C000E0913E01F0913F01309709F00995FF91CE
:1003D000EF91BF91AF919F918F917F916F915F91BD
:1003E0004F913F912F910F900FBE0F901F90189536
:1003F0001F920F920FB60F9211242F933F934F939A
:100400005F936F937F938F939F93AF93BF93EF937C
:10041000FF93E0913C01F0913D01309709F009957F
:10042000FF91EF91BF91AF919F918F917F916F91CC
:100430005F914F913F912F910F900FBE0F901F90A2
:1004400018951F920F920FB60F9211242F933F937E
:100450004F935F936F937F938F939F93AF93BF93CC
:10046000EF93FF93E0917000F0917100309709F0E5
:100470000995FF91EF91BF91AF919F918F917F91DE
:100480006F915F914F913F912F910F900FBE0F9001
:100490001F9018950E94BE0288F09F5798F0B92FC0
:1004A0009927B751B0F0E1F0660F771F881F991FA9
:1004B0001AF0BA95C9F714C0B13091F00E94D80271
:1004C000B1E008950C94D802672F782F8827B85F81
:1004D00039F0B93FCCF3869577956795B395D9F701
:1004E0003EF490958095709561957F4F8F4F9F4F0B
:1004F0000895E89409C097FB3EF490958095709517
:1005000061957F4F8F4F9F4F9923A9F0F92F96E95F
:10051000BB279395F695879577956795B795F111D4
:10052000F8CFFAF4BB0F11F460FF1BC06F5F7F4F71
:100530008F4F9F4F16C0882311F096E911C0772383
:1005400021F09EE8872F762F05C0662371F096E88C
:10055000862F70E060E02AF09A95660F771F881F5B
:10056000DAF7880F9695879597F9089557FD905873
:10057000440F551F59F05F3F71F04795880F97FB67
:10058000991F61F09F3F79F0879508951216130621
:100590001406551FF2CF4695F1DF08C01616170650
:1005A0001806991FF1CF8695710561050894089585
:1005B000E894BB2766277727CB0197F908950E9417
:1005C000F2020C9463030E94550338F00E945C030E
:1005D00020F0952311F00C944C030C945203112439
:1005E0000C94D9020E94B60270F3959FC1F3950F47
:1005F00050E0551F629FF001729FBB27F00DB11DA7
:10060000639FAA27F00DB11DAA1F649F6627B00D36
:10061000A11D661F829F2227B00DA11D621F739F1F
:10062000B00DA11D621F839FA00D611D221F749F2D
:100630003327A00D611D231F849F600D211D822F74
:10064000762F6A2F11249F5750409AF0F1F088239B
:100650004AF0EE0FFF1FBB1F661F771F881F9150C8
:100660005040A9F79E3F510580F00C944C030C9428
:10067000D9025F3FE4F3983ED4F38695779567956A
:10068000B795F795E7959F5FC1F7FE2B880F911DF2
:100690009695879597F9089597F99F6780E870E098
:1006A00060E008959FEF80EC089500240A941616E8
:1006B000170618060906089500240A941216130650
:1006C000140605060895092E0394000C11F48823DE
:1006D00052F0BB0F40F4BF2B11F460FF04C06F5FFA
:1006E0007F4F8F4F9F4F0895A1E21A2EAA1BBB1B6D
:1006F000FD010DC0AA1FBB1FEE1FFF1FA217B307EE
:10070000E407F50720F0A21BB30BE40BF50B661F03
:10071000771F881F991F1A9469F7609570958095C7
:1007200090959B01AC01BD01CF010895F894FFCFD6
:020730002000A7
:00000001FF
