S01400004E54495F61746D65676133322E73726563F2
S11300000C942A000C94EC050C9413060C943A06F8
S11300100C94DA060C9403070C9447000C944D0BD3
S11300200C9447000C9447000C9488060C94B10679
S11300300C9461060C942C070C9455070C947E07C1
S11300400C94BA040C9447000C9447000C94470099
S11300500C94470011241FBECFE5D8E0DEBFCDBF0E
S113006011E0A0E6B0E0ECE7FFE202C005900D92DB
S1130070A831B107D9F727E0A8E1B1E001C01D928A
S1130080A039B207E1F70E943F040C94BC170C940A
S11300900000EF92FF920F931F93CF93DF93E12C15
S11300A028C0CF2DD0E0CE01880F991FC80FD91FCB
S11300B089E1E89E80011124C00FD11FCF58DF4F82
S11300C041E0698188810E94E3048C8540E0682FC7
S11300D00E94E304F801EF58FF4F408D6981888145
S11300E00E945005F39401C0F12C83E08F15C8F6EB
S11300F0E39480916000E816B8F3DF91CF911F91EB
S11301000F91FF90EF9008957F928F929F92AF92FC
S1130110BF92CF92DF92EF92FF920F931F93CF93F0
S1130120DF936C01062F10E089E1809FF001819F2D
S1130130F00D1124EF58FF4F808D811103C0AA24C4
S1130140A39401C0A12C812C912C712C75C0E92C95
S1130150F12CF701EE0FFF1FEE0DFF1D29E1209F8B
S1130160C001219F900D1124E80FF91FEF58FF4F94
S11301704A2D618180810E945005B12C3DC0CB2D58
S1130180D0E0FE01EE0FFF1FEC0FFD1F29E1209FC1
S1130190C001219F900D1124E80FF91FEF58FF4F64
S11301A0658584850E94BD05A81225C0F701EE0F60
S11301B0FF1FEE0FFF1FEF59FF4FEC0FFD1F808154
S11301C0F6018083FE01EE0FFF1FEC0FFD1F29E1F6
S11301D0209FC001219F900D1124E80FF91FEF58B3
S11301E0FF4F658584850E94BD05A81659F38824B0
S11301F0839477247394B394F3E0FB1508F0BFCF92
S113020089E1809FF001819FF00D1124DF01AF5837
S1130210BF4FC701880F991FE80EF91EEE0DFF1D91
S1130220EF58FF4F58964C91618180810E94500590
S113023081E0881629F09394E3E0E91508F087CF6C
S1130240872DDF91CF911F910F91FF90EF90DF9059
S1130250CF90BF90AF909F908F907F90089541E092
S113026062E080E00E9450058FE99FE00197F1F77A
S113027000C0000040E062E080E00E9450058FE989
S11302809FE00197F1F700C000000895CF93C82FB5
S113029040E063E080E00E94500540E069E080E0D7
S11302A00E945005C4FB442740F960E081E00E94AD
S11302B05005C5FB442740F961E081E00E945005E8
S11302C0C6FB442740F962E081E00E9450054C2FB0
S11302D0441F4427441F64E081E00E9450050E94AB
S11302E02F014C2F417060E081E00E945005C1FB5A
S11302F0442740F961E081E00E945005C2FB442795
S113030040F962E081E00E945005C3FB442740F9B4
S113031064E081E00E9450050E942F01CF9108956E
S1130320CF93C82F41E063E080E00E94500540E095
S113033069E080E00E945005C4FB442740F960E076
S113034081E00E945005C5FB442740F961E081E04B
S11303500E945005C6FB442740F962E081E00E94F8
S113036050054C2F441F4427441F64E081E00E9441
S113037050050E942F014C2F417060E081E00E94E3
S11303805005C1FB442740F961E081E00E9450051B
S1130390C2FB442740F962E081E00E945005C3FBA0
S11303A0442740F964E081E00E9450050E942F0137
S11303B0CF91089541E063E080E00E94E30441E0CE
S11303C062E080E00E94E30441E069E080E00E9492
S11303D0E30441E060E081E00E94E30441E061E085
S11303E081E00E94E30441E062E081E00E94E304D2
S11303F041E064E081E00E94E30481E00E94460160
S113040082E00E94460188E20E94460186E00E9442
S113041046018FE00E944601089581E00E94460152
S11304208FE39CE90197F1F700C0000082E00E948D
S113043046018FE39CE90197F1F700C0000008959D
S1130440811105C080E8860F0E944601089581301D
S113045029F480EC860F0E9446010895823029F425
S113046084E9860F0E9446010895833021F484EDC7
S1130470860F0E94460108950F931F93CF938C011A
S1130480C0E003C00E949001CF5FF801EC0FF11DA2
S113049080818111F7CFCF911F910F910895CF9350
S11304A0DF931F92CDB7DEB780911B0190911C01A1
S11304B00E94FF1380911F01909120010E94FF135D
S11304C08091190190911A010E94FF136AE070E073
S11304D080916B0790916C070E94FD0D809118012B
S11304E0811106C00E940D0281E990E00E943C0245
S11304F06AE070E080917007909171070E94FD0D91
S113050060E0CE0101960E9484008130C9F720E0AA
S113051040E050E060E070E08091700790917107D6
S11305200E94DC0C609118016B5F81E00E94200244
S113053089810E94900120E040E050E060E070E09A
S113054080916B0790916C070E94DC0C80911801DC
S11305508F5F8093180120E04AE050E0BE016F5F96
S11305607F4F80917207909173070E94DC0C8091F9
S11305701801863070F080911F01909120010E9433
S11305800E111092180180911D0190911E010E947C
S1130590FF1388EC90E00E94951386CFCF93DF93EE
S11305A01F92CDB7DEB710E06AE070E080916B0770
S11305B090916C070E94FD0D6AE070E080917007D5
S11305C0909171070E94FD0D11110AC00E940D0245
S11305D082EA90E00E943C0260E081E00E942002F6
S11305E060E0CE0101960E9484008130C9F78981C0
S11305F00E9490011F5F20E04AE050E0BE016F5F5F
S11306007F4F80917507909176070E94DC0C20E063
S113061040E050E060E070E08091700790917107D5
S11306200E94DC0C20E040E050E060E070E080914B
S11306306B0790916C070E94DC0C143039F48091A4
S1130640190190911A010E940E1110E088EE93E0B6
S11306500E949513A9CFCF93DF93CDB7DEB7279729
S11306600FB6F894DEBF0FBECDBFF12C12C001E06F
S113067010E00C0F1D1F0F0D111D4AE050E0B801D2
S113068080917507909176070E946E0DF801808322
S1130690F394F3E0FF1558F789810E9490018A8151
S11306A0823451F0833471F08134A1F499818B81C7
S11306B0890F0E94900117C089819B81891B0E9428
S11306C0900111C099818B81989F802D11240E94E3
S11306D0900109C00E940D0283EB90E00E943C024D
S11306E08A810E9490016AE070E080917007909185
S11306F071070E94FD0D60E0CE0107960E94840000
S11307008130C9F780911B0190911C010E940E1148
S113071020E040E050E060E070E08091700790914C
S113072071070E94DC0C88EE93E00E9495139DCF24
S1130730CF93DF931F92CDB7DEB7809119019091CB
S11307401A010E94FF130E940D0210E026C04AE025
S113075050E0BE016F5F7F4F8091720790917307E5
S11307600E946E0DE12FF0E0E657FF4F208130E04C
S1130770898190E0C0972817390771F461E070E02F
S1130780012E02C0660F771F0A94E2F78091770763
S1130790909178070E94C9071F5F1630C0F260E08D
S11307A070E080917707909178070E94BA07CF97FD
S11307B081F56AE070E080916B0790916C070E946C
S11307C0FD0D84EF91E00E9495130E940D028FEBC2
S11307D090E00E943C0220E040E050E060E070E0E5
S11307E080916B0790916C070E94DC0C6FE370E0C2
S11307F080917707909178070E94BA0788EE93E07A
S11308000E94951380911B0190911C010E940E116E
S11308102BC06AE070E080916B0790916C070E9496
S1130820FD0D0E940D028FEC90E00E943C0220E03E
S113083040E050E060E070E080916B0790916C07BD
S11308400E94DC0C6FE370E0809177079091780749
S11308500E94BA0788EE93E00E94951380911D01CF
S113086090911E010E940E1180911F019091200110
S11308700E94FF1388EE93E00E9495135ECF0E94BE
S1130880DA010E9449000F2EFFE1EF2EF1E0FF2E66
S1130890F02D02E021E030E044E650E060EE70E04C
S11308A088E993E00E94B510809374070F2EFDE150
S11308B0EF2EF1E0FF2EF02D21E030E044E650E091
S11308C06EEE70E08FE492E00E94B51080936F07A3
S11308D00F2EFBE1EF2EF1E0FF2EF02D01E021E0E1
S11308E030E044E650E06AEF70E08EEC92E00E9463
S11308F0B51080936E070F2EF9E1EF2EF1E0FF2E75
S1130900F02D21E030E044E650E067E071E08BE256
S113091093E00E94B51080936D0740E061E086E0AB
S11309200E949B0C909373078093720740E061E0F0
S113093084E00E949B0C909376078093750743E0B4
S113094060E081E00E949B0C909371078093700794
S113095043E060E081E00E949B0C90936C078093DD
S11309606B070E94A70790937807809377070E94EC
S11309707411FFCF1F920F920FB60F9211242F9371
S11309803F934F935F936F937F938F939F93AF9313
S1130990BF93EF93FF93E0917907F0917A07309733
S11309A009F00995FF91EF91BF91AF919F918F91BC
S11309B07F916F915F914F913F912F910F900FBE57
S11309C00F901F901895813001F130F08230B1F111
S11309D0833009F44CC00895413059F42AB381E0BE
S11309E090E002C0880F991F6A95E2F7822B8ABBB8
S11309F008952AB381E090E002C0880F991F6A9598
S1130A00E2F7809582238ABB0895413059F427B3D5
S1130A1081E090E002C0880F991F6A95E2F7822B6B
S1130A2087BB089527B381E090E002C0880F991F27
S1130A306A95E2F78095822387BB0895413059F483
S1130A4024B381E090E002C0880F991F6A95E2F711
S1130A50822B84BB089524B381E090E002C0880F08
S1130A60991F6A95E2F78095822384BB08954130EB
S1130A7059F421B381E090E002C0880F991F6A9570
S1130A80E2F7822B81BB089521B381E090E002C09C
S1130A90880F991F6A95E2F78095822381BB089598
S1130AA0813001F130F08230B1F1833009F44CC06F
S1130AB0089541110CC02BB381E090E002C0880F6F
S1130AC0991F6A95E2F7809582238BBB08952BB317
S1130AD081E090E002C0880F991F6A95E2F7822BAB
S1130AE08BBB089541110CC028B381E090E002C093
S1130AF0880F991F6A95E2F78095822388BB089531
S1130B0028B381E090E002C0880F991F6A95E2F74C
S1130B10822B88BB089541110CC025B381E090E07D
S1130B2002C0880F991F6A95E2F78095822385BBDE
S1130B30089525B381E090E002C0880F991F6A955B
S1130B40E2F7822B85BB089541110CC022B381E0EA
S1130B5090E002C0880F991F6A95E2F7809582237E
S1130B6082BB089522B381E090E002C0880F991FF0
S1130B706A95E2F7822B82BB0895813079F028F0E0
S1130B808230A9F08330E9F025C089B390E002C037
S1130B90959587956A95E2F78170089586B390E0FC
S1130BA002C0959587956A95E2F7817008958091C2
S1130BB0930390E002C0959587956A95E2F781705A
S1130BC0089580B390E002C0959587956A95E2F701
S1130BD08170089580E008951F920F920FB60F92CE
S1130BE011242F933F934F935F936F937F938F932E
S1130BF09F93AF93BF93EF93FF93E0917F07F0919F
S1130C0080070995FF91EF91BF91AF919F918F91CB
S1130C107F916F915F914F913F912F910F900FBEF4
S1130C200F901F9018951F920F920FB60F921124D8
S1130C302F933F934F935F936F937F938F939F93E0
S1130C40AF93BF93EF93FF93E0917B07F0917C0701
S1130C500995FF91EF91BF91AF919F918F917F91F2
S1130C606F915F914F913F912F910F900FBE0F9015
S1130C701F9018951F920F920FB60F9211242F9365
S1130C803F934F935F936F937F938F939F93AF9310
S1130C90BF93EF93FF93E0917D07F0917E07099551
S1130CA0FF91EF91BF91AF919F918F917F916F9140
S1130CB05F914F913F912F910F900FBE0F901F9016
S1130CC018951F920F920FB60F9211242F933F93F2
S1130CD04F935F936F937F938F939F93AF93BF9340
S1130CE0EF93FF93E0916907F0916A070995FF91EB
S1130CF0EF91BF91AF919F918F917F916F915F9190
S1130D004F913F912F910F900FBE0F901F90189508
S1130D101F920F920FB60F9211242F933F934F936C
S1130D205F936F937F938F939F93AF93BF93EF934F
S1130D30FF93E0918107F0918207309709F00995BC
S1130D40FF91EF91BF91AF919F918F917F916F919F
S1130D505F914F913F912F910F900FBE0F901F9075
S1130D6018951F920F920FB60F9211242F933F9351
S1130D704F935F936F937F938F939F93AF93BF939F
S1130D80EF93FF93E0918307F0918407309709F084
S1130D900995FF91EF91BF91AF919F918F917F91B1
S1130DA06F915F914F913F912F910F900FBE0F90D4
S1130DB01F9018951F920F920FB60F9211242F9324
S1130DC03F934F935F936F937F938F939F93AF93CF
S1130DD0BF93EF93FF93E0918707F09188073097D3
S1130DE009F00995FF91EF91BF91AF919F918F9178
S1130DF07F916F915F914F913F912F910F900FBE13
S1130E000F901F9018951F920F920FB60F921124F6
S1130E102F933F934F935F936F937F938F939F93FE
S1130E20AF93BF93EF93FF93E0918507F09186070B
S1130E30309709F00995FF91EF91BF91AF919F9180
S1130E408F917F916F915F914F913F912F910F906F
S1130E500FBE0F901F9018951F920F920FB60F920E
S1130E6011242F933F934F935F936F937F938F93AB
S1130E709F93AF93BF93EF93FF93E0918D07F0910E
S1130E808E07309709F00995FF91EF91BF91AF91CB
S1130E909F918F917F916F915F914F913F912F918E
S1130EA00F900FBE0F901F9018951F920F920FB6C0
S1130EB00F9211242F933F934F935F936F937F93DC
S1130EC08F939F93AF93BF93EF93FF93E0918B071F
S1130ED0F0918C07309709F00995FF91EF91BF913C
S1130EE0AF919F918F917F916F915F914F913F91BE
S1130EF02F910F900FBE0F901F9018951F920F9275
S1130F000FB60F9211242F933F934F935F936F93D8
S1130F107F938F939F93AF93BF93EF93FF93E0914E
S1130F208907F0918A07309709F00995FF91EF91AD
S1130F30BF91AF919F918F917F916F915F914F91ED
S1130F403F912F910F900FBE0F901F901895CF9344
S1130F50DF938BE090E00E949A08EC01009731F057
S1130F60FC0111921192CF010E946909CE01DF9117
S1130F70CF910895FC010FB6F8940F92808191816E
S1130F806095709568237923718360830F900FBEF9
S1130F900895CF92DF92EF92FF920F931F93CF9316
S1130FA0DF937C018B01EC0125960E94A011D701EF
S1130FB01796ED91FC9118978D919C911197082BA0
S1130FC0192B0D931C9300E010E02DC0C280D38038
S1130FD0808191819C01332792FD09C0D7014D91F5
S1130FE05C9142235323452B61F440E00DC0D701AB
S1130FF04D915C91422353232417350721F040E09F
S113100003C041E001C041E0442359F090FF02C015
S1131010022B132BD7016D917C917260CF010E943A
S11310202F15EC2DFD2DEC17FD0781F6009510957D
S1131030F7018081918108231923118300830E9481
S1131040C012D7018D919C91DF91CF911F910F9187
S1131050FF90EF90DF90CF900895EBE2F1E0AFE2E4
S1131060B1E0B183A08313821282E7E0F7E0F0934A
S11310702A01E0932901138212821182108288EDE1
S113108095E013969C938E931297ED93FC93909313
S113109026018093250190932801809327010895C8
S11310A0CF93DF93EC01ABE2B1E001C0DF01ED913E
S11310B0FC911197EC17FD07C8F312968D919C9142
S11310C013979D01280F391FC217D30749F42A81AA
S11310D03B81820F931F13969C938E931297ED017D
S11310E08A819B819E01280F391FE217F307C1F4FF
S11310F02091290130912A01E217F30771F022812E
S11311003381820F931F9B838A83ED91FC91119706
S1131110808191819983888305C03983288302C0A3
S1131120F983E883CA17DB0711F0CD93DC93DF91D1
S1131130CF910895EF92FF920F931F93CF93DF9374
S11311408C010E94A0118091290190912A01892B80
S113115011F40E942D080115110549F00B3F8FEF82
S1131160180718F40B5F1F4F02C000E010E01123B2
S11311700CF466C00115110509F465C080912701BE
S1131180909128018017910708F460C0C0912B0149
S1131190D0912C01EBE2F1E002C0FE01EC018A8166
S11311A09B818017910720F4888199810097A9F782
S11311B08091290190912A01C817D90709F449C0DF
S11311C0E080F18084E0E80EF11C888199819183AC
S11311D080832A813B81201B310B2930310550F05B
S11311E0CE01800F911FFC01338322831B830A836A
S11311F00E9450082A813B81809127019091280107
S1131200821B930B90932801809327014091250121
S1131210509126018417950720F49093260180931A
S1131220250130683B832A83198218828091230127
S113123090912401019690932401809323010BC083
S1131240E12CF12C08C0E12CF12C05C0E12CF12C8F
S113125002C0E12CF12C0E94C012C701DF91CF9192
S11312601F910F91FF90EF9008950F931F93CF93C9
S1131270DF93009749F1EC0124972A813B813323C2
S11312801CF548815981452BF9F43F773B832A8328
S11312900E94A0118A819B8120912701309128010D
S11312A0820F931F9093280180932701CE010E94FF
S11312B0500880912101909122010196909322017E
S11312C0809321010E94C012DF91CF911F910F9151
S11312D00895FC010396928381832FEF3FEF3483BB
S11312E02383968385839087878310820895FC01E6
S11312F0118610860895CF93DF939C01FB01DC01D6
S11313001196CD91DC911297D383C2838C819D81F8
S1131310958384838C819D81DC0113967C936E93E9
S113132012977D836C8331872087F90180818F5FD9
S11313308083DF91CF910895CF93DF93EB014881B0
S113134059814F3F2FEF520721F4FC01A781B0854B
S11313500DC0DC01139601C0DF011296ED91FC91E2
S113136013972081318142175307B0F71296ED91FC
S1131370FC911397FB83EA83D583C483BD83AC8339
S11313801396DC93CE93129799878887FC0120816A
S11313902F5F2083DF91CF910895CF93DF93FC01DA
S11313A0A085B185C281D381848195819D838C83FD
S11313B0C481D581828193819B838A8311968D9187
S11313C09C911297E817F90731F48481958112965C
S11313D09C938E931197118610868C9181508C93D7
S11313E08C91DF91CF9108951BBC89EF8ABD8BE06E
S11313F08EBD89B7806189BF089531E1FC013083D6
S1131400319722E220833197A3E3A083319760834D
S11314103197708331971082319760E860833197F8
S11314201082319762E06083319763E06083319783
S113143064E06083319765E06083319766E06083A0
S1131440319767E06083319768E06083319769E0A2
S11314506083319760E1608331973083319732E163
S11314603083319733E13083319734E130833197DE
S113147035E13083319736E13083319737E130837A
S1131480319738E13083319739E13083319730E255
S11314903083319731E2308331972083319723E2CF
S11314A020833197408331975083319726E22083FC
S11314B0319727E22083319728E22083319729E26C
S11314C02083319720E32083319721E3208386977B
S11314D008950E94F409A0916707B0916807CD911F
S11314E0CDBFDD91DEBFFF91EF91DF91CF91BF9131
S11314F0AF919F918F917F916F915F914F913F91A8
S11315002F911F910F91FF90EF90DF90CF90BF909C
S1131510AF909F908F907F906F905F904F903F908F
S11315202F901F900F900FBE0F90089581E00895A3
S11315300F920FB6F8940F921F9211242F923F929C
S11315404F925F926F927F928F929F92AF92BF92CF
S1131550CF92DF92EF92FF920F931F932F933F93BB
S11315604F935F936F937F938F939F93AF93BF93A7
S1131570CF93DF93EF93FF93A0916707B091680730
S11315800DB60D920EB60D920E94AB13A091670793
S1131590B0916807CD91CDBFDD91DEBFFF91EF9192
S11315A0DF91CF91BF91AF919F918F917F916F9177
S11315B05F914F913F912F911F910F91FF90EF9069
S11315C0DF90CF90BF90AF909F908F907F906F905F
S11315D05F904F903F902F901F900F900FBE0F90F1
S11315E008950F920FB6F8940F921F9211242F9220
S11315F03F924F925F926F927F928F929F92AF929F
S1131600BF92CF92DF92EF92FF920F931F932F938B
S11316103F934F935F936F937F938F939F93AF9376
S1131620BF93CF93DF93EF93FF93A0916707B0919C
S113163068070DB60D920EB60D920E94A611811187
S11316400E94AB13A0916707B0916807CD91CDBFFD
S1131650DD91DEBFFF91EF91DF91CF91BF91AF910B
S11316609F918F917F916F915F914F913F912F91B6
S11316701F910F91FF90EF90DF90CF90BF90AF90AC
S11316809F908F907F906F905F904F903F902F909E
S11316901F900F900FBE0F9008950E94F10A1895A5
S11316A0DC0151962C915197222341F05696ED91ED
S11316B0FC915797908183E0891B089580E00895F9
S11316C00FB6F8940F92FC01828D811102C081E063
S11316D001C080E00F900FBE08950FB6F8940F92EA
S11316E0FC01228D838D281302C081E001C080E0BB
S11316F00F900FBE08950F931F93CF93DF93EC01C8
S1131700042F1A8D4C8D41110CC088819981892B2D
S113171009F042C08C819D810E94B7161D821C82F3
S113172042C0011117C050E08A819B810E94B31707
S11317302C8D8A819B81820F911D9B838A832C81AE
S11317403D818217930750F1888199819B838A8315
S113175080E029C050E08E819F810E94B3178C8D58
S113176090E09195819591092E813F81280F391F31
S11317703F832E83488159812417350730F42C8107
S11317803D81820F931F9F838E83023049F411237E
S113179049F0115080E007C080E005C080E003C03C
S11317A080E001C080E01F5F1A8FDF91CF911F910D
S11317B00F910895FC01448D4423A9F050E0268143
S11317C03781240F351F3783268384819581281719
S11317D0390720F08081918197838683CB016681CC
S11317E077810E94B31708951F93CF93DF93EC0181
S11317F00FB6F8940F921E8D0BC08989882351F07F
S1131800CE0141960E94721481110E941F1611503C
S113181011169CF38FEF8E8F0F900FBE0FB6F894B6
S11318200F921D8D0BC08885882351F0CE01089638
S11318300E94721481110E941F16115011169CF3FC
S11318408FEF8D8F0F900FBEDF91CF911F91089571
S11318500F931F93CF93DF93FC01362F892B09F449
S11318604DC0238D222309F44BC0022F10E08FEFCB
S11318709FEFB8010E949F17448D842F90E0681752
S1131880790708F43FC0EF010FB6F8940F92608116
S11318907181FB01249FE00DF11D1124FD83EC8374
S11318A01A8E7B836A8301501109809FA001819F56
S11318B0500D909F500D1124CB01840F951F9F83D1
S11318C08E838FEF8D8F8E8F31110CC08885882386
S11318D089F0CE0108960E947214882359F00E9460
S11318E0980A08C0CE0108960E946909CE01419663
S11318F00E9469090F900FBE81E005C080E003C01B
S113190080E001C080E0DF91CF911F910F91089595
S11319100F931F93F801611103C01183008302C068
S113192051834083838F648F61E0CF010E94280C30
S11319301F910F910895DF92EF92FF920F931F93DF
S1131940CF93DF93382FE62F882329F1682F70E097
S11319508FEF9FEF0E949F178E2F90E068177907F3
S1131960E8F03E9FC0011124813E2FEF9207C8F496
S1131970D42EDE2FC32F4F960E949A087C01009725
S113198091F08C012D2DAC01415E5F4F6D2F8C2F9A
S11319900E94880C08C0E12CF12C05C0E12CF12C2C
S11319A002C0E12CF12CC701DF91CF911F910F915F
S11319B0FF90EF90DF900895CF92DF92EF92FF9225
S11319C00F931F93CF93DF9300D000D01F92CDB716
S11319D0DEB78C017B015D834C83C22ED12C0FB604
S11319E0F8940F92F801928D838D981718F0F2E015
S11319F0CF1219C04C2DB701C8010E947B0BF8010E
S1131A009189992349F0C80141960E947214882350
S1131A1031F00E94980A03C081110E94980A0F9025
S1131A200FBE81E04DC08C819D81892B21F40F90E4
S1131A300FBE80E045C0D11006C0CE0101960E94C1
S1131A40D515DD24D3940F900FBE0E94A0110FB6BC
S1131A50F8940F92F801858D8F3F09F4158EF801E3
S1131A60868D8F3F09F4168E0F900FBEBE016C5FFA
S1131A707F4FCE0101960E94E01581111BC0C80161
S1131A800E946D0B882381F06C817D81C8010896CA
S1131A900E946014C8010E94F40B0E94C0128111BC
S1131AA09ECF0E94980A9BCFC8010E94F40B0E940B
S1131AB0C01295CFC8010E94F40B0E94C01280E0AE
S1131AC00F900F900F900F900F90DF91CF911F9177
S1131AD00F91FF90EF90DF90CF900895CF92DF9217
S1131AE0EF92FF920F931F93CF93DF9300D000D018
S1131AF01F92CDB7DEB78C016B015D834C83E12C63
S1131B000FB6F8940F92F801F28CFF20A9F0B601F9
S1131B10C8010E94DA0BFA94F801F28E80858823BA
S1131B2039F0C80108960E94721481110E94980A23
S1131B300F900FBE81E053C08C819D81892B21F4CD
S1131B400F900FBE80E04BC0E11006C0CE0101969D
S1131B500E94D515EE24E3940F900FBE0E94A011AD
S1131B600FB6F8940F92F801858D8F3F09F4158E06
S1131B70F801868D8F3F09F4168E0F900FBEBE01BB
S1131B806C5F7F4FCE0101960E94E01581111BC04E
S1131B90C8010E94600B882381F06C817D81C8019B
S1131BA041960E946014C8010E94F40B0E94C01266
S1131BB08111A6CF0E94980AA3CFC8010E94F40BFA
S1131BC00E94C0129DCFC8010E94F40B0E94C01253
S1131BD0C8010E94600B882309F492CF80E00F9023
S1131BE00F900F900F900F90DF91CF911F910F9155
S1131BF0FF90EF90DF90CF900895EF92FF920F93B4
S1131C001F93CF93DF9300D000D01F92CDB7DEB7E0
S1131C108C017D836C83E12CF12C0FB6F8940F9228
S1131C20F801828D8823D1F08150828F8081918147
S1131C30892B29F40E948D17F80195838483F80178
S1131C408085882339F0C80108960E947214811196
S1131C500E94980A0F900FBE81E074C08C819D8110
S1131C60892B21F40F900FBE80E06CC0F11006C0E8
S1131C70CE0101960E94D515FF24F3940F900FBE58
S1131C800E94A0110FB6F8940F92F801858D8F3F32
S1131C9009F4158EF801868D8F3F09F4168E0F9086
S1131CA00FBEBE016C5F7F4FCE0101960E94E0150E
S1131CB081112AC0C8010E94600B8823F9F0F80141
S1131CC080819181892B51F40FB6F8940F9284810D
S1131CD095810E942316E82E0F900FBE6C817D81A2
S1131CE0C80141960E946014C8010E94F40B0E942E
S1131CF0C012811192CF0E94980A8FCFC8010E940E
S1131D00F40B0E94C01289CFC8010E94F40B0E94F8
S1131D10C012C8010E94600B882309F47ECFEE2014
S1131D2081F00FB6F8940F92C8010E94500B682FEF
S1131D30F801848195810E941A170F900FBE80E0EC
S1131D4001C080E00F900F900F900F900F90DF91E3
S1131D50CF911F910F91FF90EF900895FC01228580
S1131D6033852A51374059F4FC0184899589F7E079
S1131D708D329F0731F0892B31F080E0089580E0A7
S1131D80089580E0089581E00895E0913807F09186
S1131D9039078081811107C08FEF9FEF90930F0760
S1131DA080930E070895E0913807F0913907058074
S1131DB0F681E02D8081918190930F0780930E0727
S1131DC00895CF93DF93EC018F89988D0E94350994
S1131DD0CE010E943509DF91CF9108956F927F92D1
S1131DE08F929F92AF92BF92CF92DF92EF920F9316
S1131DF01F93CF93DF93CDB7DEB74C01F5018789ED
S1131E00908D215031093C01620E731E61157105DC
S1131E1089F415C0822F90E0FB01E80FF91F30818F
S1131E20D501A80FB91F59963C938081882329F0C6
S1131E302F5F01C020E0283068F3F50110A2F2E022
S1131E40FE1518F46894EE24E1F8F501E68AE1A29F
S1131E50C50102960E947709C5010C960E94770974
S1131E60F501B186A08683E090E08E1991099587EB
S1131E708487B38AA28AA801B401C3010E94FD0920
S1131E80F50191838083C114D10419F0F601B18264
S1131E90A082DF91CF911F910F91EF90DF90CF90AF
S1131EA0BF90AF909F908F907F906F900895CF9345
S1131EB0C0E010C08C2F90E09C01220F331F220F32
S1131EC0331F220F331F820F931F845B984F0E948E
S1131ED06909CF5FC33070F383E497E00E94690916
S1131EE08AE397E00E9469098DE297E00E946909FC
S1131EF084E297E00E9469098AE197E00E946909F7
S1131F0083E497E090933907809338078AE397E056
S1131F109093370780933607CF910895CF93DF933B
S1131F20EC010FB6F8940F92809119078F5F80939C
S1131F3019078091670790916807892B59F4D0930A
S1131F406807C093670780911907813099F40E944C
S1131F50570F10C08091150781110CC0E0916707DD
S1131F60F091680796898E89891720F0D0936807C5
S1131F70C0936707809110078F5F809310078E8945
S1131F8090911607981710F48093160790E0FC01BF
S1131F90EE0FFF1FEE0FFF1FEE0FFF1F8E0F9F1F91
S1131FA0FC01E45BF84F0180F281E02DFD83EC83BA
S1131FB0848195819F838E83A481B581CE0102960D
S1131FC013969C938E93129795838483EE89F0E005
S1131FD0CF01880F991F880F991F880F991FE80F49
S1131FE0F91FE45BF84FFB87EA8780818F5F80836A
S1131FF00F900FBE80911507882351F0E091670779
S1132000F091680796898E89981710F40E94980AAF
S1132010DF91CF910895CF93DF931CC00FB6F8944E
S11320200F92E0912907F0912A07C681D781CE014A
S113203002960E94CD098091190781508093190757
S1132040809123078150809323070F900FBECE0108
S11320500E94E10E809123078111E0CFDF91CF919F
S113206008950E940B10FDCFFF920F931F93CF93FF
S1132070DF93EC01F62E0091170710911807809159
S113208067079091680702960E94CD09CF3F8FEFB2
S1132090D807B1F5FF20A1F1EAE1F7E0A181B2810F
S11320A0C0916707D0916807BD83AC83C09167076F
S11320B0D091680714968D919C9115979F838E8378
S11320C01496CD91DC9115978091670790916807DC
S11320D002969B838A838091670790916807029692
S11320E015969C938E931497A0916707B0916807F7
S11320F01B96FC93EE931A9780818F5F80832FC089
S1132100C00FD11FE0916707F0916807D383C283A2
S1132110C017D10768F460916707709168078091D0
S11321203607909137076E5F7F4F0E949C0917C056
S1132130609167077091680780913807909139071B
S11321406E5F7F4F0E949C0980910E0790910F074C
S1132150C817D90720F4D0930F07C0930E07DF9157
S1132160CF911F910F91FF9008952F923F924F921C
S11321705F926F927F928F929F92AF92BF92CF9213
S1132180DF92EF92FF920F931F93CF93DF933C0163
S11321901B015A012901CA010E949A086C01892B6A
S11321A099F088E290E00E949A08EC01892B41F0B2
S11321B088E2FE0111928A95E9F7D88ECF8A06C08B
S11321C0C6010E94350902C0C0E0D0E0209791F01A
S11321D0950140E050E0812C912C5E016701E02ED6
S11321E08201B101C3010E94EE0ECE010E948E0F46
S11321F081E001C08FEFDF91CF911F910F91FF908C
S1132200EF90DF90CF90BF90AF909F908F907F9092
S11322106F905F904F903F902F9008950F931F936E
S1132220CF93DF9320916707309168078217930754
S113223009F455C0009709F452C0EC010FB6F894A4
S11322400F920E94AE0E882309F447C08E010E5FE0
S11322501F4FC8010E94CD098E89909116079817C7
S113226010F48093160790E0FC01EE0FFF1FEE0FB1
S1132270FF1FEE0FFF1F8E0F9F1FFC01E45BF84F43
S11322800180F281E02DFD83EC83848195819F831D
S11322908E83A481B58113961C930E931297158394
S11322A00483EE89F0E0CF01880F991F880F991FEE
S11322B0880F991FE80FF91FE45BF84FFB87EA8743
S11322C080818F5F80839E89E0916707F091680722
S11322D08689981710F00E94980A0F900FBEDF911C
S11322E0CF911F910F910895EF92FF920F930F2EAC
S11322F0FCE0EF2EF7E0FF2EF02D00E020E030E0D0
S113230045E550E063E171E081E390E10E94B5109E
S1132310813081F4F8948FEF9FEF90930F078093AF
S11323200E0781E080931507109218071092170783
S11323300E94690A809190000F91FF90EF90089598
S113234080910B078F5F80930B0708950F931F9362
S1132350CF93DF9380910B07811101C1C0911707BF
S1132360D09118078E010F5F1F4F10931807009329
S1132370170701151105B9F48091380790913907B1
S11323802091360730913707309339072093380767
S11323909093370780933607809111078F5F80935E
S11323A011070E94C50E80910E0790910F07081720
S11323B0190720F480E0B8C081E001C080E0E0911A
S11323C03807F09139079081911107C02FEF3FEF43
S11323D030930F0720930E07A7C0E0913807F091C0
S11323E039070580F681E02D0680F781E02D2281F2
S11323F033810217130728F430930F0720930E0735
S113240093C0A285B3852481358146815781E90132
S11324105D834C832681378144815581E9015B8347
S11324204A8311962D913C911297AF014E5F5F4FF5
S11324302417350731F42681378112963C932E9365
S11324401197138612869C9191509C93A489B58907
S1132450109719F12685378560897189E9017D8393
S11324606C832089318966857785E9017B836A835A
S113247011966D917C9112979F01245F3F4F6217D3
S1132480730731F42089318912963C932E93119766
S1132490158A148A9C9191509C93268990911607D1
S11324A0921710F42093160730E0D901AA0FBB1F2E
S11324B0AA0FBB1FAA0FBB1F2A0F3B1FD901A45B86
S11324C0B84F11960D90BC91A02DB583A48314969A
S11324D02D913C9115973783268314962D913C9129
S11324E01597E9015B834A8315965C934E93149781
S11324F0A689B0E09D01220F331F220F331F220F44
S1132500331FA20FB31FA45BB84FB387A2879C915C
S11325109F5F9C932689E0916707F09168079689ED
S1132520921708F449CF4BCFE0916707F091680701
S1132530268930E0F901EE0FFF1FEE0FFF1FEE0FAB
S1132540FF1F2E0F3F1FF901E45BF84F908192307B
S113255008F081E09091120791110CC00CC0809199
S1132560130790911407019690931407809313070F
S113257080E001C081E0DF91CF911F910F91089518
S1132580CF93DF930FB6F8940F9280910B0781508D
S113259080930B0780910B078111BFC080911907AD
S11325A0811196C0BDC0E0913207F09133070680D7
S11325B0F781E02DA489B589C685D785808991895D
S11325C09D838C83C089D189868597859B838A83E3
S11325D011962D913C911297CF010C96281739072B
S11325E031F48089918912969C938E931197158A60
S11325F0148A8C9181508C93A285B385C481D58132
S1132600868197819D838C83C681D78184819581BE
S11326109B838A8311968D919C9112979F012E5FC3
S11326203F4F8217930731F48681978112969C93CA
S11326308E931197138612868C9181508C93868980
S113264090911607981710F48093160790E0DC0118
S1132650AA0FBB1FAA0FBB1FAA0FBB1F8A0F9B1F6A
S1132660DC01A45BB84F11960D90BC91A02DB583ED
S1132670A48314968D919C911597978386831496C1
S1132680CD91DC9115973B832A8315963C932E9329
S11326901497A689B0E0CD01880F991F880F991F60
S11326A0880F991FA80FB91FA45BB84FB387A287DF
S11326B08C918F5F8C939689A0916707B09168077E
S11326C056968C91981730F081E08093120702C0DF
S11326D0E0E0F0E080912D07811165CFEF2B11F040
S11326E00E94C50EC0911307D0911407209769F07A
S11326F00E94A611882319F081E080931207219784
S1132700B9F71092140710921307809112078823C7
S113271031F00E94980A81E003C080E001C080E0AB
S11327200F900FBEDF91CF910895CF93DF93EC010B
S1132730892B49F00E94A01160E0CE010E94341060
S11327400E94C01201C080E0811102C00E94980A58
S1132750DF91CF91089580910B07882321F081E0C8
S1132760809312070895109212072091160701C052
S11327702150822F90E0FC01EE0FFF1FEE0FFF1F90
S1132780EE0FFF1FE80FF91FE45BF84F308133238E
S113279079F3AC01440F551F440F551F440F551FC7
S11327A0480F591FDF010180F281E02D0280F3817F
S11327B0E02D1296FC93EE931197415B584FE4176A
S11327C0F50729F442815381FD0152834183FC01C1
S11327D0EE0FFF1FEE0FFF1FEE0FFF1F8E0F9F1F49
S11327E0FC01E45BF84F0180F281E02D8681978142
S11327F090936807809367072093160708950F93B3
S11328001F93CF93DF93EC010FB6F8940F92892BAB
S113281021F4C0916707D09168078E010E5F1F4FA6
S1132820C8010E94CD098C899D89892B21F0CE0194
S11328300C960E94CD09B8018AE197E00E947B09B9
S113284080E00FC0282F082E000C330BFE01E20F8E
S1132850F31F97A1913021F4FE01E20FF31F17A299
S11328608F5F18167CF70F900FBE80911507882391
S113287039F00FB6F8940F920E94C50E0F900FBE58
S11328808091670790916807C817D907A1F48091D0
S11328901507882319F00E94980A0DC090911A0711
S11328A080911907981305C0109268071092670762
S11328B002C00E94AB13DF91CF911F910F91089535
S11328C0CF93DF93EB016091670770916807645FB2
S11328D07F4F0E949C0961E0CE010E943410DF9179
S11328E0CF910895CF93DF93DC011596ED91FC9180
S11328F016970680F781E02DA489B589C685D7850A
S1132900808991899D838C83C089D18986859785A7
S11329109B838A8311968D919C9112979F01245FCA
S11329203F4F8217930731F48089918912969C93C3
S11329308E931197158A148A8C9181508C9380916F
S11329400B07811160C0A285B385C481D5818681BE
S113295097819D838C83C681D781848195819B8354
S11329608A8311968D919C9112979F012E5F3F4F00
S11329708217930731F48681978112969C938E93E4
S11329801197138612868C9181508C93868990912D
S11329901607981710F48093160790E0DC01AA0F2D
S11329A0BB1FAA0FBB1FAA0FBB1F8A0F9B1FDC01F3
S11329B0A45BB84F11960D90BC91A02DB583A48350
S11329C014968D919C911597978386831496CD9137
S11329D0DC9115973B832A8315963C932E93149789
S11329E0A689B0E0CD01880F991F880F991F880F21
S11329F0991FA80FB91FA45BB84FB387A2878C9106
S1132A008F5F8C931CC04DE257E0DA011196CD9193
S1132A10DC911297D787C6878C819D81918B808B9F
S1132A208C819D81DC0113963C932E9312973D83F8
S1132A302C83558B448BDA018C918F5F8C93968910
S1132A40E0916707F09168078689891720F481E08F
S1132A508093120701C080E0DF91CF910895CF9356
S1132A60DF93DC01706811967C936E931696ED915A
S1132A70FC91179718964D915C91199712968D9128
S1132A809C91139714962D913C911597EC013D83DD
S1132A902C8314968D919C91159712962D913C91AF
S1132AA01397EC013B832A83EA0189819A81A81751
S1132AB0B90731F414968D919C9115979A83898363
S1132AC019961C921E921897DA018C9181508C935E
S1132AD0A285B385C481D581868197819D838C83AA
S1132AE0C681D781848195819B838A8311968D9138
S1132AF09C9112979F012E5F3F4F8217930731F4E9
S1132B008681978112969C938E93119713861286D1
S1132B108C9181508C93868990911607981710F4A4
S1132B208093160790E0DC01AA0FBB1FAA0FBB1FFE
S1132B30AA0FBB1F8A0F9B1FDC01A45BB84F119621
S1132B400D90BC91A02DB583A48314968D919C9176
S1132B501597978386831496CD91DC9115973B83C3
S1132B602A8315963C932E931497A689B0E0CD0141
S1132B70880F991F880F991F880F991FA80FB91FD5
S1132B80A45BB84FB387A2878C918F5F8C9396898F
S1132B90E0916707F09168078689891718F481E046
S1132BA080931207DF91CF91089520911107FC01C2
S1132BB020832091170730911807328321830895C9
S1132BC01F93CF93DF930FB6F8940F92E0911707FA
S1132BD0F0911807DC0111964D915C911297DF0179
S1132BE0A41BB50BEB01288139812F3FDFEF3D0793
S1132BF0F9F0EC011881C09111071C1741F0E4179A
S1132C00F50728F0FB011182108281E012C0A2179F
S1132C10B30748F4FB012A1B3B0B318320830E943A
S1132C20D51580E006C0DB011D921C9281E001C035
S1132C3080E00F900FBEDF91CF911F91089581E046
S1132C408093120708950F931F93CF93DF93FC0192
S1132C50892B09F484C02689A0916707B09168077D
S1132C6056968C91281708F070C084859585992311
S1132C7064F0A0916707B091680756963C9183E091
S1132C8090E0831B9109958784878285938530E042
S1132C90A901440F551F440F551F440F551F240FFE
S1132CA0351F245B384F8217930709F045C0EF01A5
S1132CB08F010E5F1F4FC8010E94CD09E091670785
S1132CC0F091680786898E8B90911607981710F4F7
S1132CD08093160790E0FC01EE0FFF1FEE0FFF1F1D
S1132CE0EE0FFF1F8E0F9F1FFC01E45BF84F018066
S1132CF0F281E02DFD83EC83848195819F838E8313
S1132D00A481B58113961C930E93129715830483A3
S1132D108E8990E0FC01EE0FFF1FEE0FFF1FEE0FF8
S1132D20FF1FE80FF91FE45BF84FFB87EA878081F8
S1132D308F5F808381E016C0A0916707B091680718
S1132D4056968C91868B81E00DC091A1E091670726
S1132D50F09168078689981720F080E003C080E02E
S1132D6001C081E0DF91CF911F910F9108950F93DE
S1132D701F93CF93DF93FC01892B09F451C082A1E7
S1132D80815082A3268991A1291709F44BC081118E
S1132D904BC0EF018F010E5F1F4FC8010E94CD0988
S1132DA089A18E8B23E030E0281B31093D872C87D5
S1132DB090911607981710F48093160790E0FC0181
S1132DC0EE0FFF1FEE0FFF1FEE0FFF1F8E0F9F1F53
S1132DD0FC01E45BF84F0180F281E02DFD83EC837C
S1132DE0848195819F838E83A481B58113961C93DE
S1132DF00E93129715830483EE89F0E0CF01880FB8
S1132E00991F880F991F880F991FE80FF91FE45B1A
S1132E10F84FFB87EA8780818F5F808381E005C05C
S1132E2080E003C080E001C080E0DF91CF911F917A
S1132E300F9108950F931F93CF93DF93FC01892B78
S1132E4009F466C091A1961708F4962F86899817FD
S1132E5009F45EC022A1213009F05AC0968B248562
S1132E603585332334F023E030E0291B31093587DD
S1132E7024872285338590E0AC01440F551F440F0D
S1132E80551F440F551F840F951F845B984F2817B7
S1132E903907F1F5EF018F010E5F1F4FC8010E9442
S1132EA0CD098E8990911607981710F48093160710
S1132EB090E0FC01EE0FFF1FEE0FFF1FEE0FFF1F50
S1132EC08E0F9F1FFC01E45BF84F0180F281E02D1F
S1132ED0FD83EC83848195819F838E83A481B58156
S1132EE013961C930E931297158304838E8990E096
S1132EF0FC01EE0FFF1FEE0FFF1FEE0FFF1FE80F89
S1132F00F91FE45BF84FFB87EA8780818F5F80833A
S1132F10DF91CF911F910F91089580916707909150
S1132F206807892B39F0E0916707F091680782A15F
S1132F308F5F82A380916707909168070895AA1B09
S1132F40BB1B51E107C0AA1FBB1FA617B70710F090
S1132F50A61BB70B881F991F5A95A9F780959095C2
S1132F60BC01CD010895FB01DC0102C001900D926A
S10F2F7041505040D8F70895F894FFCF6A
S1132F7C01373839413435364231323343233D300D
S1132F8C44020502020402020302020202030700C5
S1132F9C03060003050003030001010203040506F4
S1132FAC02456E7465722050617373776F7264207E
S1132FBC3A0020456E746572204571756174696FB1
S1132FCC6E200054727920616761696E2020005470
S1132FDC7275652050617373776F7264203A005771
S1132FEC726F6E672050617373776F7264203A004E
S1132FFC436865636B50617373776F7264004765E4
S113300C7450617373776F7264004765744571759E
S113301C6174696F6E2C0063616C457175617469C0
S10B302C6F6E0049444C45009D
S9030000FC
