S01400004E54495F61746D65676133322E73726563F2
S11300000C942A000C941F010C9446010C946D016D
S11300100C9447000C9447000C9447000C94470040
S11300200C9447000C9447000C94BB010C94E4011D
S11300300C9494010C9460020C9489020C94B20206
S11300400C9489000C9447000C9447000C944700CE
S11300500C94470011241FBECFE5D8E0DEBFCDBF0E
S113006010E0A0E6B0E0E2E5F8E002C005900D92F1
S1130070A237B107D9F721E0A2E7B0E001C01D9291
S1130080A035B207E1F70E9460000C9427040C9499
S11300900000CF93C0E00EC0EC2FF0E0EE0FFF1F86
S11300A0EE0FFF1FEF59FF4F41E0628181810E94F3
S11300B0B200CF5F80916000C81770F3CF910895AC
S11300C060EA76E881E090E00E940D020E94490017
S11300D00E942C02813071F460E08AE00E943A02AE
S11300E0883141F4809171000E945202883211F4E7
S11300F00E945C02809171008F5F809371002FEFEA
S113010083ED90E3215080409040E1F700C000006F
S1130110DFCF1F920F920FB60F9211242F933F93AC
S11301204F935F936F937F938F939F93AF93BF93FB
S1130130EF93FF93E0917400F0917500309709F00C
S11301400995FF91EF91BF91AF919F918F917F910D
S11301506F915F914F913F912F910F900FBE0F9030
S11301601F901895813001F130F08230B1F1833065
S113017009F44CC00895413059F42AB381E090E069
S113018002C0880F991F6A95E2F7822B8ABB0895F3
S11301902AB381E090E002C0880F991F6A95E2F7C4
S11301A0809582238ABB0895413059F427B381E0B6
S11301B090E002C0880F991F6A95E2F7822B87BBF3
S11301C0089527B381E090E002C0880F991F6A95D3
S11301D0E2F78095822387BB0895413059F424B314
S11301E081E090E002C0880F991F6A95E2F7822BA4
S11301F084BB089524B381E090E002C0880F991F66
S11302006A95E2F78095822384BB0895413059F4BE
S113021021B381E090E002C0880F991F6A95E2F74C
S1130220822B81BB089521B381E090E002C0880F46
S1130230991F6A95E2F78095822381BB08951F92E6
S11302400F920FB60F9211242F933F934F935F9306
S11302506F937F938F939F93AF93BF93EF93FF938A
S1130260E0917A00F0917B000995FF91EF91BF91A5
S1130270AF919F918F917F916F915F914F913F913A
S11302802F910F900FBE0F901F9018951F920F92F1
S11302900FB60F9211242F933F934F935F936F9355
S11302A07F938F939F93AF93BF93EF93FF93E091CB
S11302B07600F09177000995FF91EF91BF91AF918E
S11302C09F918F917F916F915F914F913F912F916A
S11302D00F900FBE0F901F9018951F920F920FB69C
S11302E00F9211242F933F934F935F936F937F93B8
S11302F08F939F93AF93BF93EF93FF93E091780015
S1130300F09179000995FF91EF91BF91AF919F9181
S11303108F917F916F915F914F913F912F910F90AA
S11303200FBE0F901F9018951F920F920FB60F9249
S113033011242F933F934F935F936F937F938F93E6
S11303409F93AF93BF93EF93FF93E0917200F0916B
S113035073000995FF91EF91BF91AF919F918F9198
S11303607F916F915F914F913F912F910F900FBEAD
S11303700F901F9018951F920F920FB60F92112491
S11303802F933F934F935F936F937F938F939F9399
S1130390AF93BF93EF93FF93E0917C00F0917D00C6
S11303A0309709F00995FF91EF91BF91AF919F911B
S11303B08F917F916F915F914F913F912F910F900A
S11303C00FBE0F901F9018951F920F920FB60F92A9
S11303D011242F933F934F935F936F937F938F9346
S11303E09F93AF93BF93EF93FF93E0917E00F091BF
S11303F07F00309709F00995FF91EF91BF91AF917C
S11304009F918F917F916F915F914F913F912F9128
S11304100F900FBE0F901F9018959B01AC0182E0C6
S113042081B960E074E284EF90E00E940504CA019F
S1130430B90160517109810991090E940A0320E000
S113044030E040E05DE30E9470030E94DB0260B98B
S113045086B7846086BF089586B7806A86BF06B66D
S113046007FEFDCF81B1887F883011F481E00895C3
S113047080E00895962F682F70E09B01220F331FB0
S113048080E8989FB0011124622B63B986B78F7DF1
S113049086BF86B7806886BF06B607FEFDCF81B1EA
S11304A0887F089583B986B7846886BF06B607FE39
S11304B0FDCF81B1887F089586B7806986BF08958E
S11304C01F920F920FB60F9211242F933F934F93C5
S11304D05F936F937F938F939F93AF93BF93EF93A8
S11304E0FF93E0914E01F0914F01309709F0099587
S11304F0FF91EF91BF91AF919F918F917F916F91F8
S11305005F914F913F912F910F900FBE0F901F90CD
S113051018951F920F920FB60F9211242F933F93A9
S11305204F935F936F937F938F939F93AF93BF93F7
S1130530EF93FF93E0914C01F0914D01309709F056
S11305400995FF91EF91BF91AF919F918F917F9109
S11305506F915F914F913F912F910F900FBE0F902C
S11305601F9018951F920F920FB60F9211242F937C
S11305703F934F935F936F937F938F939F93AF9327
S1130580BF93EF93FF93E0918000F0918100309747
S113059009F00995FF91EF91BF91AF919F918F91D0
S11305A07F916F915F914F913F912F910F900FBE6B
S11305B00F901F9018950E944F0388F09F5798F052
S11305C0B92F9927B751B0F0E1F0660F771F881F54
S11305D0991F1AF0BA95C9F714C0B13091F00E946E
S11305E06903B1E008950C946903672F782F882775
S11305F0B85F39F0B93FCCF3869577956795B39595
S1130600D9F73EF490958095709561957F4F8F4F03
S11306109F4F0895E89409C097FB3EF49095809508
S1130620709561957F4F8F4F9F4F9923A9F0F92FB4
S113063096E9BB279395F695879577956795B79532
S1130640F111F8CFFAF4BB0F11F460FF1BC06F5F18
S11306507F4F8F4F9F4F16C0882311F096E911C02A
S1130660772321F09EE8872F762F05C0662371F04B
S113067096E8862F70E060E02AF09A95660F771F5F
S1130680881FDAF7880F9695879597F9089557FD8F
S11306909058440F551F59F05F3F71F04795880FEC
S11306A097FB991F61F09F3F79F087950895121683
S11306B013061406551FF2CF4695F1DF08C016162F
S11306C017061806991FF1CF8695710561050894E0
S11306D00895E894BB2766277727CB0197F90895F7
S11306E00E9483030C94F4030E94E60338F00E94F2
S11306F0ED0320F0952311F00C94DD030C94E30337
S113070011240C946A030E94470370F3959FC1F36C
S1130710950F50E0551F629FF001729FBB27F00DAB
S1130720B11D639FAA27F00DB11DAA1F649F662700
S1130730B00DA11D661F829F2227B00DA11D621F4F
S1130740739FB00DA11D621F839FA00D611D221F09
S1130750749F3327A00D611D231F849F600D211DED
S1130760822F762F6A2F11249F5750409AF0F1F070
S113077088234AF0EE0FFF1FBB1F661F771F881FD9
S113078091505040A9F79E3F510580F00C94DD0331
S11307900C946A035F3FE4F3983ED4F3869577950F
S11307A06795B795F795E7959F5FC1F7FE2B880F7F
S11307B0911D9695879597F9089597F99F6780E815
S11307C070E060E008959FEF80EC089500240A949F
S11307D01616170618060906089500240A94121618
S11307E01306140605060895092E0394000C11F44B
S11307F0882352F0BB0F40F4BF2B11F460FF04C0F8
S11308006F5F7F4F8F4F9F4F0895A1E21A2EAA1B4F
S1130810BB1BFD010DC0AA1FBB1FEE1FFF1FA217AC
S1130820B307E407F50720F0A21BB30BE40BF50BA9
S1130830661F771F881F991F1A9469F76095709532
S1130840809590959B01AC01BD01CF010895F8946A
S1050850FFCFD4
S1130852040000040101000601020107010300056E
S105086201414E
S9030000FC
