:100000000C942A000C9413020C943A020C94610292
:100010000C9447000C9447000C9447000C94470044
:100020000C9447000C9447000C94AF020C94D80237
:100030000C9488020C9485030C94AE030C94D703A3
:100040000C9410010C9447000C9447000C9447004A
:100050000C94470011241FBECFE5D8E0DEBFCDBF12
:1000600010E0A0E6B0E0ECE9FAE002C005900D92E5
:10007000A836B107D9F721E0A8E6B0E001C01D928B
:10008000A634B207E1F70E94DD000C944C050C94F5
:10009000000041E062E080E00E94A6018FE99FE05D
:1000A0000197F1F700C0000040E062E080E00E94AC
:1000B000A6018FE99FE00197F1F700C000000895C5
:1000C000CF93C82F40E063E080E00E94A60140E0AB
:1000D00069E080E00E94A601C4FB442740F960E08B
:1000E00081E00E94A601C5FB442740F961E081E060
:1000F0000E94A601C6FB442740F962E081E00E940D
:10010000A6014C2F441F4427441F64E081E00E9455
:10011000A6010E9449004C2F417060E081E00E94DE
:10012000A601C1FB442740F961E081E00E94A601DD
:10013000C2FB442740F962E081E00E94A601C3FBB4
:10014000442740F964E081E00E94A6010E94490032
:10015000CF91089541E063E080E00E94390141E0E1
:1001600062E080E00E94390141E069E080E00E94A5
:10017000390141E060E081E00E94390141E061E045
:1001800081E00E94390141E062E081E00E94390192
:1001900041E064E081E00E94390181E00E9460005A
:1001A00082E00E94600088E20E94600086E00E9477
:1001B00060008FE00E9460000895CF93DF931F924C
:1001C000CDB7DEB78AE5898360E47CE980E090E022
:1001D0000E9401030E9453030E94AA000E9423036D
:1001E00061E080E10E94310361E0CE0101960E944E
:1001F0003F032FEF83ED90E3215080409040E1F7E3
:1002000000C00000898190E00E947C032FEF83ED05
:1002100090E3215080409040E1F700C00000DECF25
:100220001F920F920FB60F9211242F933F934F936B
:100230005F936F937F938F939F93AF93BF93EF934E
:10024000FF93E0916A00F0916B00309709F00995F7
:10025000FF91EF91BF91AF919F918F917F916F919E
:100260005F914F913F912F910F900FBE0F901F9074
:100270001895813001F130F08230B1F1833009F40A
:100280004CC00895413059F42AB381E090E002C097
:10029000880F991F6A95E2F7822B8ABB08952AB3CB
:1002A00081E090E002C0880F991F6A95E2F780957F
:1002B00082238ABB0895413059F427B381E090E04E
:1002C00002C0880F991F6A95E2F7822B87BB0895B9
:1002D00027B381E090E002C0880F991F6A95E2F78A
:1002E0008095822387BB0895413059F424B381E07F
:1002F00090E002C0880F991F6A95E2F7822B84BBB9
:10030000089524B381E090E002C0880F991F6A9598
:10031000E2F78095822384BB0895413059F421B3DC
:1003200081E090E002C0880F991F6A95E2F7822B66
:1003300081BB089521B381E090E002C0880F991F2E
:100340006A95E2F78095822381BB0895813001F19F
:1003500030F08230B1F1833009F44CC0089541117E
:100360000CC02BB381E090E002C0880F991F6A9502
:10037000E2F7809582238BBB08952BB381E090E058
:1003800002C0880F991F6A95E2F7822B8BBB0895F4
:1003900041110CC028B381E090E002C0880F991F82
:1003A0006A95E2F78095822388BB089528B381E09F
:1003B00090E002C0880F991F6A95E2F7822B88BBF4
:1003C000089541110CC025B381E090E002C0880F70
:1003D000991F6A95E2F78095822385BB089525B31E
:1003E00081E090E002C0880F991F6A95E2F7822BA6
:1003F00085BB089541110CC022B381E090E002C09A
:10040000880F991F6A95E2F78095822382BB089531
:1004100022B381E090E002C0880F991F6A95E2F74D
:10042000822B82BB08951F920F920FB60F92112458
:100430002F933F934F935F936F937F938F939F93EC
:10044000AF93BF93EF93FF93E0917000F091710031
:100450000995FF91EF91BF91AF919F918F917F91FE
:100460006F915F914F913F912F910F900FBE0F9021
:100470001F9018951F920F920FB60F9211242F9371
:100480003F934F935F936F937F938F939F93AF931C
:10049000BF93EF93FF93E0916C00F0916D0009958D
:1004A000FF91EF91BF91AF919F918F917F916F914C
:1004B0005F914F913F912F910F900FBE0F901F9022
:1004C00018951F920F920FB60F9211242F933F93FE
:1004D0004F935F936F937F938F939F93AF93BF934C
:1004E000EF93FF93E0916E00F0916F000995FF91FB
:1004F000EF91BF91AF919F918F917F916F915F919C
:100500004F913F912F910F900FBE0F901F90189514
:100510001F920F920FB60F9211242F933F934F9378
:100520005F936F937F938F939F93AF93BF93EF935B
:10053000FF93E0916800F09169000995FF91EF91B8
:10054000BF91AF919F918F917F916F915F914F91EB
:100550003F912F910F900FBE0F901F9018951F92F3
:100560000F920FB60F9211242F933F934F935F93E7
:100570006F937F938F939F93AF93BF93EF93FF936B
:10058000E0917200F0917300309709F00995FF91A6
:10059000EF91BF91AF919F918F917F916F915F91FB
:1005A0004F913F912F910F900FBE0F901F90189574
:1005B0001F920F920FB60F9211242F933F934F93D8
:1005C0005F936F937F938F939F93AF93BF93EF93BB
:1005D000FF93E0917400F0917500309709F0099550
:1005E000FF91EF91BF91AF919F918F917F916F910B
:1005F0005F914F913F912F910F900FBE0F901F90E1
:1006000018959B01AC0182E081B960E074E284EF4F
:1006100090E00E942A05CA01B9016051710981095F
:1006200091090E942F0420E030E040E05DE30E9449
:1006300095040E94000460B986B7806486BF86B7BF
:10064000846086BF089586B7806A86BF06B607FEB7
:10065000FDCF81B1887F883011F481E0089580E07A
:100660000895862B83B986B78F7D86BF86B780684D
:1006700086BF06B607FEFDCF81B1887F0895FC01D5
:1006800026B72F7B26BF86B790E4699FB00111245F
:10069000682B606866BF06B607FEFDCF83B1808316
:1006A00081B1887F08958091640090916500A09148
:1006B0006600B0916700880F991FAA1FBB1F880FA3
:1006C000991FAA1FBB1F9C01AD01220F331F441F9E
:1006D000551F220F331F441F551F60E074E284EF43
:1006E00090E00E942A05215029B910BC88E18AB9FE
:1006F0008EE880BD81E008955D9BFECF2AB19170A8
:10070000922B9AB98CB985E008951F920F920FB67B
:100710000F9211242F933F934F935F936F937F9387
:100720008F939F93AF93BF93EF93FF93E091440117
:10073000F0914501309709F00995FF91EF91BF9134
:10074000AF919F918F917F916F915F914F913F9169
:100750002F910F900FBE0F901F9018951F920F9220
:100760000FB60F9211242F933F934F935F936F9384
:100770007F938F939F93AF93BF93EF93FF93E091FA
:100780004201F0914301309709F00995FF91EF91F3
:10079000BF91AF919F918F917F916F915F914F9199
:1007A0003F912F910F900FBE0F901F9018951F92A1
:1007B0000F920FB60F9211242F933F934F935F9395
:1007C0006F937F938F939F93AF93BF93EF93FF9319
:1007D000E0917600F0917700309709F00995FF914C
:1007E000EF91BF91AF919F918F917F916F915F91A9
:1007F0004F913F912F910F900FBE0F901F90189522
:100800000E94740488F09F5798F0B92F9927B75128
:10081000B0F0E1F0660F771F881F991F1AF0BA95A4
:10082000C9F714C0B13091F00E948E04B1E0089570
:100830000C948E04672F782F8827B85F39F0B93F62
:10084000CCF3869577956795B395D9F73EF4909557
:100850008095709561957F4F8F4F9F4F0895E894D5
:1008600009C097FB3EF490958095709561957F4FF8
:100870008F4F9F4F9923A9F0F92F96E9BB279395A6
:10088000F695879577956795B795F111F8CFFAF4B6
:10089000BB0F11F460FF1BC06F5F7F4F8F4F9F4FE7
:1008A00016C0882311F096E911C0772321F09EE845
:1008B000872F762F05C0662371F096E8862F70E0AB
:1008C00060E02AF09A95660F771F881FDAF7880F85
:1008D0009695879597F9089557FD9058440F551FA1
:1008E00059F05F3F71F04795880F97FB991F61F0B2
:1008F0009F3F79F087950895121613061406551F29
:10090000F2CF4695F1DF08C0161617061806991F94
:10091000F1CF86957105610508940895E894BB2789
:1009200066277727CB0197F908950E94A8040C94B5
:1009300019050E940B0538F00E94120520F095233E
:1009400011F00C9402050C94080511240C948F04EA
:100950000E946C0470F3959FC1F3950F50E0551FF2
:10096000629FF001729FBB27F00DB11D639FAA2704
:10097000F00DB11DAA1F649F6627B00DA11D661F53
:10098000829F2227B00DA11D621F739FB00DA11D74
:10099000621F839FA00D611D221F749F3327A00D2E
:1009A000611D231F849F600D211D822F762F6A2FCA
:1009B00011249F5750409AF0F1F088234AF0EE0F2F
:1009C000FF1FBB1F661F771F881F91505040A9F75C
:1009D0009E3F510580F00C9402050C948F045F3FFC
:1009E000E4F3983ED4F3869577956795B795F79598
:1009F000E7959F5FC1F7FE2B880F911D9695879510
:100A000097F9089597F99F6780E870E060E008958E
:100A10009FEF80EC089500240A9416161706180616
:100A20000906089500240A941216130614060506F2
:100A30000895092E0394000C11F4882352F0BB0F83
:100A400040F4BF2B11F460FF04C06F5F7F4F8F4FE6
:100A50009F4F0895A1E21A2EAA1BBB1BFD010DC0DA
:100A6000AA1FBB1FEE1FFF1FA217B307E407F5075E
:100A700020F0A21BB30BE40BF50B661F771F881F3A
:100A8000991F1A9469F760957095809590959B01D0
:0C0A9000AC01BD01CF010895F894FFCF28
:080A9C000008010180250000A3
:00000001FF
