S01400004E54495F61746D65676133322E73726563F2
S11300000C942A000C942B080C9452080C94790834
S11300100C94C50B0C94EE0B0C9447000C947F0BC2
S11300200C94560B0C942D0B0C94A70A0C94D00A28
S11300300C9430090C94AA0C0C94D30C0C94FC0C66
S11300400C94EB060C9447000C9447000C94470066
S11300500C94470011241FBECFE5D8E0DEBFCDBF0E
S113006014E0A0E6B0E0E8ECF1E202C005900D92E5
S1130070A632B107D9F725E0A6E2B4E001C01D928B
S1130080A831B207E1F70E94E6060C94E2100C9442
S113009000000E9481060E9414060E94EE020E9443
S11300A093010E9400090E9499040E94170C0E9467
S11300B079020E948B030E94330480E00E94C905E8
S11300C008950F931F93CF93DF931F92CDB7DEB79D
S11300D08FEF898380E00E94B1060E94DD0E162F07
S11300E000E0D5C00E941D040E94AC0262E080E0E2
S11300F00E94BF0283EA93E00E94DB0260E081E099
S11301000E94BF028BEA93E00E94DB0241E050E0D0
S113011061E070E083EA93E00E94F70341E050E07D
S113012062E070E08BEB93E00E94F70381E00E94B1
S1130130050382E00E94430380E00E94430380E0C1
S11301400E94B1060E94DD0E162FCE0101960E9478
S11301505B01813009F044C080912E048F5F80934D
S11301602E0480E00E94050382E00E9443030E9463
S1130170AC0262E080E00E94BF0283EA93E00E9446
S1130180DB0241E050E061E070E083EA93E00E942A
S1130190F70360E081E00E94BF028AEC93E00E94D2
S11301A0DB0240E050E062E070E08AEC93E00E9401
S11301B0F7038AE50E94C90581E00E94B1060E9406
S11301C0DD0E05C081E00E94B1060E94DD0E66309E
S11301D0C8F780E00E94C90589810E94A30C5AC017
S11301E0823009F054C00F5F033038F10E940503D8
S11301F00E94AC0262E080E00E94BF028BED93E0BB
S11302000E94DB0240E050E061E070E085EE93E0A4
S11302100E94F70360E081E00E94BF028FEE93E04A
S11302200E94DB0228E833E140E050E060E070E047
S113023080E090E00E944E0D2DC082E00E940503F4
S11302400E94AC0262E080E00E94BF028CEF93E067
S11302500E94DB0260E081E00E94BF028BED93E02C
S11302600E94DB0241E050E061E070E08BE094E04A
S11302700E94F70320ED37E040E050E060E070E0DA
S113028080E090E00E944E0D82E00E94430316300D
S113029008F428CF0E94AC0282E00E94430381E06C
S11302A00E94430380E00E9443030F90DF91CF91AB
S11302B01F910F910895EF92FF921F93CF93DF93B5
S11302C000D000D0CDB7DEB77C010E944705813055
S11302D0F9F4CE0101960E94790510E015C0612F52
S11302E070E0660F771F660F771F605A7F4F44E0F8
S11302F050E0CE0101960E94D510892B21F4F7011C
S1130300108381E006C01F5F112349F382E001C01E
S113031080E00F900F900F900F90DF91CF911F917D
S1130320FF90EF900895EF92FF920F931F93CF9356
S1130330DF93E12C28C0CF2DD0E0CE01880F991F88
S1130340C80FD91F89E1E89E80011124C00FD11F75
S1130350CB59DF4F41E0698188810E9414078C8565
S113036040E0682F0E941407F801EB59FF4F408DBD
S1130370698188810E948107F39401C0F12C83E094
S11303808F15C8F6E39480916400E816B8F3DF9102
S1130390CF911F910F91FF90EF90089541E062E09B
S11303A080E00E9481078FE99FE00197F1F700C088
S11303B0000040E062E080E00E9481078FE99FE056
S11303C00197F1F700C000000895CF93C82F40E0D3
S11303D063E080E00E94810740E069E080E00E94E1
S11303E08107C4FB442740F960E081E00E94810753
S11303F0C5FB442740F961E081E00E948107C6FB08
S1130400442740F962E081E00E9481074C2F441F99
S11304104427441F64E081E00E9481070E94CE01CA
S11304204C2F417060E081E00E948107C1FB4427AA
S113043040F961E081E00E948107C2FB442740F952
S113044062E081E00E948107C3FB442740F964E035
S113045081E00E9481070E94CE01CF910895CF933D
S1130460C82F41E063E080E00E94810740E069E03A
S113047080E00E948107C4FB442740F960E081E0EA
S11304800E948107C5FB442740F961E081E00E9496
S11304908107C6FB442740F962E081E00E9481079E
S11304A04C2F441F4427441F64E081E00E948107CD
S11304B00E94CE014C2F417060E081E00E948107D0
S11304C0C1FB442740F961E081E00E948107C2FB3F
S11304D0442740F962E081E00E948107C3FB44277E
S11304E040F964E081E00E9481070E94CE01CF912F
S11304F0089541E063E080E00E94140741E062E077
S113050080E00E94140741E069E080E00E94140743
S113051041E060E081E00E94140741E061E081E095
S11305200E94140741E062E081E00E94140741E068
S113053064E081E00E94140781E00E94E50182E00A
S11305400E94E50188E20E94E50186E00E94E5013F
S11305508FE00E94E501089581E00E94E5018FE3A8
S11305609CE90197F1F700C0000082E00E94E501D8
S11305708FE39CE90197F1F700C000000895811111
S113058005C080E8860F0E94E5010895813029F4B2
S113059080EC860F0E94E5010895823029F484E9F5
S11305A0860F0E94E5010895833021F484ED860FBF
S11305B00E94E50108950F931F93CF938C01C0E02F
S11305C003C00E942F02CF5FF801EC0FF11D808160
S11305D08111F7CFCF911F910F910895CF93C0E070
S11305E00EC0EC2FF0E0EE0FFF1FEE0FFF1FE158DF
S11305F0FF4F41E0628181810E941407CF5F8091A7
S11306007E00C81770F3CF910895CF93DF93D82F4E
S1130610C0E032C08C2F90E0FC01EE0FFF1FEE0F04
S1130620FF1FE158FF4F20812D1325C0FC01EE0F61
S1130630FF1FEE0FFF1FE158FF4F2381213069F4A4
S1130640880F991F880F991FFC01E158FF4F41E063
S1130650628181810E9481070EC021110CC0880F24
S1130660991F880F991FFC01E158FF4F40E06281F8
S113067081810E948107CF5F80917E00C81750F26C
S1130680DF91CF910895CF93DF93D82FC0E032C08C
S11306908C2F90E0FC01EE0FFF1FEE0FFF1FE158BF
S11306A0FF4F20812D1325C0FC01EE0FFF1FEE0F1D
S11306B0FF1FE158FF4F2381213069F4880F991FF0
S11306C0880F991FFC01E158FF4F40E0628181814E
S11306D00E9481070EC021110CC0880F991F880F3A
S11306E0991FFC01E158FF4F41E0628181810E9422
S11306F08107CF5F80917E00C81750F2DF91CF91C0
S11307000895682F80E80E94EC080895682F80E41B
S11307100E94EC0808950E94A0088EEA0E948103BA
S113072085ED0E94810380E80E94810388EA0E948B
S113073081038FE30E94810383ED0E94810380E0A3
S11307400E94810380E40E9481038DE80E9481035A
S113075084E10E94810380E20E94810380E00E9480
S1130760810381EA0E94810388EC0E9481038AED5F
S11307700E94810382E10E94810381E80E94810337
S11307808FEC0E94810389ED0E94810381EF0E9416
S113079081038BED0E94810380E40E94810384EA3B
S11307A00E94810386EA0E9481038FEA0E948103EA
S11307B008958FEA0E94810308958EEA0E948103BE
S11307C00895CF93C62F80550E9481038C2F880FE4
S11307D0880F880F88700E9481038C2F90E0969573
S11307E087958F70805F0E948103CF9108951F9336
S11307F0CF93DF93EC01862F642F0E94E10316C090
S1130800E881F0E0B097EE0FFF1FEE0FFF1FEE0F31
S1130810FF1FED56FF4FE10FF11D80810E948603FB
S11308201F5F01C010E0183058F3219688818111B0
S1130830F9CFDF91CF911F910895CF93DF93D0E04B
S11308400DC060E08D2F0E94E103C0E004C080E091
S11308500E948603CF5FCC23D4F7DF5FD83088F3C0
S1130860DF91CF9108950E94DD030E941D040E9430
S1130870D9030895CF93DF93C82FD62F40E063E0C8
S113088081E00E9481078C2F90E0880F991F8E775A
S11308900E942B098D2F0E942B0941E063E081E027
S11308A00E948107DF91CF910895CF93C82F40E034
S11308B063E081E00E9481078C2F90E0880F991FEC
S11308C08E7780680E942B0980E00E942B09C82F34
S11308D041E063E081E00E9481078C2FCF9108956D
S11308E0CF93DF93D82FC62F0E945504C0956C2F49
S11308F068238D2F0E943A04DF91CF910895CF93FE
S1130900DF93D82FC62F0E945504682F6C2B8D2F90
S11309100E943A04DF91CF91089584E10E94550426
S1130920982F937029F4682F636084E10E943A043D
S1130930089560E88AE20E943A046AE98BE20E9420
S11309403A0463E08CE20E943A0468EE8DE20E946D
S11309503A0460E485E10E943A046DE381E10E9477
S11309603A040E948D0408959F92AF92BF92CF9251
S1130970DF92EF92FF920F931F93CF93DF93982E02
S11309805B01E42E69018CE0981619F0F12CD0E09B
S113099005C00F2EF7E7FF2EF02DD0E360E081E0D5
S11309A00E943A046F2D606882E00E943A0460E875
S11309B084E00E94700460E88AE00E947F0460E0A2
S11309C081E00E943A04F12C08C0F501EF0DF11DFD
S11309D0608189E00E943A04F394FE14B0F3692D17
S11309E081E00E943A04ECE09E1204C060E88DE0CD
S11309F00E947F040F2EF0EDEF2EF7E0FF2EF02D76
S1130A000CC084E00E945504C82F9D2F982341F404
S1130A1080FD30C0F1E0EF1AF1081E141F048CF3BE
S1130A2086E00E945504982F987083FD1EC0CC2345
S1130A3009F1C114D104D9F001151105D1F08AE0EE
S1130A400E945504F8018083C0E009C07601EC0ED1
S1130A50F11C89E00E945504F7018083CF5FF801FF
S1130A608081C81798F391E005C090E003C091E03D
S1130A7001C091E0892FDF91CF911F910F91FF90D9
S1130A80EF90DF90CF90BF90AF909F9008950F9319
S1130A901F93CF93DF9300D000D0CDB7DEB782E0B1
S1130AA08B8360E88EE00E94700482E58C8367E0AB
S1130AB08DE00E943A048E010D5F1F4F9E012F5F4F
S1130AC03F4F41E0BE016C5F7F4F8CE00E94B40455
S1130AD0882331F08B81823011F080E001C081E005
S1130AE00F900F900F900F90DF91CF911F910F9166
S1130AF00895EF92FF920F931F93CF93DF93CDB797
S1130B00DEB761970FB6F894DEBF0FBECDBF7C0190
S1130B1080E1898B60E88EE00E94700460E081E0EF
S1130B200E943A0460E08DE00E943A0483E98983DC
S1130B3080E28A838E010F5E1F4F9E012F5F3F4F1D
S1130B4042E0B9018CE00E94B4048823A9F020E0BB
S1130B500EC0822F90E0F701E80FF91FA1E0B0E08A
S1130B60AC0FBD1FA80FB91F8C9180832F5F243059
S1130B7080F3F701148281E061960FB6F894DEBF2A
S1130B800FBECDBFDF91CF911F910F91FF90EF90DA
S1130B9008959FEF980F9A3550F5082E000C990B85
S1130BA0BC01660F771F660F771F680F791F072E2A
S1130BB0000C880B990B0E940E0F20E030E040E1FE
S1130BC051E40E942F0E9B01AC0160E070E088E4C8
S1130BD092E40E94C20D9B01AC0160E070E080EFE2
S1130BE092E40E94C20D0E94DD0ECB0118C09AE56A
S1130BF0980F9A3568F4682F882314F461E0680F1D
S1130C006595062E000C770BCB018A5B9F4F07C0BE
S1130C10882319F080E090E002C086E490E00E940E
S1130C20B00D0E94BF0D08950E94A50D80E00E94A2
S1130C30C905089580912A0490912B0401969093FC
S1130C402B0480932A040895CF93DF938091290481
S1130C5081110FC014BC10922B0410922A040E941C
S1130C60B50B62E080E00E94EE0781E080932904E6
S1130C7045C080912904813009F040C024B5809199
S1130C802A0490912B04982F8827820F911D829516
S1130C909295907F9827807F98279093270480933C
S1130CA02604C0912804D0E06091260470912704A2
S1130CB080E090E00E940C0F20E030E048E652E42F
S1130CC00E942F0EFE01EE0FFF1FEE0FFF1FEE0F0F
S1130CD0FF1FEC1BFD0BE457FC4F63837483858378
S1130CE0968310922B0410922A0414BC63E080E0D3
S1130CF00E94EE070E94BC0B10922904DF91CF9151
S1130D000895CF93C0E013C08C2F90E0FC01EE0F48
S1130D10FF1FEE0FFF1FEE0FFF1FE81BF90BE45739
S1130D20FC4F41E0628181810E941407CF5F809172
S1130D308B03C81748F30E94A80B8FB780688FBF36
S1130D408AE196E00E94C00B0E94B10B64E276E057
S1130D5080E00E94160863E080E00E94EE07CF91D5
S1130D600895CF93DF938093280490E0EC01CC0F97
S1130D70DD1FCC0FDD1FCC0FDD1FC81BD90BC457E3
S1130D80DC4F41E06A8189810E9481072AE030E0DA
S1130D9040E050E060E070E080E090E00E94250DCB
S1130DA040E06A8189810E94810724EF31E040E0BC
S1130DB050E060E070E080E090E00E944E0D6B81B6
S1130DC07C818D819E81DF91CF9108950E9449009D
S1130DD00E946100FDCF1F920F920FB60F92112453
S1130DE02F933F934F935F936F937F938F939F932F
S1130DF0AF93BF93EF93FF93E0912F04F0913004EE
S1130E00309709F00995FF91EF91BF91AF919F91B0
S1130E108F917F916F915F914F913F912F910F909F
S1130E200FBE0F901F901895813001F130F0823081
S1130E30B1F1833009F44CC00895413059F42AB318
S1130E4081E090E002C0880F991F6A95E2F7822B37
S1130E508ABB08952AB381E090E002C0880F991FED
S1130E606A95E2F7809582238ABB0895413059F44C
S1130E7027B381E090E002C0880F991F6A95E2F7DA
S1130E80822B87BB089527B381E090E002C0880FCE
S1130E90991F6A95E2F78095822387BB08954130B4
S1130EA059F424B381E090E002C0880F991F6A9539
S1130EB0E2F7822B84BB089524B381E090E002C062
S1130EC0880F991F6A95E2F78095822384BB089561
S1130ED0413059F421B381E090E002C0880F991F9A
S1130EE06A95E2F7822B81BB089521B381E090E0FB
S1130EF002C0880F991F6A95E2F78095822381BB0F
S1130F000895813001F130F08230B1F1833009F479
S1130F104CC0089541110CC02BB381E090E002C095
S1130F20880F991F6A95E2F7809582238BBB0895F9
S1130F302BB381E090E002C0880F991F6A95E2F715
S1130F40822B8BBB089541110CC028B381E090E043
S1130F5002C0880F991F6A95E2F78095822388BBA7
S1130F60089528B381E090E002C0880F991F6A9524
S1130F70E2F7822B88BB089541110CC025B381E0B0
S1130F8090E002C0880F991F6A95E2F7809582234A
S1130F9085BB089525B381E090E002C0880F991FB6
S1130FA06A95E2F7822B85BB089541110CC022B3E8
S1130FB081E090E002C0880F991F6A95E2F780955E
S1130FC0822382BB089522B381E090E002C0880F9F
S1130FD0991F6A95E2F7822B82BB0895813079F0DC
S1130FE018F08230B9F0089585B78C7F85BF85B736
S1130FF06370682B65BF8BB780648BBF089585B71A
S1131000837F85BF85B76C70682B65BF8BB780689D
S11310108BBF089584B78F7B84BF84B7625060729E
S1131020682B64BF8BB780628BBF0895813049F011
S113103018F0823059F008957093360460933504A3
S113104008957093320460933104089570933404C6
S11310506093330408951F920F920FB60F921124D8
S11310602F933F934F935F936F937F938F939F93AC
S1131070AF93BF93EF93FF93E0913504F09136045F
S11310800995FF91EF91BF91AF919F918F917F91BE
S11310906F915F914F913F912F910F900FBE0F90E1
S11310A01F9018951F920F920FB60F9211242F9331
S11310B03F934F935F936F937F938F939F93AF93DC
S11310C0BF93EF93FF93E0913104F09132040995BB
S11310D0FF91EF91BF91AF919F918F917F916F910C
S11310E05F914F913F912F910F900FBE0F901F90E2
S11310F018951F920F920FB60F9211242F933F93BE
S11311004F935F936F937F938F939F93AF93BF930B
S1131110EF93FF93E0913304F09134040995FF9128
S1131120EF91BF91AF919F918F917F916F915F915B
S11311304F913F912F910F900FBE0F901F901895D4
S113114080919A03843061F018F4813031F013C037
S1131150803151F0803461F00EC081B181B90BC08F
S113116081B1816081B907C081B1826081B903C056
S113117081B1836081B988E480B9089584EE86BF23
S113118006B607FEFDCF81B1887F883011F081E07B
S1131190089580E0089583B984E886BF06B607FE03
S11311A0FDCF80E0089583B984E886BF06B607FEC4
S11311B0FDCF81B1887F883211F085E0089580E009
S11311C0089583B984E886BF06B607FEFDCF80E0A4
S11311D0089584ED86BF0895CF93DF93D82FC62F4B
S11311E00E94BE0888E70E94CB088D2F0E94D30876
S11311F08C2F0E94E1080E94E908DF91CF910895A5
S11312008EB18E7F8EB98DB18F7D8DB98DB1877F73
S11312108DB98DB18B7F8DB98DB18F778DB98DB12E
S113122080648DB987B3806287BB87B3806887BBCE
S113123087B3886087BB87B38F7B87BB88B388609D
S113124088BB8DB180618DB98DB181608DB98DB14F
S11312508D7F8DB908958FB9779BFECF8FB1089597
S11312601F920F920FB60F9211242F933F934F9317
S11312705F936F937F938F939F93AF93BF93EF93FA
S1131280FF93E0912C04F0912D040995FF91EF91C7
S1131290BF91AF919F918F917F916F915F914F918A
S11312A03F912F910F900FBE0F901F90189583B709
S11312B0877F83BF83B78F7B83BF83B783BF83B7A6
S11312C083BF089583B7887F83BF83B7826083BF5A
S11312D0089583B7887F83BF08952F923F924F92DA
S11312E05F926F927F928F929F92AF92BF92CF92B2
S11312F0DF92EF92FF920F931F93CF93DF93CDB7BB
S1131300DEB768970FB6F894DEBF0FBECDBF0E945C
S1131310490F9B01AC010E94C30D0E94A60E2F8BA6
S1131320232E342E852E962E788F89839A832F3FF1
S1131330310541055105610571058105910509F0E6
S113134038F4122F1195412C512C32011983E1C02C
S11313502F89788D89819A812115E1E03E07410525
S11313605105610571058105910509F4BAC021157E
S113137001E03007410551056105710581059105BD
S113138009F008F4B4C002E00E948310422E532EE8
S1131390642E752EB62FA72FF82FE92F0E948310E5
S11313A0A22EB32EC42ED52EE62EF72E082F192FDB
S11313B0242D352D462D572D6B2F7A2F8F2F9E2FB1
S11313C00E94BA10422E532E642E752EB62FA72FCC
S11313D0F82FE92F02E00E948310A22EB32EC42E10
S11313E0D52EE62EF72E082F192F242D352D462D18
S11313F0572D6B2F7A2F8F2F9E2F0E94BA10622E9B
S1131400732EB42FA52FF62FE72F582E492E08E060
S11314100E949E102F87388B498B5A8B6B8B7C8B49
S11314208D8B9E8BA12C0F2EF4E6BF2EF02DC12C9C
S1131430D12CE12CF12C00E010E0262D372D4B2F80
S11314405A2F6F2F7E2F852D942D0E9426102B83CB
S11314503C834D835E834B805C806D807E80A4E6FC
S1131460B0E0A30192010E9419107B018C0120E0DD
S113147030E0A9016F83F88609871A872B873C8798
S11314804D875E872F85388949895A896B897C897C
S11314908D899E89AE2CBF2CC02ED12EE12CF12C2F
S11314A000E010E00E94CC1029F00FEF401A500A1F
S11314B0600A700A93018201A42CB12EC22ED32E8D
S11314C0E12CF12C00E010E02F89322D432D582D12
S11314D0692D788D89819A810E942610219529830E
S11314E018C01982412C512C3201439412C0198224
S11314F0412C512C32010DC0398132BF08B600FE97
S1131500FDCF88B7816088BF41E0441A5108610863
S11315107108411451046104710471F768960FB69F
S1131520F894DEBF0FBECDBFDF91CF911F910F9115
S1131530FF90EF90DF90CF90BF90AF909F908F90EF
S11315407F906F905F904F903F902F9008951F92DF
S11315500F920FB60F9211242F933F934F935F93E3
S11315606F937F938F939F93AF93BF93EF93FF9367
S1131570E0913704F0913804309709F00995FF9110
S1131580EF91BF91AF919F918F917F916F915F91F7
S11315904F913F912F910F900FBE0F901F90189570
S11315A01F920F920FB60F9211242F933F934F93D4
S11315B05F936F937F938F939F93AF93BF93EF93B7
S11315C0FF93E0913904F0913A04309709F00995BA
S11315D0FF91EF91BF91AF919F918F917F916F9107
S11315E05F914F913F912F910F900FBE0F901F90DD
S11315F018958031A0F49FB59C7F9FBD9FB5282F7F
S11316002370922B9FBD9EB5977E9EBD2EB5982FBD
S11316109C70892F90E0880F991F822B8EBD0895AE
S11316208EB5887F8EBD8EB582608EBD08959BBDBC
S11316308ABD089597BD86BD0895882319F091B396
S1131640906291BB9FB59F739FBD2FB530E4839F7C
S1131650C0011124822B8FBD08951F920F920FB6E3
S11316600F9211242F933F934F935F936F937F9324
S11316708F939F93AF93BF93EF93FF93E0913D04B8
S1131680F0913E04309709F00995FF91EF91BF91D5
S1131690AF919F918F917F916F915F914F913F9106
S11316A02F910F900FBE0F901F9018951F920F92BD
S11316B00FB60F9211242F933F934F935F936F9321
S11316C07F938F939F93AF93BF93EF93FF93E09197
S11316D03B04F0913C04309709F00995FF91EF9198
S11316E0BF91AF919F918F917F916F915F914F9136
S11316F03F912F910F900FBE0F901F9018951F923E
S11317000F920FB60F9211242F933F934F935F9331
S11317106F937F938F939F93AF93BF93EF93FF93B5
S1131720E0913F04F0914004309709F00995FF914E
S1131730EF91BF91AF919F918F917F916F915F9145
S11317404F913F912F910F900FBE0F901F901895BE
S113175085B5877F85BD85B58F7B85BD85B585BD01
S1131760089589B7806489BF089585B5887F85BD4C
S113177085B5866085BD089585B5887F85BD089546
S1131780909344048093430408951F920F920FB6DC
S11317900F9211242F933F934F935F936F937F93F3
S11317A08F939F93AF93BF93EF93FF93E09145047F
S11317B0F0914604309709F00995FF91EF91BF919C
S11317C0AF919F918F917F916F915F914F913F91D5
S11317D02F910F900FBE0F901F9018951F920F928C
S11317E00FB60F9211242F933F934F935F936F93F0
S11317F07F938F939F93AF93BF93EF93FF93E09166
S11318004304F0914404309709F00995FF91EF9156
S1131810BF91AF919F918F917F916F915F914F9104
S11318203F912F910F900FBE0F901F901895CF935B
S1131830DF93CBE9D3E08C819D81AE81BF81880F9A
S1131840991FAA1FBB1F880F991FAA1FBB1F9C01AA
S1131850AD01220F331F441F551F220F331F441F96
S1131860551F60E074E284EF90E00E94E80F21507D
S113187010BC29B989818730D1F028F4853059F01A
S1131880863079F026C0883019F08930E1F021C023
S113189096E881E020C08AB18B7F8AB990E881E024
S11318A01AC08AB18B7F8AB992E881E014C080B5EE
S11318B08D7F80BD80B5846080BD8AB18B7F8AB9FD
S11318C090E881E008C08AB184608AB996E881E032
S11318D002C090E880E020919D03213031F018F09F
S11318E0223031F007C09F7C06C09F7E906203C007
S11318F0906301C080E020919E03213019F02230D2
S113190019F004C0977F03C0986001C080E0209163
S11319109B03213041F018F0223049F00FC02AB166
S113192020612AB90CC02AB128602AB908C02AB19A
S113193028602AB92AB120612AB901C080E090BD8B
S1131940DF91CF9108955D9BFECF9AB19AB98CB97E
S113195085E008951F920F920FB60F9211242F93D2
S11319603F934F935F936F937F938F939F93AF9323
S1131970BF93EF93FF93E0911505F091160530970F
S113198009F00995FF91EF91BF91AF919F918F91CC
S11319907F916F915F914F913F912F910F900FBE67
S11319A00F901F9018951F920F920FB60F9211244B
S11319B02F933F934F935F936F937F938F939F9353
S11319C0AF93BF93EF93FF93E0911305F091140548
S11319D0309709F00995FF91EF91BF91AF919F91D5
S11319E08F917F916F915F914F913F912F910F90C4
S11319F00FBE0F901F9018951F920F920FB60F9263
S1131A0011242F933F934F935F936F937F938F93FF
S1131A109F93AF93BF93EF93FF93E0914704F091AB
S1131A204804309709F00995FF91EF91BF91AF9168
S1131A309F918F917F916F915F914F913F912F91E2
S1131A400F900FBE0F901F901895CF92DF92EF92D8
S1131A50FF920F931F93CF93DF93C22ED32EE42EC6
S1131A60F52E062F172FD82FC92F0E9457090E9431
S1131A7062092C2D3D2D4E2D5F2D602F712F8D2F42
S1131A809C2F0E946D090E946909DF91CF911F91DB
S1131A900F91FF90EF90DF90CF9008954F925F9257
S1131AA06F927F928F929F92AF92BF92CF92DF926A
S1131AB0EF92FF920F931F93CF93DF93422E532EF7
S1131AC0642E752E862E972ED82FC92F0E94570963
S1131AD00E946209242D352D462D572D682D792D10
S1131AE08D2F9C2F02E00E948310A22EB32EC42EB1
S1131AF0D52EE62EF72EE82F192F05E00E9483102D
S1131B000E2F0E94C310A42CB52CC62CD72CE82C65
S1131B10F92C0D2F1C2F0E94BA1003E00E94831091
S1131B200E946D090E946909DF91CF911F910F9165
S1131B30FF90EF90DF90CF90BF90AF909F908F90E9
S1131B407F906F905F904F9008958EE00E94F90A05
S1131B5082E00E941D0B8FE39CE90E941A0B0895FA
S1131B609C01A0E4BCE90E940A1028EE33E040E0A6
S1131B7050E00E94E80FC9010E94170B08950E94CB
S1131B80100B08955058BB27AA270E94DA0D0C9415
S1131B90AE0F0E94A00F38F00E94A70F20F039F476
S1131BA09F3F19F426F40C948D0F0EF4E095E7FB97
S1131BB00C94870FE92F0E94BF0F58F3BA176207DE
S1131BC073078407950720F079F4A6F50C94E10FC8
S1131BD00EF4E0950B2EBA2FA02D0B01B901900144
S1131BE00C01CA01A0011124FF27591B99F0593F88
S1131BF050F4503E68F11A16F040A22F232F342FD0
S1131C004427585FF3CF469537952795A795F0401D
S1131C105395C9F77EF41F16BA0B620B730B840B32
S1131C20BAF09150A1F0FF0FBB1F661F771F881FEA
S1131C30C2F70EC0BA0F621F731F841F48F4879542
S1131C4077956795B795F7959E3F08F0B0CF939534
S1131C50880F08F09927EE0F9795879508950E94AD
S1131C60430E0C94AE0F0E94A70F58F00E94A00FD1
S1131C7040F029F45F3F29F00C94870F51110C9424
S1131C80E20F0C948D0F0E94BF0F68F39923B1F3F8
S1131C90552391F3951B550BBB27AA27621773078E
S1131CA0840738F09F5F5F4F220F331F441FAA1F22
S1131CB0A9F335D00E2E3AF0E0E832D091505040DE
S1131CC0E695001CCAF72BD0FE2F29D0660F771F8C
S1131CD0881FBB1F261737074807AB07B0E809F072
S1131CE0BB0B802DBF01FF2793585F4F3AF09E3FF7
S1131CF0510578F00C94870F0C94E20F5F3FE4F3E6
S1131D00983ED4F3869577956795B795F7959F5F39
S1131D10C9F7880F911D9695879597F90895E1E085
S1131D20660F771F881FBB1F621773078407BA07E4
S1131D3020F0621B730B840BBA0BEE1F88F7E0953F
S1131D400895BEE304D008F490E80895BFE3222781
S1131D503327A9010E94C70F60F19F5748F1B917B3
S1131D6040F1BFE3B91B9927B8503AF4660F771FC7
S1131D70881F991FB395D2F316C0B8504AF0232F89
S1131D80342F452F562F672F782F8827B850BAF74E
S1131D90B85F49F086957795679557954795379538
S1131DA02795BA95B9F716F40E94900F8894089570
S1131DB0889460E070E0CB0108950E94C70F88F01A
S1131DC09F5798F0B92F9927B751B0F0E1F0660FFB
S1131DD0771F881F991F1AF0BA95C9F714C0B1303C
S1131DE091F00E94E10FB1E008950C94E10F672F88
S1131DF0782F8827B85F39F0B93FCCF3869577956B
S1131E006795B395D9F73EF4909580957095619553
S1131E107F4F8F4F9F4F0895E89409C097FB3EF47E
S1131E2090958095709561957F4F8F4F9F4F992323
S1131E30A9F0F92F96E9BB279395F69587957795A1
S1131E406795B795F111F8CFFAF4BB0F11F460FF61
S1131E501BC06F5F7F4F8F4F9F4F16C0882311F0B9
S1131E6096E911C0772321F09EE8872F762F05C0CD
S1131E70662371F096E8862F70E060E02AF09A9568
S1131E80660F771F881FDAF7880F9695879597F95D
S1131E900895E894F92F96EBFF2381F012161306A8
S1131EA01406440B9395F695879577956795579502
S1131EB04040FF23B9F71BC099270895882351F4A4
S1131EC09850D2F7872B762F652F542F432F322F1C
S1131ED020E0B1F3121613061406440B88233AF0DB
S1131EE09A95440F551F661F771F881FCAF75523FD
S1131EF04AF4440F551F11F460FF04C06F5F7F4F15
S1131F008F4F9F4F880F9695879597F9089597F966
S1131F109F6780E870E060E008959FEF80EC08958B
S1131F209095809570956095509540953095219544
S1131F303F4F4F4F5F4F6F4F7F4F8F4F9F4F0895CE
S1131F4000240A9416161706180609060895002494
S1131F500A9412161306140605060895092E03940E
S1131F60000C11F4882352F0BB0F40F4BF2B11F482
S1131F7060FF04C06F5F7F4F8F4F9F4F089557FDE1
S1131F809058440F551F59F05F3F71F04795880FE3
S1131F9097FB991F61F09F3F79F08795089512167A
S1131FA013061406551FF2CF4695F1DF08C0161626
S1131FB017061806991FF1CF8695710561050894D7
S1131FC00895E894BB2766277727CB0197F90895EE
S1131FD0A1E21A2EAA1BBB1BFD010DC0AA1FBB1F29
S1131FE0EE1FFF1FA217B307E407F50720F0A21B9B
S1131FF0B30BE40BF50B661F771F881F991F1A9408
S113200069F760957095809590959B01AC01BD0131
S1132010CF010895A29FB001B39FC001A39F700D8B
S1132020811D1124911DB29F700D811D1124911DDC
S113203008950E940A10A59F900DB49F900DA49F2F
S1132040800D911D11240895689401C0E8948F9225
S11320509F92CF93DF930E943210DF91CF919F9094
S11320608F90089588249924F401E401B0E49F93A7
S1132070AA279A158B049C04ED05FE05CF05D0070D
S1132080A10798F4AD2FDC2FCF2FFE2FE92D982C2C
S1132090892E982F872F762F652F542F432F322F79
S11320A02227B85031F7BF9127C01B2EBF91BB2701
S11320B0220F331F441F551F661F771F881F991F48
S11320C0881C991CEE1FFF1FCC1FDD1FAA1FBB1FFE
S11320D08A149B04EC05FD05CE05DF05A007B107B6
S11320E048F08A189B08EC09FD09CE09DF09A00B0A
S11320F0B10B21601A94E1F62EF49401AF01BE01F4
S1132100CD01000C08950F93083090F0982F872F7D
S1132110762F652F542F432F322F22270850F4CFC8
S1132120220F331F441F551F661F771F881F991FD7
S11321300A95B2F70F91089597FB10F816940008CA
S11321400F93083098F00850232F342F452F562F23
S1132150672F782F892F902DF4CF05949795879525
S11321607795679557954795379527950A95AAF7D3
S11321700F9108952A0D3B1D4C1D5D1D6E1D7F1D85
S1132180801F911F08952A193B094C095D096E09A6
S11321907F09800B910B08952A153B054C055D05BD
S11321A06E057F05800791070895FB01DC0104C0DB
S11321B08D910190801921F441505040C8F7881B3B
S10B21C0990B0895F894FFCF78
S11321C8278448D60102050202040202030202021D
S11321D802030700030600030500030300010500CA
S11321E800040101000601020107010300050104BE
S11321F80206010000000000000000000000005F6B
S113220800000000000007000700000000147F140D
S11322187F14000000242A7F2A1200000245320895
S113222826512000324D495120500000000004037B
S11322380100000000001C224100000000004122AF
S11322481C0000000444281F284404000808087FD0
S1132258080808000080602000000000080808083A
S113226808080800000060600000000000C0300C8E
S1132278030000003E414141413E00000000027F4E
S11322880000000042615149454200002241494989
S113229849360000101814527F5000004F4949492C
S11322A8493100003C4A49494930000001014131A3
S11322B80D03000036494949493600000649494991
S11322C8291E0000000066660000000000806626E3
S11322D800000000080814142222000024242424E6
S11322E824242400222214140808000000020151A6
S11322F8090600001C22495549120C0040701C179D
S11323081C7040007F494949494936001C22414113
S1132318414122007F41414141221C007F494949F2
S1132328494141007F090909090101001C22414171
S113233849497A007F08080808087F000041417F5E
S11323484141000030404041413F00007F080814EB
S1132358224100007F404040404000007F020408C2
S113236804027F007F02040810207F001C224141E0
S113237841221C007F090909090906001C22414160
S1132388C1A29C007F09090919294600264949491F
S1132398494932000101017F010101003F404040E9
S11323A840403F0001071860180701007F2010080B
S11323B810207F00412214081422410001020478ED
S11323C80402010041615149454341000000007F76
S11323D84141000000030C30C00000000041417F6F
S11323E800000000000402010204000080808080D4
S11323F88080800000000103040000003844444445
S113240844247C007F4444444444380038444444CD
S1132418444400003844444444447F0038545454E9
S113242854541800047E05050101000018A4A4A44E
S1132438A4A47C007F040404040478000044447DBC
S11324484040000000808484847D00007F101028B0
S1132458444400000000417F400000007C0404382C
S1132468040478007C0804040404780038444444D0
S113247844443800FC444444444438003844444404
S11324884444FC00007C08040404000048545454E8
S11324985424000004043F44444400003C404040A9
S11324A840207C00040C3040300C04003C40403890
S11324B840403C0044442810284444001CA0A0A0E8
S11324C8A07C0000446454544C44000000000836C6
S11324D8410000000000007F0000000000004136B9
S11324E808000000060101020404030200020200BD
S11324F8000000010203000000000402080001803B
S113250825000057656C636F6D6500456E746572D0
S11325182050617373776F72642000456E7465721E
S11325282050617373776F726400436F72726563CE
S1132538742050617373776F7264005472792061E8
S11325486761696E0054525920616761696E206140
S113255866746572203520736563730057726F6EF5
S1132568672050617373776F7264002057726F6EBF
S1132578672050617373776F72645452592061678E
S109258861696E200000F1
S9030000FC
