S01400004E54495F61746D65676133322E73726563F2
S11300000C942A000C94D7030C94FE030C9425043E
S11300100C9440050C9469050C9447000C94170546
S11300200C94EE040C94C5040C9473040C949C047A
S11300300C944C040C9492050C94BB050C94E405AC
S11300400C94A5020C9447000C9447000C944700B0
S11300500C94470011241FBECFE5D8E0DEBFCDBF0E
S113006010E0A0E6B0E0E8E8FCE002C005900D92E4
S1130070A639B107D9F721E0A6E9B0E001C01D9285
S1130080A638B207E1F70E9449020C9442060C9488
S1130090000041E061E080E00E94CE0240E061E0C7
S11300A080E00E943B032FEF89EF90E021508040D5
S11300B09040E1F700C0000041E061E080E00E9470
S11300C03B03089540E061E080E00E94CE0261E0DD
S11300D080E00E94A8038130D1F361E080E00E94B7
S11300E0A8038823D1F361E080E00E94A803813053
S11300F0D1F30895CF93DF93D0E0C0E01EC061E058
S113010080E00E94A8038823D1F380EA8A95F1F75E
S113011061E080E00E94A803813039F48C2F90E0E4
S1130120880F991FC82FC16001C0CC0F61E080E027
S11301300E94A8038130D1F3DF5FD83000F38C2F05
S1130140DF91CF9108952F923F924F925F926F92D9
S11301507F928F929F92AF92BF92CF92DF92EF9253
S1130160FF920F931F93CF93DF9300D000D01F9281
S1130170CDB7DEB72C011B010E9449000E9462002A
S11301800E947A00E82E0E947A00882E0E947A004B
S1130190082F0E947A00A82E0E947A00C82EF12C03
S11301A0912C3701680C791C10E0600E711EB12C83
S11301B06A0C7B1C4AE0BE016F5F7F4FC3010E9443
S11301C00D0660E083E00E940302CE0101960E94C6
S11301D01F0281E790E00E941F02D12C4AE0BE0179
S11301E06F5F7F4FC6010E940D06CE0101960E94EB
S11301F01F026C147D0481F4FE2CEE248E0C9F1CD3
S1130200F20191828082102F0027A00EB11EF1010D
S1130210B182A08281E001C080E00F900F900F9026
S11302200F900F90DF91CF911F910F91FF90EF905E
S1130230DF90CF90BF90AF909F908F907F906F9002
S11302405F904F903F902F90089541E062E080E0EE
S11302500E943B038FE99FE00197F1F700C0000083
S113026040E062E080E00E943B038FE99FE0019759
S1130270F1F700C000000895CF93C82F40E063E079
S113028080E00E943B0340E069E080E00E943B0381
S1130290C4FB442740F960E081E00E943B03C5FBB6
S11302A0442740F961E081E00E943B03C6FB4427F8
S11302B040F962E081E00E943B034C2F441F442735
S11302C0441F64E081E00E943B030E9425014C2FFF
S11302D0417060E081E00E943B03C1FB442740F988
S11302E061E081E00E943B03C2FB442740F962E0E5
S11302F081E00E943B03C3FB442740F964E081E0B2
S11303000E943B030E942501CF910895CF93C82FEB
S113031041E063E080E00E943B0340E069E080E06C
S11303200E943B03C4FB442740F960E081E00E9443
S11303303B03C5FB442740F961E081E00E943B0395
S1130340C6FB442740F962E081E00E943B034C2F46
S1130350441F4427441F64E081E00E943B030E9441
S113036025014C2F417060E081E00E943B03C1FBFA
S1130370442740F961E081E00E943B03C2FB44272B
S113038040F962E081E00E943B03C3FB442740F94B
S113039064E081E00E943B030E942501CF9108950F
S11303A041E063E080E00E94CE0241E062E080E050
S11303B00E94CE0241E069E080E00E94CE0241E06A
S11303C060E081E00E94CE0241E061E081E00E94B1
S11303D0CE0241E062E081E00E94CE0241E064E0AE
S11303E081E00E94CE0281E00E943C0182E00E94F2
S11303F03C0188E20E943C0186E00E943C018FE0BF
S11304000E943C010895811105C080E8860F0E9476
S11304103C010895813029F480EC860F0E943C0150
S11304200895823029F484E9860F0E943C010895DE
S1130430833021F484ED860F0E943C0108950F93CC
S11304401F93CF938C01C0E003C00E948601CF5F4D
S1130450F801EC0FF11D80818111F7CFCF911F912D
S11304600F910895CF93C0E00EC0EC2FF0E0EE0F93
S1130470FF1FEE0FFF1FEF59FF4F41E062818181A3
S11304800E94CE02CF5F80916000C81770F3CF91B5
S11304900895CF93DF9300D000D0CDB7DEB71A8292
S11304A019821C821B820E94D0010E943202BE016A
S11304B06D5F7F4FCE0101960E94A300811105C09C
S11304C086E790E00E941F0236C060E080E00E9450
S11304D003028DE790E00E941F0260E081E00E9429
S11304E0030288E890E00E941F024AE068E970E095
S11304F089819A810E940D066BE080E00E940302CC
S113050088E990E00E941F0280E990E00E941F02A7
S11305104AE068E970E08B819C810E940D0666E0E8
S113052081E00E94030288E990E00E941F0282E9B0
S113053090E00E941F022FEF83ED90E32150804052
S11305409040E1F700C00000B2CF1F920F920FB6A7
S11305500F9211242F933F934F935F936F937F9345
S11305608F939F93AF93BF93EF93FF93E0919D007D
S1130570F0919E00309709F00995FF91EF91BF919A
S1130580AF919F918F917F916F915F914F913F9127
S11305902F910F900FBE0F901F901895813001F18D
S11305A030F08230B1F1833009F44CC00895413009
S11305B059F42AB381E090E002C0880F991F6A952C
S11305C0E2F7822B8ABB08952AB381E090E002C04F
S11305D0880F991F6A95E2F7809582238ABB089554
S11305E0413059F427B381E090E002C0880F991F8D
S11305F06A95E2F7822B87BB089527B381E090E0E8
S113060002C0880F991F6A95E2F78095822387BB01
S11306100895413059F424B381E090E002C0880F7A
S1130620991F6A95E2F7822B84BB089524B381E075
S113063090E002C0880F991F6A95E2F780958223A3
S113064084BB0895413059F421B381E090E002C0A5
S1130650880F991F6A95E2F7822B81BB089521B315
S113066081E090E002C0880F991F6A95E2F78095B7
S1130670822381BB0895813001F130F08230B1F1E1
S1130680833009F44CC0089541110CC02BB381E0B0
S113069090E002C0880F991F6A95E2F78095822343
S11306A08BBB08952BB381E090E002C0880F991FA3
S11306B06A95E2F7822B8BBB089541110CC028B3D5
S11306C081E090E002C0880F991F6A95E2F7809557
S11306D0822388BB089528B381E090E002C0880F8C
S11306E0991F6A95E2F7822B88BB089541110CC0CB
S11306F025B381E090E002C0880F991F6A95E2F764
S11307008095822385BB089525B381E090E002C0E3
S1130710880F991F6A95E2F7822B85BB08954111D2
S11307200CC022B381E090E002C0880F991F6A9543
S1130730E2F78095822382BB089522B381E090E0A2
S113074002C0880F991F6A95E2F7822B82BB089535
S1130750813079F028F08230A9F08330E9F025C0A7
S113076089B390E002C0959587956A95E2F7817008
S1130770089586B390E002C0959587956A95E2F74F
S1130780817008958091930390E002C095958795B8
S11307906A95E2F78170089580B390E002C0959560
S11307A087956A95E2F78170089580E008951F9215
S11307B00F920FB60F9211242F933F934F935F9391
S11307C06F937F938F939F93AF93BF93EF93FF9315
S11307D0E091A300F091A4000995FF91EF91BF91DE
S11307E0AF919F918F917F916F915F914F913F91C5
S11307F02F910F900FBE0F901F9018951F920F927C
S11308000FB60F9211242F933F934F935F936F93DF
S11308107F938F939F93AF93BF93EF93FF93E09155
S11308209F00F091A0000995FF91EF91BF91AF91C6
S11308309F918F917F916F915F914F913F912F91F4
S11308400F900FBE0F901F9018951F920F920FB626
S11308500F9211242F933F934F935F936F937F9342
S11308608F939F93AF93BF93EF93FF93E091A10076
S1130870F091A2000995FF91EF91BF91AF919F91E3
S11308808F917F916F915F914F913F912F910F9035
S11308900FBE0F901F9018951F920F920FB60F92D4
S11308A011242F933F934F935F936F937F938F9371
S11308B09F93AF93BF93EF93FF93E0919600F091D2
S11308C097000995FF91EF91BF91AF919F918F91FF
S11308D07F916F915F914F913F912F910F900FBE38
S11308E00F901F9018951F920F920FB60F9211241C
S11308F02F933F934F935F936F937F938F939F9324
S1130900AF93BF93EF93FF93E091A500F091A600FE
S1130910309709F00995FF91EF91BF91AF919F91A5
S11309208F917F916F915F914F913F912F910F9094
S11309300FBE0F901F9018951F920F920FB60F9233
S113094011242F933F934F935F936F937F938F93D0
S11309509F93AF93BF93EF93FF93E091A700F09120
S1130960A800309709F00995FF91EF91BF91AF91DD
S11309709F918F917F916F915F914F913F912F91B3
S11309800F900FBE0F901F9018951F920F920FB6E5
S11309900F9211242F933F934F935F936F937F9301
S11309A08F939F93AF93BF93EF93FF93E091AB002B
S11309B0F091AC00309709F00995FF91EF91BF9148
S11309C0AF919F918F917F916F915F914F913F91E3
S11309D02F910F900FBE0F901F9018951F920F929A
S11309E00FB60F9211242F933F934F935F936F93FE
S11309F07F938F939F93AF93BF93EF93FF93E09174
S1130A00A900F091AA00309709F00995FF91EF91A0
S1130A10BF91AF919F918F917F916F915F914F9112
S1130A203F912F910F900FBE0F901F9018951F921A
S1130A300F920FB60F9211242F933F934F935F930E
S1130A406F937F938F939F93AF93BF93EF93FF9392
S1130A50E091AD00F091AE00309709F00995FF9157
S1130A60EF91BF91AF919F918F917F916F915F9122
S1130A704F913F912F910F900FBE0F901F9018959B
S1130A801F920F920FB60F9211242F933F934F93FF
S1130A905F936F937F938F939F93AF93BF93EF93E2
S1130AA0FF93E091B300F091B400309709F00995F9
S1130AB0FF91EF91BF91AF919F918F917F916F9132
S1130AC05F914F913F912F910F900FBE0F901F9008
S1130AD018951F920F920FB60F9211242F933F93E4
S1130AE04F935F936F937F938F939F93AF93BF9332
S1130AF0EF93FF93E091B100F091B200309709F0C9
S1130B000995FF91EF91BF91AF919F918F917F9143
S1130B106F915F914F913F912F910F900FBE0F9066
S1130B201F9018951F920F920FB60F9211242F93B6
S1130B303F934F935F936F937F938F939F93AF9361
S1130B40BF93EF93FF93E0918301F0918401309779
S1130B5009F00995FF91EF91BF91AF919F918F910A
S1130B607F916F915F914F913F912F910F900FBEA5
S1130B700F901F9018951F920F920FB60F92112489
S1130B802F933F934F935F936F937F938F939F9391
S1130B90AF93BF93EF93FF93E0918101F0918201B2
S1130BA0309709F00995FF91EF91BF91AF919F9113
S1130BB08F917F916F915F914F913F912F910F9002
S1130BC00FBE0F901F9018951F920F920FB60F92A1
S1130BD011242F933F934F935F936F937F938F933E
S1130BE09F93AF93BF93EF93FF93E091B500F09180
S1130BF0B600309709F00995FF91EF91BF91AF913D
S1130C009F918F917F916F915F914F913F912F9120
S1130C100F900FBE0F901F901895BB274A3031F4E8
S1130C20992322F4BDE2909581959F4F0C94190667
S1130C30BB27FB015527AA27880F991FAA1FA417B2
S1130C4010F0A41B83955051B9F7A05DAA3308F0A6
S1130C50A95DA193009779F7B111B1931192CB01DA
S1130C600C943206DC01FC01672F71917723E1F7C4
S1130C70329704C07C916D9370836291AE17BF0765
S10B0C80C8F30895F894FFCFB6
S1130C880400000401010006010201070103000534
S1130C9801203D3D20004552524F52200048756DB9
S1130CA86964697479203D0054656D70203D2000A5
S1090CB82E0043200000A1
S9030000FC
