:100000000C942A000C9447000C9447000C94470071
:100010000C9447000C9447000C94C7020C944700C2
:100020000C9447000C9447000C94EE030C94C70307
:100030000C9447000C9447000C9447000C94470024
:100040000C9447000C9447000C9447000C94470014
:100050000C94470011241FBECFE5D8E0DEBFCDBF12
:1000600011E0A0E6B0E0E0EAF5E102C005900D92F3
:10007000AE37B107D9F711E0AEE7B1E001C01D928C
:10008000AB38B107E1F70E9414030C94CE0A0C942C
:1000900000008FEF8ABB87BB84E184BB8FEB81BB01
:1000A0000895382F8830C8F4613059F42BB381E0BB
:1000B00090E002C0880F991F3A95E2F7282B2BBBDE
:1000C00008952BB381E090E002C0880F991F3A9504
:1000D000E2F7809582238BBB0895482F4850483023
:1000E000C8F4613059F428B381E090E002C0880F71
:1000F000991F4A95E2F7282B28BB089528B381E081
:1001000090E002C0880F991F4A95E2F780958223FC
:1001100088BB0895482F40514830C8F4613059F4E5
:1001200025B381E090E002C0880F991F4A95E2F75D
:10013000282B25BB089525B381E090E002C0880FED
:10014000991F4A95E2F78095822385BB089538511F
:100150003830C0F4613059F422B381E090E002C03D
:10016000880F991F3A95E2F7282B22BB089522B3F6
:1001700081E090E002C0880F991F3A95E2F78095E0
:10018000822382BB0895282F883040F489B390E001
:1001900002C0959587952A95E2F711C0382F3850FF
:1001A000383010F486B305C0382F3051383048F459
:1001B00083B390E002C0959587953A95E2F78170F8
:1001C00008952851283040F480B390E002C09595FE
:1001D00087952A95E2F781700895382F8830C8F402
:1001E000613059F42AB381E090E002C0880F991F72
:1001F0003A95E2F7282B2ABB08952AB381E090E0D4
:1002000002C0880F991F3A95E2F7809582238ABB36
:100210000895482F48504830C8F4613059F427B346
:1002200081E090E002C0880F991F4A95E2F7282BE1
:1002300027BB089527B381E090E002C0880F991F83
:100240004A95E2F78095822387BB0895482F405155
:100250004830C8F4613059F424B381E090E002C022
:10026000880F991F4A95E2F7282B24BB089524B3E1
:1002700081E090E002C0880F991F4A95E2F78095CF
:10028000822384BB089538513830C0F4613059F46A
:1002900021B381E090E002C0880F991F3A95E2F700
:1002A000282B21BB089521B381E090E002C0880F84
:1002B000991F3A95E2F78095822381BB0895382FE4
:1002C000883058F42BB381E090E002C0880F991F6A
:1002D0003A95E2F728272BBB0895482F485048301D
:1002E00058F428B381E090E002C0880F991F4A9526
:1002F000E2F7282728BB0895482F4051483058F48A
:1003000025B381E090E002C0880F991F4A95E2F77B
:10031000282725BB08953851383050F422B381E0A6
:1003200090E002C0880F991F3A95E2F7282722BB78
:1003300008958FB780688FBF08958FB78F778FBF6D
:10034000089590E021E030E0482F50E009C0F90125
:10035000E49F9001E59F300DF49F300D11249F5FC5
:100360009617A8F3C90108950F931F93682F082FBC
:1003700010E0617080E00E94510015950795602F94
:10038000617081E00E94510015950795602F6170A2
:1003900082E00E94510015950795602F617083E0FF
:1003A0000E94510015950795602F617084E00E94AE
:1003B000510015950795602F617085E00E945100EE
:1003C00015950795602F617086E00E945100159584
:1003D0000795017087E0602F0E9451008AE161E07B
:1003E0000E94510000E41FE1C8010197F1F78AE182
:1003F00060E00E945100C8010197F1F71F910F9131
:1004000008951F93182F88E161E00E94510089E14F
:1004100060E00E945100812F0E94B4011F91089555
:10042000FF920F931F93CF93DF93EC01009721F47A
:1004300080E30E94010243C0FF24F3946AE070E06D
:100440000E94830ACB0161157105B9F71F2D115068
:100450004C2F3D2F00E02DC0CB01880F991FA3E04A
:10046000660F771FAA95E1F7680F791F2F5F211795
:1004700098F3842F932F0E94830A862F805D0E9419
:10048000010261E070E020E00BC0CB01880F991FF2
:10049000E3E0660F771FEA95E1F7680F791F2F5F9A
:1004A000211798F3CE010E94830A482F392F0F5F3E
:1004B00011500F1520F461E070E020E0D8CF80E00B
:1004C000DF91CF911F910F91FF9008951F93CF93CC
:1004D000DF93EC0110E003C00E9401021F5FFE01E8
:1004E000E10FF11D80818823B9F7DF91CF911F9132
:1004F00008951F93182F88E160E00E94510089E160
:1005000060E00E945100812F0E94B4011F91089564
:10051000813029F4862F80580E9479020895823014
:1005200021F4862F80540E947902089581E00E9470
:10053000790280E49FE10197F1F708950F931F93EB
:100540008EE591E020E931E0F9013197F1F701976B
:10055000D9F788E30E94790200EA1FE0C8010197F9
:10056000F1F78CE00E947902C8010197F1F70E942F
:10057000960286E00E94790280E49FE10197F1F7FC
:100580008AE160E00E9451001F910F9108951F922F
:100590000F920FB60F9211242F933F934F938F9387
:1005A0009F9380918001882371F426B547B5942FDD
:1005B00080E030E0822B932B909382018093810125
:1005C0008EB58F7B11C080918001813079F426B582
:1005D00047B5942F80E030E0822B932B90938601D7
:1005E000809385018EB580648EBD0FC0809180019F
:1005F000823059F486B547B5342F20E090E0282B9F
:10060000392B3093840120938301809180018F5F87
:10061000809380019F918F914F913F912F910F90E7
:100620000FBE0F901F901895AF92BF92CF92DF929E
:10063000EF92FF920F931F930E9449000E949E0227
:100640000E9485038FE70E94AB031FBC82E48EBD2E
:100650001DBC1CBC0E94990189B7806289BF809132
:1006600080018330E1F7E0908301F0908401809174
:10067000810190918201E81AF90AC0908501D09019
:100680008601A0908101B090820180E690E00E94F6
:10069000660281E06BE00E948802CA18DB0884E6EB
:1006A00090E09C01C29EC001C39E900DD29E900D11
:1006B0001124B7010E94830ACB010E94100285E237
:1006C0000E94010282E060E00E9488028DE690E0D4
:1006D0000E94660200E010E0C801B7010E94150800
:1006E0002DEB37E346E855E30E94EB059B01AC0197
:1006F00060E070E080E89FE30E94E5060E94150438
:10070000DC01CB010E941002FFCF83B7806483BF5E
:1007100083B7886083BF83B78E7F83BF83B78260D0
:1007200083BF83B78B7F83BF83B78F7E83BF83B73E
:10073000806283BF89B78E7F89BF89B78D7F89BF6C
:1007400088B7816088BF88B7826088BF12BE1CBE30
:10075000089582BF08958CBF089589B7816089BFCD
:10076000089589B78E7F89BF089589B7826089BF50
:10077000089589B78D7F89BF089590938A018093EA
:1007800089010895909388018093870108951F92AD
:100790000F920FB60F9211242F933F934F935F93B5
:1007A0006F937F938F939F93AF93BF93EF93FF9339
:1007B000E0918901F0918A010995FF91EF91BF9134
:1007C000AF919F918F917F916F915F914F913F91E9
:1007D0002F910F900FBE0F901F9018951F920F92A0
:1007E0000FB60F9211242F933F934F935F936F9304
:1007F0007F938F939F93AF93BF93EF93FF93E0917A
:100800008701F09188010995FF91EF91BF91AF9118
:100810009F918F917F916F915F914F913F912F9118
:100820000F900FBE0F901F901895EF92FF920F93AD
:100830001F937B018C0120E030E040E05FE40E94E8
:10084000910788238CF0C801B70120E030E040E038
:100850005FE40E948D050E94C1079B01AC012050FE
:1008600030404040504806C0C801B7010E94C1074F
:100870009B01AC01B901CA011F910F91FF90EF904C
:100880000895A0E0B0E0E7E4F4E00C94970ADC01FE
:100890002B01FA019C91923008F439C1EB01888157
:1008A000823008F433C1943069F4843009F02FC1E8
:1008B00011969C9111978981981709F428C1A5E791
:1008C000B0E025C1843009F421C18230A9F492300E
:1008D00009F01DC19A01AD0188E0EA010990AE015D
:1008E000E90109929E018150C1F7E20189811196C7
:1008F0009C918923818308C1923009F407C1129623
:100900002D903C901397EB018A819B811496AD90BA
:10091000BD90CD90DC901797EC80FD800E811F81FB
:100920009101281B390BB90137FF04C066277727CF
:10093000621B730B603271050CF061C01216130656
:100940006CF537014801062E04C09694879477947D
:1009500067940A94D2F721E030E040E050E004C010
:10096000220F331F441F551F6A95D2F72150304084
:10097000404050402E213F21402351232115310575
:100980004105510521F021E030E040E050E07901DF
:100990008A01E628F728082919293CC0232BD1F120
:1009A000260E371E35014601062E04C09694879404
:1009B000779467940A94D2F721E030E040E050E069
:1009C00004C0220F331F441F551F6A95D2F72150D0
:1009D0003040404050402A213B214C215D212115CF
:1009E00031054105510521F021E030E040E050E0C3
:1009F00059016A01A628B728C828D9280BC0821532
:100A000093052CF01C01AA24BB24650103C0EE242D
:100A1000FF24870111969C91D20111968C91981711
:100A200009F445C0992339F0A80197012A193B0917
:100A30004C095D0906C0A60195012E193F09400B1E
:100A4000510B57FD08C011823382228224833583E3
:100A5000468357831DC081E08183338222828827A9
:100A60009927DC01821B930BA40BB50B8483958320
:100A7000A683B7830DC0220F331F441F551F248345
:100A80003583468357838281938101979383828341
:100A90002481358146815781DA01C9010197A10975
:100AA000B1098F5F9F4FAF4FBF4328F30BC09183B6
:100AB00033822282EA0CFB1C0C1D1D1DE482F58290
:100AC0000683178383E080832481358146815781A3
:100AD00057FF1AC0C901AA2797FDA095BA2F8170A8
:100AE0009070A070B0705695479537952795822BDA
:100AF000932BA42BB52B84839583A683B783828104
:100B00009381019693838283DF0101C0D201CD01DD
:100B1000CDB7DEB7E2E10C94B30AA0E2B0E0E3E9BE
:100B2000F5E00C94A30A69837A838B839C832D83DD
:100B30003E834F835887E9E0EE2EF12CEC0EFD1E2C
:100B4000CE010196B7010E94B2098E010F5E1F4FC0
:100B5000CE010596B8010E94B2098A8991E08927E1
:100B60008A8BC701B801AE01475E5F4F0E94410406
:100B70000E94DD08A096E6E00C94BF0AA0E2B0E077
:100B8000E4ECF5E00C94A30A69837A838B839C835D
:100B90002D833E834F835887F9E0EF2EF12CEC0E26
:100BA000FD1ECE010196B7010E94B2098E010F5EB3
:100BB0001F4FCE010596B8010E94B209C701B801C6
:100BC000AE01475E5F4F0E9441040E94DD08A0967F
:100BD000E6E00C94BF0AA0E2B0E0E1EFF5E00C948F
:100BE000970A69837A838B839C832D833E834F830B
:100BF0005887CE010196BE01675F7F4F0E94B20900
:100C0000CE010596BE016F5E7F4F0E94B2099985A5
:100C1000923088F089898230C8F0943019F482309B
:100C200051F404C0843029F4923081F485E790E0D7
:100C3000C6C0923049F420E09A858A89981321E051
:100C40002A87CE010996BBC0823049F420E09A85FC
:100C50008A89981321E02A8BCE014196B0C02D8459
:100C60003E844F8458886D887E888F88988CEE24C7
:100C7000FF248701AA24BB24650140E050E060E026
:100C800070E0E0E0F0E0C10181709070892BE9F044
:100C9000E60CF71C081D191D9A01AB012A0D3B1D1E
:100CA0004C1D5D1D80E090E0A0E0B0E0E614F7048C
:100CB0000805190520F481E090E0A0E0B0E0BA0159
:100CC000A901480F591F6A1F7B1FAA0CBB1CCC1C13
:100CD000DD1C97FE08C081E090E0A0E0B0E0A82A0B
:100CE000B92ACA2ADB2A3196E032F10549F0660CAE
:100CF000771C881C991C5694479437942794C3CF2B
:100D0000FA85EA892B893C898B859C85280F391FB8
:100D10002E5F3F4F17C0CA0181709070892B61F020
:100D200016950795F794E79480E090E0A0E0B0E88E
:100D3000E82AF92A0A2B1B2B769567955795479534
:100D40002F5F3F4F77FDE7CF0CC0440F551F661F45
:100D5000771F17FD4160EE0CFF1C001F111F215073
:100D60003040403090E0590790E0690790E47907FF
:100D700060F32B8F3C8FDB01CA018F779070A070DE
:100D8000B07080349105A105B10561F447FD0AC03A
:100D9000E114F1040105110529F0405C5F4F6F4F2C
:100DA0007F4F40781A8EFE1711F081E08A8F4D8FA9
:100DB0005E8F6F8F78A383E0898FCE0149960E9462
:100DC000DD08A096E2E10C94B30AA8E1B0E0EBEEF6
:100DD000F6E00C949F0A69837A838B839C832D832E
:100DE0003E834F835887B9E0EB2EF12CEC0EFD1EAD
:100DF000CE010196B7010E94B2098E010F5E1F4F0E
:100E0000CE010596B8010E94B2092985223008F466
:100E10007EC03989323010F4B8017CC08A859A8945
:100E200089278A87243011F0223031F4231709F002
:100E30006EC065E770E06EC0343039F41D861E86E2
:100E40001F86188A1C861B8604C0323021F484E079
:100E50008987B7015FC02B853C858B899C89281BBE
:100E6000390B3C872B87ED84FE840F851889AD886C
:100E7000BE88CF88D88CEA14FB040C051D0540F40D
:100E8000EE0CFF1C001F111F215030403C872B87A8
:100E900020E030E040E050E080E090E0A0E0B0E40E
:100EA00060E070E0EA14FB040C051D0540F0282BFF
:100EB000392B4A2B5B2BEA18FB080C091D09B69548
:100EC000A79597958795EE0CFF1C001F111F6F5F6C
:100ED0007F4F6F31710531F7DA01C9018F7790705B
:100EE000A070B07080349105A105B10561F427FDB3
:100EF0000AC0E114F1040105110529F0205C3F4FFF
:100F00004F4F5F4F20782D873E874F87588BBE010C
:100F1000675F7F4FCB010E94DD086896EAE00C9482
:100F2000BB0AA8E1B0E0E7E9F7E00C94A30A698303
:100F30007A838B839C832D833E834F83588789E0FC
:100F4000E82EF12CEC0EFD1ECE010196B7010E9499
:100F5000B2098E010F5E1F4FCE010596B8010E94A7
:100F6000B2098985823040F08989823028F0C70132
:100F7000B8010E942A0A01C08FEF6896E6E00C943F
:100F8000BF0AACE0B0E0E7ECF7E00C94A70A698395
:100F90007A838B839C83CE010196BE016B5F7F4F6A
:100FA0000E94B2098D81823061F1823050F184302B
:100FB00021F48E81882351F12EC02F81388537FD91
:100FC00020C06E812F3131051CF06623F9F023C05B
:100FD0008EE190E0821B930B29853A854B855C85D9
:100FE00004C056954795379527958A95D2F766237D
:100FF000B1F050954095309521953F4F4F4F5F4F41
:101000000EC020E030E040E050E009C02FEF3FEF9D
:101010004FEF5FE704C020E030E040E050E8B90166
:10102000CA012C96E2E00C94C30AA8E0B0E0EBE120
:10103000F8E00C949F0A7B018C0161157105810514
:10104000910519F482E0898360C083E089838EE191
:10105000C82ED12CDC82CB82ED82FE820F831887D2
:10106000C801B7010E948E08FC013197F7FF3BC011
:10107000222733272E1B3F0B57016801022E04C085
:10108000D694C794B794A7940A94D2F740E050E05E
:1010900060E070E081E090E0A0E0B0E004C0880F84
:1010A000991FAA1FBB1F2A95D2F70197A109B10961
:1010B0008E219F21A023B1230097A105B10521F026
:1010C00041E050E060E070E04A295B296C297D290D
:1010D0004D835E836F8378878EE190E08E1B9F0B3C
:1010E0009C838B8312C0309781F00E2E04C0EE0CCF
:1010F000FF1C001F111F0A94D2F7ED82FE820F839E
:101100001887CE1ADF0ADC82CB821A82CE010196C2
:101110000E94DD082896EAE00C94BB0AEF92FF9249
:101120000F931F937B018C0180E0E81680E0F806A6
:1011300081E0080780E0180788F48FEFE816F104D3
:101140000105110531F028F088E090E0A0E0B0E062
:1011500017C080E090E0A0E0B0E012C080E0E816A8
:1011600080E0F80680E0080781E0180728F088E1B1
:1011700090E0A0E0B0E004C080E190E0A0E0B0E04A
:1011800020E230E040E050E0281B390B4A0B5B0BBB
:1011900004C016950795F794E7948A95D2F7F7015E
:1011A000E358FF4F8081281B310941095109C901CA
:1011B0001F910F91FF90EF900895DF92EF92FF92B1
:1011C0000F931F93FC01E480F58006811781D18085
:1011D0008081823048F480E090E0A0E1B0E0E82A2D
:1011E000F92A0A2B1B2BA5C0843009F49FC082303A
:1011F00021F4EE24FF24870105C0E114F104010568
:10120000110519F4E0E0F0E096C0628173819FEF70
:10121000623879070CF05BC022E83FEF261B370BE2
:101220002A3131052CF020E030E040E050E02AC0C7
:10123000B801A701022E04C076956795579547958A
:101240000A94D2F781E090E0A0E0B0E004C0880FFB
:10125000991FAA1FBB1F2A95D2F70197A109B109AF
:101260008E219F21A023B1230097A105B10521F074
:1012700081E090E0A0E0B0E09A01AB01282B392B8F
:101280004A2B5B2BDA01C9018F779070A070B07088
:1012900080349105A105B10539F427FF09C0205C10
:1012A0003F4F4F4F5F4F04C0215C3F4F4F4F5F4F49
:1012B000E0E0F0E02030A0E03A07A0E04A07A0E438
:1012C0005A0710F0E1E0F0E079018A0127C06038A8
:1012D000710564F5FB01E158FF4FD801C7018F7715
:1012E0009070A070B07080349105A105B10539F4FB
:1012F000E7FE0DC080E490E0A0E0B0E004C08FE322
:1013000090E0A0E0B0E0E80EF91E0A1F1B1F17FFD7
:1013100005C016950795F794E794319687E01695E2
:101320000795F794E7948A95D1F705C0EE24FF243A
:101330008701EFEFF0E06E2F679566276795902F96
:101340009F77D794DD24D7948E2F8695492F462BEF
:10135000582F5D29B701CA011F910F91FF90EF909F
:10136000DF900895FC01DB01408151812281622FD1
:101370006F7770E0221F2227221F9381892F880F09
:10138000822B282F30E0991F9927991F11969C9343
:10139000119721153105A9F5411551056105710513
:1013A00011F482E037C082E89FEF13969C938E93EE
:1013B00012979A01AB0167E0220F331F441F551F9C
:1013C0006A95D1F783E08C930DC0220F331F441F21
:1013D000551F12968D919C911397019713969C938C
:1013E0008E931297203080E0380780E0480780E431
:1013F000580758F314962D933D934D935C9317978C
:1014000008952F3F310579F44115510561057105A6
:1014100019F484E08C93089564FF03C081E08C93F9
:1014200012C01C9210C02F57304013963C932E933D
:10143000129783E08C9387E0440F551F661F771F38
:101440008A95D1F7706414964D935D936D937C9358
:10145000179708951F93DC01FB019C91923008F4CB
:1014600047C08081823008F443C0943051F4119613
:101470001C91843099F58181682F70E0611B71099E
:101480003FC0843021F0923031F48230B9F1818153
:10149000882389F12DC011961C9111978230F1F0AB
:1014A00081811817D9F412962D913C91139782815E
:1014B00093818217930794F028173907BCF014968C
:1014C0008D919D910D90BC91A02D248135814681F7
:1014D0005781281739074A075B0718F4112341F091
:1014E0000AC082179307A407B50740F4112319F027
:1014F00061E070E005C06FEF7FEF02C060E070E078
:10150000CB011F910895AA1BBB1B51E107C0AA1F65
:10151000BB1FA617B70710F0A61BB70B881F991F94
:101520005A95A9F780959095BC01CD0108952F9209
:101530003F924F925F926F927F928F929F92AF9263
:10154000BF92CF92DF92EF92FF920F931F93CF93B0
:10155000DF93CDB7DEB7CA1BDB0B0FB6F894DEBF47
:101560000FBECDBF09942A88398848885F846E846D
:101570007D848C849B84AA84B984C884DF80EE80B7
:10158000FD800C811B81AA81B981CE0FD11D0FB6C0
:10159000F894DEBF0FBECDBFED010895F894FFCFE4
:1015A00044757479204379636C65203D004672650B
:1015B00071203D200000000000000000000001023A
:1015C00002030303030404040404040404050505DE
:1015D00005050505050505050505050505060606B8
:1015E000060606060606060606060606060606069B
:1015F0000606060606060606060606060607070788
:10160000070707070707070707070707070707076A
:10161000070707070707070707070707070707075A
:10162000070707070707070707070707070707074A
:101630000707070707070707070707070708080837
:10164000080808080808080808080808080808081A
:10165000080808080808080808080808080808080A
:1016600008080808080808080808080808080808FA
:1016700008080808080808080808080808080808EA
:1016800008080808080808080808080808080808DA
:1016900008080808080808080808080808080808CA
:1016A00008080808080808080808080808080808BA
:0E16B0000808080808080808080808080800C4
:00000001FF
