:100000000C942A000C9447000C9447000C94470071
:100010000C9447000C9447000C94EC100C9447008F
:100020000C9447000C9447000C9415100C94E80FA6
:100030000C9447000C9447000C9447000C94470024
:100040000C9447000C9447000C9447000C94470014
:100050000C94470011241FBECFE5D8E0DEBFCDBF12
:1000600011E0A0E6B0E0EAE5F3E202C005900D92EF
:10007000AE37B107D9F711E0AEE7B1E001C01D928C
:10008000AB38B107E1F70E9442100C94AB110C940D
:100090000000EF92FF920F931F937B018C0120E0F1
:1000A00030E040E05FE40E94F50388238CF0C80153
:1000B000B70120E030E040E05FE40E94C1010E940F
:1000C00055049B01AC01205030404040504806C0D0
:1000D000C801B7010E9455049B01AC01B901CA01D6
:1000E0001F910F91FF90EF900895A0E0B0E0EBE733
:1000F000F0E00C947411DC012B01FA019C91923018
:1001000008F439C1EB018881823008F433C194309E
:1001100069F4843009F02FC111969C91119789815F
:10012000981709F428C1A5E7B0E025C1843009F487
:1001300021C18230A9F4923009F01DC19A01AD01AC
:1001400088E0EA010990AE01E90109929E0181501F
:10015000C1F7E201898111969C918923818308C1AD
:10016000923009F407C112962D903C901397EB0141
:100170008A819B811496AD90BD90CD90DC901797AD
:10018000EC80FD800E811F819101281B390BB90184
:1001900037FF04C066277727621B730B6032710537
:1001A0000CF061C0121613066CF537014801062EDB
:1001B00004C096948794779467940A94D2F721E0C8
:1001C00030E040E050E004C0220F331F441F551FB1
:1001D0006A95D2F721503040404050402E213F21B7
:1001E00040235123211531054105510521F021E01E
:1001F00030E040E050E079018A01E628F72808293C
:1002000019293CC0232BD1F1260E371E350146019A
:10021000062E04C096948794779467940A94D2F734
:1002200021E030E040E050E004C0220F331F441FC3
:10023000551F6A95D2F721503040404050402A2146
:100240003B214C215D21211531054105510521F04E
:1002500021E030E040E050E059016A01A628B728CB
:10026000C828D9280BC0821593052CF01C01AA249C
:10027000BB24650103C0EE24FF24870111969C91E5
:10028000D20111968C91981709F445C0992339F041
:10029000A80197012A193B094C095D0906C0A6016E
:1002A00095012E193F09400B510B57FD08C01182D3
:1002B0003382228224833583468357831DC081E0A5
:1002C00081833382228288279927DC01821B930B4A
:1002D000A40BB50B84839583A683B7830DC0220F2F
:1002E000331F441F551F24833583468357838281E0
:1002F000938101979383828324813581468157813D
:10030000DA01C9010197A109B1098F5F9F4FAF4F72
:10031000BF4328F30BC0918333822282EA0CFB1C7B
:100320000C1D1D1DE482F5820683178383E0808304
:10033000248135814681578157FF1AC0C901AA27F8
:1003400097FDA095BA2F81709070A070B0705695EF
:10035000479537952795822B932BA42BB52B848318
:100360009583A683B7838281938101969383828349
:10037000DF0101C0D201CD01CDB7DEB7E2E10C94BF
:100380009011A0E2B0E0E7ECF1E00C9480116983F9
:100390007A838B839C832D833E834F835887E9E048
:1003A000EE2EF12CEC0EFD1ECE010196B7010E943F
:1003B00046068E010F5E1F4FCE010596B8010E94C2
:1003C00046068A8991E089278A8BC701B801AE0168
:1003D000475E5F4F0E9475000E947105A096E6E09F
:1003E0000C949C11A0E2B0E0E8EFF1E00C948011D5
:1003F00069837A838B839C832D833E834F835887C5
:10040000F9E0EF2EF12CEC0EFD1ECE010196B701A6
:100410000E9446068E010F5E1F4FCE010596B80161
:100420000E944606C701B801AE01475E5F4F0E94B9
:1004300075000E947105A096E6E00C949C11A0E264
:10044000B0E0E5E2F2E00C94741169837A838B8367
:100450009C832D833E834F835887CE010196BE0136
:10046000675F7F4F0E944606CE010596BE016F5E14
:100470007F4F0E9446069985923088F089898230A4
:10048000C8F0943019F4823051F404C0843029F457
:10049000923081F485E790E0C6C0923049F420E0C4
:1004A0009A858A89981321E02A87CE010996BBC0D4
:1004B000823049F420E09A858A89981321E02A8BBA
:1004C000CE014196B0C02D843E844F8458886D88FB
:1004D0007E888F88988CEE24FF248701AA24BB2471
:1004E000650140E050E060E070E0E0E0F0E0C10174
:1004F00081709070892BE9F0E60CF71C081D191D1E
:100500009A01AB012A0D3B1D4C1D5D1D80E090E062
:10051000A0E0B0E0E614F7040805190520F481E036
:1005200090E0A0E0B0E0BA01A901480F591F6A1F8E
:100530007B1FAA0CBB1CCC1CDD1C97FE08C081E0F5
:1005400090E0A0E0B0E0A82AB92ACA2ADB2A3196B6
:10055000E032F10549F0660C771C881C991C569412
:10056000479437942794C3CFFA85EA892B893C892D
:100570008B859C85280F391F2E5F3F4F17C0CA01FE
:1005800081709070892B61F016950795F794E79428
:1005900080E090E0A0E0B0E8E82AF92A0A2B1B2BC3
:1005A00076956795579547952F5F3F4F77FDE7CF36
:1005B0000CC0440F551F661F771F17FD4160EE0CDE
:1005C000FF1C001F111F21503040403090E05907A0
:1005D00090E0690790E4790760F32B8F3C8FDB0193
:1005E000CA018F779070A070B07080349105A1051A
:1005F000B10561F447FD0AC0E114F10401051105DC
:1006000029F0405C5F4F6F4F7F4F40781A8EFE1786
:1006100011F081E08A8F4D8F5E8F6F8F78A383E01A
:10062000898FCE0149960E947105A096E2E10C9453
:100630009011A8E1B0E0EFE1F3E00C947C11698344
:100640007A838B839C832D833E834F835887B9E0C5
:10065000EB2EF12CEC0EFD1ECE010196B7010E948F
:1006600046068E010F5E1F4FCE010596B8010E940F
:1006700046062985223008F47EC03989323010F4CC
:10068000B8017CC08A859A8989278A87243011F02D
:10069000223031F4231709F06EC065E770E06EC0B8
:1006A000343039F41D861E861F86188A1C861B86E8
:1006B00004C0323021F484E08987B7015FC02B8504
:1006C0003C858B899C89281B390B3C872B87ED84C3
:1006D000FE840F851889AD88BE88CF88D88CEA142F
:1006E000FB040C051D0540F4EE0CFF1C001F111F40
:1006F000215030403C872B8720E030E040E050E044
:1007000080E090E0A0E0B0E460E070E0EA14FB0478
:100710000C051D0540F0282B392B4A2B5B2BEA18C2
:10072000FB080C091D09B695A79597958795EE0CC2
:10073000FF1C001F111F6F5F7F4F6F31710531F775
:10074000DA01C9018F779070A070B0708034910584
:10075000A105B10561F427FD0AC0E114F10401050A
:10076000110529F0205C3F4F4F4F5F4F20782D87B8
:100770003E874F87588BBE01675F7F4FCB010E943A
:1007800071056896EAE00C949811A8E1B0E0EBECF2
:10079000F3E00C94801169837A838B839C832D838F
:1007A0003E834F83588789E0E82EF12CEC0EFD1E26
:1007B000CE010196B7010E9446068E010F5E1F4FC3
:1007C000CE010596B8010E9446068985823040F028
:1007D0008989823028F0C701B8010E94BE0601C095
:1007E0008FEF6896E6E00C949C11A8E1B0E0EBEF87
:1007F000F3E00C94801169837A838B839C832D832F
:100800003E834F83588789E0E82EF12CEC0EFD1EC5
:10081000CE010196B7010E9446068E010F5E1F4F62
:10082000CE010596B8010E9446068985823040F0C7
:100830008989823028F0C701B8010E94BE0601C034
:100840008FEF6896E6E00C949C11A8E1B0E0EBE233
:10085000F4E00C94801169837A838B839C832D83CD
:100860003E834F83588789E0E82EF12CEC0EFD1E65
:10087000CE010196B7010E9446068E010F5E1F4F02
:10088000CE010596B8010E9446068985823040F067
:100890008989823028F0C701B8010E94BE0601C0D4
:1008A00081E06896E6E00C949C11ACE0B0E0EBE5EA
:1008B000F4E00C94841169837A838B839C83CE014A
:1008C0000196BE016B5F7F4F0E9446068D8182308C
:1008D00061F1823050F1843021F48E81882351F10E
:1008E0002EC02F81388537FD20C06E812F31310514
:1008F0001CF06623F9F023C08EE190E0821B930B7D
:1009000029853A854B855C8504C056954795379572
:1009100027958A95D2F76623B1F05095409530958A
:1009200021953F4F4F4F5F4F0EC020E030E040E039
:1009300050E009C02FEF3FEF4FEF5FE704C020E02A
:1009400030E040E050E8B901CA012C96E2E00C9496
:10095000A011A8E0B0E0EFEAF4E00C947C117B0178
:100960008C01611571058105910519F482E0898377
:1009700060C083E089838EE1C82ED12CDC82CB82DB
:10098000ED82FE820F831887C801B7010E942205FD
:10099000FC013197F7FF3BC0222733272E1B3F0B6B
:1009A00057016801022E04C0D694C794B794A79447
:1009B0000A94D2F740E050E060E070E081E090E01F
:1009C000A0E0B0E004C0880F991FAA1FBB1F2A95A2
:1009D000D2F70197A109B1098E219F21A023B1234C
:1009E0000097A105B10521F041E050E060E070E022
:1009F0004A295B296C297D294D835E836F83788723
:100A00008EE190E08E1B9F0B9C838B8312C03097EE
:100A100081F00E2E04C0EE0CFF1C001F111F0A9463
:100A2000D2F7ED82FE820F831887CE1ADF0ADC82AE
:100A3000CB821A82CE0101960E9471052896EAE0C7
:100A40000C949811EF92FF920F931F937B018C01EE
:100A500080E0E81680E0F80681E0080780E01807EB
:100A600088F48FEFE816F1040105110531F028F044
:100A700088E090E0A0E0B0E017C080E090E0A0E067
:100A8000B0E012C080E0E81680E0F80680E00807D9
:100A900081E0180728F088E190E0A0E0B0E004C011
:100AA00080E190E0A0E0B0E020E230E040E050E003
:100AB000281B390B4A0B5B0B04C016950795F7945E
:100AC000E7948A95D2F7F701E358FF4F8081281BFE
:100AD000310941095109C9011F910F91FF90EF9010
:100AE0000895DF92EF92FF920F931F93FC01E48031
:100AF000F58006811781D1808081823048F480E0C2
:100B000090E0A0E1B0E0E82AF92A0A2B1B2BA5C04F
:100B1000843009F49FC0823021F4EE24FF24870141
:100B200005C0E114F1040105110519F4E0E0F0E05D
:100B300096C0628173819FEF623879070CF05BC0C9
:100B400022E83FEF261B370B2A3131052CF020E03D
:100B500030E040E050E02AC0B801A701022E04C0F6
:100B600076956795579547950A94D2F781E090E07E
:100B7000A0E0B0E004C0880F991FAA1FBB1F2A95F0
:100B8000D2F70197A109B1098E219F21A023B1239A
:100B90000097A105B10521F081E090E0A0E0B0E070
:100BA0009A01AB01282B392B4A2B5B2BDA01C901A7
:100BB0008F779070A070B07080349105A105B10559
:100BC00039F427FF09C0205C3F4F4F4F5F4F04C0EF
:100BD000215C3F4F4F4F5F4FE0E0F0E02030A0E05E
:100BE0003A07A0E04A07A0E45A0710F0E1E0F0E07D
:100BF00079018A0127C06038710564F5FB01E1586D
:100C0000FF4FD801C7018F779070A070B07080340B
:100C10009105A105B10539F4E7FE0DC080E490E02F
:100C2000A0E0B0E004C08FE390E0A0E0B0E0E80E08
:100C3000F91E0A1F1B1F17FF05C016950795F7948D
:100C4000E794319687E016950795F794E7948A958F
:100C5000D1F705C0EE24FF248701EFEFF0E06E2FFF
:100C6000679566276795902F9F77D794DD24D79453
:100C70008E2F8695492F462B582F5D29B701CA0123
:100C80001F910F91FF90EF90DF900895FC01DB0121
:100C9000408151812281622F6F7770E0221F2227CD
:100CA000221F9381892F880F822B282F30E0991FD4
:100CB0009927991F11969C93119721153105A9F534
:100CC000411551056105710511F482E037C082E8D4
:100CD0009FEF13969C938E9312979A01AB0167E056
:100CE000220F331F441F551F6A95D1F783E08C9361
:100CF0000DC0220F331F441F551F12968D919C91DA
:100D00001397019713969C938E931297203080E04F
:100D1000380780E0480780E4580758F314962D936D
:100D20003D934D935C93179708952F3F310579F4C8
:100D3000411551056105710519F484E08C930895FE
:100D400064FF03C081E08C9312C01C9210C02F5727
:100D5000304013963C932E93129783E08C9387E058
:100D6000440F551F661F771F8A95D1F7706414963C
:100D70004D935D936D937C93179708951F93DC01BA
:100D8000FB019C91923008F447C08081823008F4C6
:100D900043C0943051F411961C91843099F58181AF
:100DA000682F70E0611B71093FC0843021F09230E0
:100DB00031F48230B9F18181882389F12DC01196F7
:100DC0001C9111978230F1F081811817D9F4129695
:100DD0002D913C911397828193818217930794F010
:100DE00028173907BCF014968D919D910D90BC91F8
:100DF000A02D2481358146815781281739074A075C
:100E00005B0718F4112341F00AC082179307A40767
:100E1000B50740F4112319F061E070E005C06FEFF1
:100E20007FEF02C060E070E0CB011F910895DF9377
:100E3000CF93CDB7DEB7EAE3F0E08FEF8083E7E34F
:100E4000F0E08FEF8083E4E3F0E084E18083E1E38E
:100E5000F0E08FEB8083CF91DF910895DF93CF9304
:100E600000D0CDB7DEB789836A838981883060F589
:100E70008A818130A1F4ABE3B0E0EBE3F0E0808164
:100E8000482F8981282F30E081E090E0022E02C0B7
:100E9000880F991F0A94E2F7842B8C93B3C0ABE3BD
:100EA000B0E0EBE3F0E08081482F8981282F30E02B
:100EB00081E090E0022E02C0880F991F0A94E2F7A9
:100EC000809584238C939EC08981883090F189819C
:100ED000803178F58981885089838A818130A1F4B5
:100EE000A8E3B0E0E8E3F0E08081482F8981282F73
:100EF00030E081E090E0022E02C0880F991F0A9432
:100F0000E2F7842B8C937EC0A8E3B0E0E8E3F0E046
:100F10008081482F8981282F30E081E090E0022EE7
:100F200002C0880F991F0A94E2F7809584238C935E
:100F300069C08981803190F18981883178F5898112
:100F4000805189838A818130A1F4A5E3B0E0E5E393
:100F5000F0E08081482F8981282F30E081E090E007
:100F6000022E02C0880F991F0A94E2F7842B8C93FB
:100F700049C0A5E3B0E0E5E3F0E08081482F898136
:100F8000282F30E081E090E0022E02C0880F991FE8
:100F90000A94E2F7809584238C9334C08981883148
:100FA00088F18981803270F58981885189838A81AD
:100FB0008130A1F4A2E3B0E0E2E3F0E08081482FC9
:100FC0008981282F30E081E090E0022E02C0880F56
:100FD000991F0A94E2F7842B8C9314C0A2E3B0E02B
:100FE000E2E3F0E08081482F8981282F30E081E022
:100FF00090E0022E02C0880F991F0A94E2F78095B4
:1010000084238C930F900F90CF91DF910895DF93FD
:10101000CF9300D0CDB7DEB78A838A81883090F431
:10102000E9E3F0E08081282F30E08A81882F90E08A
:10103000A90102C0559547958A95E2F7CA018170CA
:10104000898350C08A818830C0F08A818031A8F4B9
:101050008A8188508A83E6E3F0E08081282F30E09F
:101060008A81882F90E0A90102C0559547958A95FD
:10107000E2F7CA018170898335C08A818031C0F06E
:101080008A818831A8F48A8180518A83E3E3F0E081
:101090008081282F30E08A81882F90E0A90102C04A
:1010A000559547958A95E2F7CA01817089831AC0E0
:1010B0008A818831B8F08A818032A0F48A8188518F
:1010C0008A83E0E3F0E08081282F30E08A81882F56
:1010D00090E0A90102C0559547958A95E2F7CA01AB
:1010E0008170898389810F900F90CF91DF9108954E
:1010F000DF93CF9300D0CDB7DEB789836A83898130
:10110000883060F58A818130A1F4AAE3B0E0EAE397
:10111000F0E08081482F8981282F30E081E090E045
:10112000022E02C0880F991F0A94E2F7842B8C9339
:10113000B3C0AAE3B0E0EAE3F0E08081482F898100
:10114000282F30E081E090E0022E02C0880F991F26
:101150000A94E2F7809584238C939EC0898188301D
:1011600090F18981803178F58981885089838A81DD
:101170008130A1F4A7E3B0E0E7E3F0E08081482FFD
:101180008981282F30E081E090E0022E02C0880F94
:10119000991F0A94E2F7842B8C937EC0A7E3B0E0FA
:1011A000E7E3F0E08081482F8981282F30E081E05B
:1011B00090E0022E02C0880F991F0A94E2F78095F2
:1011C00084238C9369C08981803190F18981883131
:1011D00078F58981805189838A818130A1F4A4E3E3
:1011E000B0E0E4E3F0E08081482F8981282F30E0EF
:1011F00081E090E0022E02C0880F991F0A94E2F766
:10120000842B8C9349C0A4E3B0E0E4E3F0E0808158
:10121000482F8981282F30E081E090E0022E02C023
:10122000880F991F0A94E2F7809584238C9334C029
:101230008981883188F18981803270F5898188516E
:1012400089838A818130A1F4A1E3B0E0E1E3F0E099
:101250008081482F8981282F30E081E090E0022EA4
:1012600002C0880F991F0A94E2F7842B8C9314C054
:10127000A1E3B0E0E1E3F0E08081482F8981282FED
:1012800030E081E090E0022E02C0880F991F0A949E
:10129000E2F7809584238C930F900F90CF91DF918C
:1012A0000895DF93CF930F92CDB7DEB789838981FD
:1012B0008830A0F4ABE3B0E0EBE3F0E08081482FAE
:1012C0008981282F30E081E090E0022E02C0880F53
:1012D000991F0A94E2F784278C9356C0898188303D
:1012E000D0F089818031B8F4898188508983A8E35E
:1012F000B0E0E8E3F0E08081482F8981282F30E0DA
:1013000081E090E0022E02C0880F991F0A94E2F754
:1013100084278C9339C089818031D0F089818831CC
:10132000B8F4898180518983A5E3B0E0E5E3F0E07A
:101330008081482F8981282F30E081E090E0022EC3
:1013400002C0880F991F0A94E2F784278C931CC06F
:1013500089818831C8F089818032B0F489818851CF
:101360008983A2E3B0E0E2E3F0E08081482F898145
:10137000282F30E081E090E0022E02C0880F991FF4
:101380000A94E2F784278C930F90CF91DF91089510
:10139000DF93CF93CDB7DEB7AFE5B0E0EFE5F0E098
:1013A000808180688C93CF91DF910895DF93CF93F4
:1013B000CDB7DEB7AFE5B0E0EFE5F0E080818F7745
:1013C0008C93CF91DF910895DF93CF93CDB7DEB7A4
:1013D000E8970FB6F894DEBF0FBECDBF80E090E077
:1013E000ACE0B2E48DAB9EABAFABB8AF6DA97EA95C
:1013F0008FA998AD20E030E04AEF54E40E941F022C
:10140000DC01CB0189AB9AABABABBCAB69A97AA9C8
:101410008BA99CA920E030E040E85FE30E9425040E
:1014200088232CF481E090E098AB8FA73FC069A996
:101430007AA98BA99CA920E03FEF4FE757E40E94CF
:10144000C50318164CF56DA97EA98FA998AD20E0AB
:1014500030E040E251E40E941F02DC01CB01BC01FC
:10146000CD010E944900DC01CB0198AB8FA70FC0D2
:1014700088EC90E09EA78DA78DA59EA50197F1F71A
:101480009EA78DA78FA598A9019798AB8FA78FA529
:1014900098A9009769F714C069A97AA98BA99CA992
:1014A0000E944900DC01CB0198AB8FA78FA598A9BA
:1014B0009CA78BA78BA59CA50197F1F79CA78BA751
:1014C00088E30E94CE0B80E090E0A0E8BFE38FA30A
:1014D00098A7A9A7BAA76FA178A589A59AA520E082
:1014E00030E04AEF54E40E941F02DC01CB018BA3E1
:1014F0009CA3ADA3BEA36BA17CA18DA19EA120E066
:1015000030E040E85FE30E94250488232CF481E06A
:1015100090E09AA389A33FC06BA17CA18DA19EA15D
:1015200020E03FEF4FE757E40E94C50318164CF543
:101530006FA178A589A59AA520E030E040E251E4AA
:101540000E941F02DC01CB01BC01CD010E944900B9
:10155000DC01CB019AA389A30FC088EC90E098A38B
:101560008F8F8F8D98A10197F1F798A38F8F89A105
:101570009AA101979AA389A389A19AA1009769F7D3
:1015800014C06BA17CA18DA19EA10E944900DC0129
:10159000CB019AA389A389A19AA19E8F8D8F8D8D4E
:1015A0009E8D0197F1F79E8F8D8F8CE00E94CE0B60
:1015B00080E090E0A0E8BFE3898F9A8FAB8FBC8F6B
:1015C000698D7A8D8B8D9C8D20E030E04AEF54E45C
:1015D0000E941F02DC01CB018D8B9E8BAF8BB88FDD
:1015E0006D897E898F89988D20E030E040E85FE347
:1015F0000E94250488232CF481E090E09C8B8B8B47
:101600003FC06D897E898F89988D20E03FEF4FE73D
:1016100057E40E94C50318164CF5698D7A8D8B8DA1
:101620009C8D20E030E040E251E40E941F02DC018A
:10163000CB01BC01CD010E944900DC01CB019C8B98
:101640008B8B0FC088EC90E09A8B898B89899A8963
:101650000197F1F79A8B898B8B899C8901979C8BD9
:101660008B8B8B899C89009769F714C06D897E8963
:101670008F89988D0E944900DC01CB019C8B8B8B5C
:101680008B899C89988B8F878F8598890197F1F733
:10169000988B8F870E94A90D86E00E94CE0B80E078
:1016A00090E0A0E0B0E48B879C87AD87BE876B8518
:1016B0007C858D859E8520E030E04AEF54E40E94D1
:1016C0001F02DC01CB018F839887A987BA876F81BE
:1016D000788589859A8520E030E040E85FE30E94C4
:1016E000250488232CF481E090E09E838D833FC005
:1016F0006F81788589859A8520E03FEF4FE757E431
:101700000E94C50318164CF56B857C858D859E85DA
:1017100020E030E040E251E40E941F02DC01CB01F6
:10172000BC01CD010E944900DC01CB019E838D8369
:101730000FC088EC90E09C838B838B819C81019708
:10174000F1F79C838B838D819E8101979E838D838E
:101750008D819E81009769F714C06F817885898596
:101760009A850E944900DC01CB019E838D838D8187
:101770009E819A83898389819A810197F1F79A835F
:1017800089838AE160E00E942E07E8960FB6F894FC
:10179000DEBF0FBECDBFCF91DF910895DF93CF9312
:1017A0000F92CDB7DEB7898388E160E00E942E07F3
:1017B00089E160E00E942E0789810E94F80B0F905A
:1017C000CF91DF910895DF93CF930F92CDB7DEB71E
:1017D000898388E161E00E942E0789E160E00E9430
:1017E0002E0789810E94F80B0F90CF91DF91089509
:1017F000DF93CF93CDB7DEB76E970FB6F894DEBF09
:101800000FBECDBF8E8F1D8E8E8D282F30E08D8D1B
:10181000882F90E0A90102C0559547958A95E2F777
:10182000CA01982F91708D8D8F5F8D8F80E0692F09
:101830000E942E078E8D282F30E08D8D882F90E00E
:10184000A90102C0559547958A95E2F7CA01982FDC
:1018500091708D8D8F5F8D8F81E0692F0E942E0793
:101860008E8D282F30E08D8D882F90E0A90102C049
:10187000559547958A95E2F7CA01982F91708D8DFD
:101880008F5F8D8F82E0692F0E942E078E8D282F0B
:1018900030E08D8D882F90E0A90102C055954795C5
:1018A0008A95E2F7CA01982F91708D8D8F5F8D8F89
:1018B00083E0692F0E942E078E8D282F30E08D8DBA
:1018C000882F90E0A90102C0559547958A95E2F7C7
:1018D000CA01982F91708D8D8F5F8D8F84E0692F55
:1018E0000E942E078E8D282F30E08D8D882F90E05E
:1018F000A90102C0559547958A95E2F7CA01982F2C
:1019000091708D8D8F5F8D8F85E0692F0E942E07DE
:101910008E8D282F30E08D8D882F90E0A90102C098
:10192000559547958A95E2F7CA01982F91708D8D4C
:101930008F5F8D8F86E0692F0E942E078E8D282F56
:1019400030E08D8D882F90E0A90102C05595479514
:101950008A95E2F7CA01982F91708D8D8F5F8D8FD8
:1019600087E0692F0E942E078AE161E00E942E071E
:1019700080E090E0A0E0B0E4898F9A8FAB8FBC8FBD
:10198000698D7A8D8B8D9C8D20E030E04AEF54E498
:101990000E941F02DC01CB018D8B9E8BAF8BB88F19
:1019A0006D897E898F89988D20E030E040E85FE383
:1019B0000E94250488232CF481E090E09C8B8B8B83
:1019C0003FC06D897E898F89988D20E03FEF4FE77A
:1019D00057E40E94C50318164CF5698D7A8D8B8DDE
:1019E0009C8D20E030E040E251E40E941F02DC01C7
:1019F000CB01BC01CD010E944900DC01CB019C8BD5
:101A00008B8B0FC088EC90E09A8B898B89899A899F
:101A10000197F1F79A8B898B8B899C8901979C8B15
:101A20008B8B8B899C89009769F714C06D897E899F
:101A30008F89988D0E944900DC01CB019C8B8B8B98
:101A40008B899C89988B8F878F8598890197F1F76F
:101A5000988B8F878AE160E00E942E0780E090E0FB
:101A6000A0E0B0E48B879C87AD87BE876B857C85C3
:101A70008D859E8520E030E04AEF54E40E941F02ED
:101A8000DC01CB018F839887A987BA876F8178851E
:101A900089859A8520E030E040E85FE30E942504D4
:101AA00088232CF481E090E09E838D833FC06F817A
:101AB000788589859A8520E03FEF4FE757E40E94BB
:101AC000C50318164CF56B857C858D859E8520E0B9
:101AD00030E040E251E40E941F02DC01CB01BC0176
:101AE000CD010E944900DC01CB019E838D830FC094
:101AF00088EC90E09C838B838B819C810197F1F72C
:101B00009C838B838D819E8101979E838D838D81A4
:101B10009E81009769F714C06F81788589859A85C1
:101B20000E944900DC01CB019E838D838D819E81C3
:101B30009A83898389819A810197F1F79A838983AE
:101B40006E960FB6F894DEBF0FBECDBFCF91DF917A
:101B50000895DF93CF93CDB7DEB72E970FB6F894E5
:101B6000DEBF0FBECDBF81E00E94CE0B80E090E0D3
:101B7000A0E0B0E48B879C87AD87BE876B857C85B2
:101B80008D859E8520E030E04AEF54E40E941F02DC
:101B9000DC01CB018F839887A987BA876F8178850D
:101BA00089859A8520E030E040E85FE30E942504C3
:101BB00088232CF481E090E09E838D833FC06F8169
:101BC000788589859A8520E03FEF4FE757E40E94AA
:101BD000C50318164CF56B857C858D859E8520E0A8
:101BE00030E040E251E40E941F02DC01CB01BC0165
:101BF000CD010E944900DC01CB019E838D830FC083
:101C000088EC90E09C838B838B819C810197F1F71A
:101C10009C838B838D819E8101979E838D838D8193
:101C20009E81009769F714C06F81788589859A85B0
:101C30000E944900DC01CB019E838D838D819E81B2
:101C40009A83898389819A810197F1F79A8389839D
:101C50002E960FB6F894DEBF0FBECDBFCF91DF91A9
:101C60000895DF93CF9300D0CDB7DEB789836A8321
:101C70008981813029F48A8180580E94CE0B07C067
:101C80008981823021F48A8180540E94CE0B0F908A
:101C90000F90CF91DF910895DF93CF9300D00F92F3
:101CA000CDB7DEB79B838A8319820EC08981282F26
:101CB00030E08A819B81FC01E20FF31F80810E944A
:101CC000E30B89818F5F89838981282F30E08A81A6
:101CD0009B81FC01E20FF31F8081882339F70F906D
:101CE0000F900F90CF91DF910895DF93CF93CDB7F1
:101CF000DEB727970FB6F894DEBF0FBECDBF9F8328
:101D00008E831D828E819F81009721F480E30E9443
:101D1000E30B53C01C828E819F819A8389830DC0FF
:101D20008C818F5F8C8389819A812AE030E0B901B0
:101D30000E946011CB019A83898389819A810097DF
:101D400079F78E819F819A8389831B8232C09C811F
:101D50008B81292F281B822F982F91508AE0692F81
:101D60000E94E70E9C0189819A81B9010E9460114D
:101D7000CB019A8389838981805D0E94E30B8E81E8
:101D80009F819A8389839C818B81292F281B822F95
:101D9000982F91508AE0692F0E94E70E9C0189815B
:101DA0009A81B9010E9460119A8389838B818F5F28
:101DB0008B839B818C81981750F28D8127960FB66B
:101DC000F894DEBF0FBECDBFCF91DF910895DF93B2
:101DD000CF9300D000D00F92CDB7DEB78C836D8348
:101DE00081E090E09A8389831B8212C08C81282F26
:101DF00030E089819A81AC01429FC001439F900DE0
:101E0000529F900D11249A8389838B818F5F8B83DE
:101E10009B818D81981750F389819A810F900F9043
:101E20000F900F900F90CF91DF910895DF93CF9394
:101E3000CDB7DEB7A3E5B0E0E3E5F0E080818064F4
:101E40008C93A3E5B0E0E3E5F0E0808188608C93BB
:101E5000A3E5B0E0E3E5F0E080818E7F8C93A3E51D
:101E6000B0E0E3E5F0E0808182608C93A3E5B0E030
:101E7000E3E5F0E080818B7F8C93A3E5B0E0E3E5C0
:101E8000F0E080818F7E8C93A3E5B0E0E3E5F0E0A5
:101E9000808180628C93A9E5B0E0E9E5F0E0808183
:101EA0008E7F8C93A9E5B0E0E9E5F0E080818D7F3D
:101EB0008C93A8E5B0E0E8E5F0E0808181608C9348
:101EC000A8E5B0E0E8E5F0E0808182608C93E2E58F
:101ED000F0E01082ECE5F0E01082CF91DF91089500
:101EE000DF93CF930F92CDB7DEB78983E2E5F0E0C1
:101EF000898180830F90CF91DF910895DF93CF93F5
:101F00000F92CDB7DEB78983ECE5F0E0898180835D
:101F10000F90CF91DF910895DF93CF93CDB7DEB7C8
:101F2000A9E5B0E0E9E5F0E0808181608C93CF9194
:101F3000DF910895DF93CF93CDB7DEB7A9E5B0E089
:101F4000E9E5F0E080818E7F8C93CF91DF91089559
:101F5000DF93CF93CDB7DEB7A9E5B0E0E9E5F0E0D8
:101F6000808182608C93CF91DF910895DF93CF932E
:101F7000CDB7DEB7A9E5B0E0E9E5F0E080818D7F7F
:101F80008C93CF91DF910895DF93CF9300D0CDB79D
:101F9000DEB79A83898389819A81909384018093A3
:101FA00083010F900F90CF91DF910895DF93CF932E
:101FB00000D0CDB7DEB79A83898389819A819093C7
:101FC0008201809381010F900F90CF91DF9108954E
:101FD0001F920F920FB60F9211242F933F934F939E
:101FE0005F936F937F938F939F93AF93BF93EF9381
:101FF000FF93DF93CF93CDB7DEB7E0918301F091EC
:1020000084010995CF91DF91FF91EF91BF91AF913D
:102010009F918F917F916F915F914F913F912F9100
:102020000F900FBE0F901F9018951F920F920FB632
:102030000F9211242F933F934F935F936F937F934E
:102040008F939F93AF93BF93EF93FF93DF93CF93C0
:10205000CDB7DEB7E0918101F09182010995CF9172
:10206000DF91FF91EF91BF91AF919F918F917F9100
:102070006F915F914F913F912F910F900FBE0F90F5
:102080001F901895DF93CF93CDB7DEB72C970FB67F
:10209000F894DEBF0FBECDBF8DEB97E3A6E8B5E3A6
:1020A00089879A87AB87BC871A8219820E94170793
:1020B0000E94E4090E94160F8FE70E947E0FEFE452
:1020C000F0E01082EEE4F0E082E48083EDE4F0E002
:1020D0001082ECE4F0E010820E94C809A9E5B0E0AB
:1020E000E9E5F0E0808180628C938091800183300B
:1020F000E1F72091890130918A01809185019091C9
:102100008601A901481B590BCA019E838D8320912A
:102110008701309188018091890190918A01A901FC
:10212000481B590BCA019C838B832B813C8184E61D
:1021300090E0AC01249FC001259F900D349F900D2D
:1021400011242D813E81B9010E946011CB01988735
:102150008F838D819E81CC01A0E0B0E0BC01CD01D8
:102160000E94A904DC01CB01BC01CD0129853A857F
:102170004B855C850E941F02DC01CB019C01AD01F7
:1021800060E070E080E89FE30E941903DC01CB016E
:10219000BC01CD010E944900DC01CB019A838983F7
:1021A00080E690E00E944C0E81E06BE00E94310ED0
:1021B0008F8198850E94750E85E20E94E30B82E074
:1021C00060E00E94310E8DE690E00E944C0E898105
:1021D0009A810E94750EFFCF1F920F920FB60F9239
:1021E00011242F933F938F939F93AF93BF93EF93BC
:1021F000FF93DF93CF93CDB7DEB780918001882323
:10220000B1F4E6E4F0E08081282F30E0E7E4F0E08C
:102210008081882F90E0982F8827822B932B909392
:1022200086018093850181E0809380013AC080918E
:1022300080018130E9F4AEE4B0E0EEE4F0E08081CA
:102240008F7B8C93E6E4F0E08081282F30E0E7E498
:10225000F0E08081882F90E0982F8827822B932BA5
:1022600090938A018093890182E08093800119C054
:10227000809180018230A9F4E6E4F0E08081282F8B
:1022800030E0E7E4F0E08081882F90E0982F882705
:10229000822B932B909388018093870183E0809316
:1022A0008001CF91DF91FF91EF91BF91AF919F910D
:1022B0008F913F912F910F900FBE0F901F90189507
:1022C000AA1BBB1B51E107C0AA1FBB1FA617B7075C
:1022D00010F0A61BB70B881F991F5A95A9F7809578
:1022E0009095BC01CD0108952F923F924F925F923D
:1022F0006F927F928F929F92AF92BF92CF92DF9216
:10230000EF92FF920F931F93CF93DF93CDB7DEB77A
:10231000CA1BDB0B0FB6F894DEBF0FBECDBF09940E
:102320002A88398848885F846E847D848C849B8465
:10233000AA84B984C884DF80EE80FD800C811B8173
:10234000AA81B981CE0FD11D0FB6F894DEBF0FBEA2
:0A235000CDBFED010895F894FFCF12
:10235A0044757479204379636C65203D0046726543
:10236A0071203D2000000000000000000000010272
:10237A000203030303040404040404040405050516
:10238A0005050505050505050505050505060606F0
:10239A0006060606060606060606060606060606D3
:1023AA0006060606060606060606060606070707C0
:1023BA0007070707070707070707070707070707A3
:1023CA000707070707070707070707070707070793
:1023DA000707070707070707070707070707070783
:1023EA000707070707070707070707070708080870
:1023FA000808080808080808080808080808080853
:10240A000808080808080808080808080808080842
:10241A000808080808080808080808080808080832
:10242A000808080808080808080808080808080822
:10243A000808080808080808080808080808080812
:10244A000808080808080808080808080808080802
:10245A0008080808080808080808080808080808F2
:0E246A000808080808080808080808080800FC
:00000001FF
