S01700004E54495F4156525F447269766572732E737265639C
S11300000C942A000C943F000C943F000C943F0085
S11300100C943F000C943F000C943F000C943F0060
S11300200C943F000C943F000C943F000C943F0050
S11300300C943F000C943F000C943F000C943F0040
S11300400C943F000C943F000C943F000C943F0030
S11300500C943F0011241FBECFE5D8E0DEBFCDBF16
S113006010E0A0E6B0E0E2EEF7E002C005900D92E9
S1130070A238B107D9F70E9478020C94EF030C94CC
S11300800000CF93C0E00EC0EC2FF0E0EE0FFF1F96
S1130090EE0FFF1FEF59FF4F40E0628181810E9404
S11300A0D802CF5F80916000C81770F3CF91089594
S11300B0CF93C0E01AC02C2F30E0F901EE0FFF1FE0
S11300C0EE0FFF1FEF59FF4F908198130DC0220FC1
S11300D0331F220F331FF901EF59FF4F62818181D2
S11300E00E94B203982F06C0CF5F90916000C91799
S11300F010F390E0913059F4EC2FF0E0EE0FFF1F75
S1130100EE0FFF1FEF59FF4F8381813079F091117A
S11301100FC0EC2FF0E0EE0FFF1FEE0FFF1FEF59A3
S1130120FF4F8381882331F080E005C081E003C064
S113013080E001C081E0913059F4EC2FF0E0EE0F43
S1130140FF1FEE0FFF1FEF59FF4F2381222371F092
S113015091110FC0EC2FF0E0EE0FFF1FEE0FFF1F09
S1130160EF59FF4F9381913021F402C080E001C028
S113017080E0CF910895CF93C0E00EC0EC2FF0E063
S1130180EE0FFF1FEE0FFF1FEE58FF4F41E062819D
S113019081810E94D802CF5F80917100C81770F3EB
S11301A0CF910895CF93DF93D82FC0E032C08C2F26
S11301B090E0FC01EE0FFF1FEE0FFF1FEE58FF4F04
S11301C020812D1325C0FC01EE0FFF1FEE0FFF1F32
S11301D0EE58FF4F2381213069F4880F991F880F4F
S11301E0991FFC01EE58FF4F41E0628181810E941A
S11301F045030EC021110CC0880F991F880F991F49
S1130200FC01EE58FF4F40E0628181810E9445036A
S1130210CF5F80917100C81750F2DF91CF9108959C
S1130220CF93DF93D82FC0E032C08C2F90E0FC0135
S1130230EE0FFF1FEE0FFF1FEE58FF4F20812D130F
S113024025C0FC01EE0FFF1FEE0FFF1FEE58FF4FFE
S11302502381213069F4880F991F880F991FFC01AD
S1130260EE58FF4F40E0628181810E9445030EC039
S113027021110CC0880F991F880F991FFC01EE589B
S1130280FF4F41E0628181810E944503CF5F8091ED
S11302907100C81750F2DF91CF91089541E063E0F7
S11302A080E00E94D80241E062E080E00E94D8022F
S11302B041E065E081E00E94D80241E066E081E02F
S11302C00E94D80241E060E081E00E94D80241E04F
S11302D061E081E00E94D80241E062E081E00E9496
S11302E0D80241E064E081E00E94D8020895CF93EF
S11302F0DF93C82FD62F80FF06C041E060E081E085
S11303000E94450305C040E060E081E00E9445038F
S1130310C1FF06C041E061E081E00E94450305C0E1
S113032040E061E081E00E944503C2FF06C041E075
S113033062E081E00E94450305C040E062E081E0A4
S11303400E944503C3FF06C041E064E081E00E94CF
S1130350450305C040E064E081E00E944503D111FB
S113036015C040E063E080E00E94450341E062E0A4
S113037080E00E94450341E065E081E00E9445037E
S113038041E066E081E00E94450344C0D130A9F415
S113039040E062E080E00E94450341E063E080E0E9
S11303A00E94450341E065E081E00E94450341E08D
S11303B066E081E00E9445032DC0D230A9F440E0FC
S11303C065E081E00E94450341E063E080E00E9433
S11303D0450341E062E080E00E94450341E066E0BD
S11303E081E00E94450316C0D330A1F440E066E0EA
S11303F081E00E94450341E063E080E00E94450300
S113040041E062E080E00E94450341E065E081E074
S11304100E944503DF91CF910895CF93DF9300D0DD
S113042000D0CDB7DEB7FC0119821A821B821C8270
S113043040E02DC09F01ADECBCEC0E94E00396951A
S1130440879596958795969587959C01220F331FDE
S1130450880F991F880F991F880F991F820F931F68
S11304609F01281B390BA1E0B0E0AC0FBD1FA40F06
S1130470B11D2C939F01ADECBCEC0E94E003FC0188
S1130480F695E795F695E795F695E7954F5F443031
S113049088F260E089810E9477018FE19EE40197F0
S11304A0F1F700C0000061E08A810E9477018FE1CA
S11304B09EE40197F1F700C0000062E08B810E9486
S11304C077018FE19EE40197F1F700C0000063E03B
S11304D08C810E9477018FE19EE40197F1F700C0BF
S11304E000000F900F900F900F90DF91CF9108951F
S11304F00E944E010E9441000E94BB0000E010E0F7
S1130500D0E0D11130C082E00E941001C8010E94E5
S11305100D0280E00E945800813041F4065F1F4FB5
S113052080E00E9458008130D9F32EC081E00E94FF
S11305305800813059F40115110541F00A50110990
S113054081E00E9458008130D9F31EC083E00E94EC
S113055058008130C9F483E00E9458008130D9F3F7
S113056000E010E011C0D13079F482E00E94D200A2
S1130570C2E304C0C8010E940D02C150C111FACFE8
S11305800150110909F4D0E082E00E945800813042
S113059009F0B7CFDD2319F0D13021F402C0D1E046
S11305A001C0D0E082E00E9458008130D9F3A9CF85
S11305B0813001F130F08230B1F1833009F44CC064
S11305C00895413059F42AB381E090E002C0880FC5
S11305D0991F6A95E2F7822B8ABB08952AB381E0BA
S11305E090E002C0880F991F6A95E2F780958223F4
S11305F08ABB0895413059F427B381E090E002C0EA
S1130600880F991F6A95E2F7822B87BB089527B359
S113061081E090E002C0880F991F6A95E2F7809507
S1130620822387BB0895413059F424B381E090E0DC
S113063002C0880F991F6A95E2F7822B84BB089544
S113064024B381E090E002C0880F991F6A95E2F715
S11306508095822384BB0895413059F421B381E00D
S113066090E002C0880F991F6A95E2F7822B81BB44
S1130670089521B381E090E002C0880F991F6A9524
S1130680E2F78095822381BB0895813001F130F037
S11306908230B1F1833009F44CC0089541110CC08B
S11306A02BB381E090E002C0880F991F6A95E2F7AE
S11306B0809582238BBB08952BB381E090E002C028
S11306C0880F991F6A95E2F7822B8BBB089541111D
S11306D00CC028B381E090E002C0880F991F6A958E
S11306E0E2F78095822388BB089528B381E090E0E7
S11306F002C0880F991F6A95E2F7822B88BB089580
S113070041110CC025B381E090E002C0880F991F0D
S11307106A95E2F78095822385BB089525B381E02D
S113072090E002C0880F991F6A95E2F7822B85BB7F
S1130730089541110CC022B381E090E002C0880FFB
S1130740991F6A95E2F78095822382BB089522B3AC
S113075081E090E002C0880F991F6A95E2F7822B2E
S113076082BB0895813079F028F08230A9F083307B
S1130770E1F024C089B390E002C0959587956A950D
S1130780E2F78170089586B390E002C0959587954D
S11307906A95E2F78170089583B390E002C095955D
S11307A087956A95E2F78170089580B390E002C05E
S11307B0959587956A95E2F78170089580E008958C
S11307C0A29FB001B39FC001A39F700D811D11248E
S11307D0911DB29F700D811D1124911D0895F894EF
S10507E0FFCF45
S11307E204000303000103050002030600030307D8
S11307F200040000040101000601020107010300D4
S10508020501EA
S9030000FC
