:100000000C942A000C94CE010C9447000C944700E9
:100010000C9447000C9447000C9447000C94470044
:100020000C9447000C9447000C9447000C94230454
:100030000C9447000C9447000C9447000C94470024
:100040000C9447000C9447000C9447000C94470014
:100050000C94470011241FBECFE5D8E0DEBFCDBF12
:1000600011E0A0E6B0E0EAE9F4E102C005900D92EB
:10007000A238B107D9F711E0A2E8B1E001C01D92A2
:10008000A539B107E1F70E94C4020C944B0A0C9405
:1000900000008FEF8ABB87BB84E184BB8BEF81BB01
:1000A0000895382F8830C8F4613059F42BB381E0BB
:1000B00090E002C0880F991F3A95E2F7282B2BBBDE
:1000C00008952BB381E090E002C0880F991F3A9504
:1000D000E2F7809582238BBB0895482F4850483023
:1000E000C8F4613059F428B381E090E002C0880F71
:1000F000991F4A95E2F7282B28BB089528B381E081
:1001000090E002C0880F991F4A95E2F780958223FC
:1001100088BB0895482F40514830C8F4613059F4E5
:1001200025B381E090E002C0880F991F4A95E2F75D
:10013000282B25BB089525B381E090E002C0880FED
:10014000991F4A95E2F78095822385BB089538511F
:100150003830C0F4613059F422B381E090E002C03D
:10016000880F991F3A95E2F7282B22BB089522B3F6
:1001700081E090E002C0880F991F3A95E2F78095E0
:10018000822382BB0895282F883040F489B390E001
:1001900002C0959587952A95E2F711C0382F3850FF
:1001A000383010F486B305C0382F3051383048F459
:1001B00083B390E002C0959587953A95E2F78170F8
:1001C00008952851283010F080E0089580B390E021
:1001D00002C0959587952A95E2F781700895382F8A
:1001E0008830C8F4613059F42AB381E090E002C04D
:1001F000880F991F3A95E2F7282B2ABB08952AB356
:1002000081E090E002C0880F991F3A95E2F780954F
:1002100082238ABB0895482F48504830C8F4613083
:1002200059F427B381E090E002C0880F991F4A95E6
:10023000E2F7282B27BB089527B381E090E002C0A6
:10024000880F991F4A95E2F78095822387BB08950E
:10025000482F40514830C8F4613059F424B381E04C
:1002600090E002C0880F991F4A95E2F7282B24BB23
:10027000089524B381E090E002C0880F991F4A9549
:10028000E2F78095822384BB089538513830C0F45A
:10029000613059F421B381E090E002C0880F991FCA
:1002A0003A95E2F7282B21BB089521B381E090E035
:1002B00002C0880F991F3A95E2F78095822381BB8F
:1002C0000895382F883058F42BB381E090E002C0B5
:1002D000880F991F3A95E2F728272BBB0895482FDE
:1002E0004850483058F428B381E090E002C0880FAD
:1002F000991F4A95E2F7282728BB0895482F4051B7
:10030000483058F425B381E090E002C0880F991F6F
:100310004A95E2F7282725BB08953851383050F424
:1003200022B381E090E002C0880F991F3A95E2F76E
:10033000282722BB08958BB78F7B8BBF8AB7806439
:100340008ABF08958BB780648BBF08958BB78F7B6E
:100350008BBF08959093930180939201089581300B
:1003600031F485B7816085BF85B78D7F0CC087303C
:1003700019F485B7816004C0843039F485B78E7F65
:1003800085BF85B7826085BF08958A3031F485B70F
:100390008E7F85BF85B78D7F85BF08951F920F9291
:1003A0000FB60F9211242F933F934F935F936F9348
:1003B0007F938F939F93AF93BF93EF93FF93E091BE
:1003C0009201F09193010995FF91EF91BF91AF9147
:1003D0009F918F917F916F915F914F913F912F915D
:1003E0000F900FBE0F901F9018958FB780688FBF2A
:1003F00008958FB78F778FBF08950F931F93682F3E
:10040000082F10E0617080E00E945100159507955B
:10041000602F617081E00E94510015950795602F53
:10042000617082E00E94510015950795602F617000
:1004300083E00E94510015950795602F617084E05C
:100440000E94510015950795602F617085E00E940C
:10045000510015950795602F617086E00E9451004C
:1004600015950795017087E0602F0E9451008CE17F
:1004700061E00E94510000E41FE1C8010197F1F71B
:100480008CE160E00E945100C8010197F1F71F91D3
:100490000F9108951F93182F88E161E00E94510089
:1004A00089E160E00E945100812F0E94FD011F91AF
:1004B00008951F93CF93DF93EC0110E003C00E94D7
:1004C0004A021F5FFE01E10FF11D80818823B9F709
:1004D000DF91CF911F9108951F93182F88E160E05D
:1004E0000E94510089E160E00E945100812F0E942A
:1004F000FD011F910895813029F4862F80580E94B4
:100500006C020895823021F4862F80540E946C0280
:10051000089581E00E946C0280E49FE10197F1F769
:1005200008950F931F938EE591E020E931E0F901E2
:100530003197F1F70197D9F788E30E946C0200EA3E
:100540001FE0C8010197F1F78CE00E946C02C8011E
:100550000197F1F70E94890286E00E946C0280E414
:100560009FE10197F1F78CE160E00E9451001F913B
:100570000F9108958091820190918301019690934B
:1005800083018093820108956F927F928F929F9250
:10059000AF92BF92CF92DF92EF92FF920F931F9391
:1005A0008AEB92E00E941E0484E693E00E94AA0176
:1005B0000E9449000E949B010E9491020E94F30345
:1005C00087E00E94AF010E94FF030E94A2010E94E7
:1005D000F5018FE185BD8FE783BDA0908601B090C6
:1005E0008701C0908801D0908901C601B501209192
:1005F0008A0130918B0140918C0150918D010E94B4
:10060000CC053B014C0160E070E080E89FE3A40171
:1006100093010E94F3060E94FD077B018C0180E894
:100620000E946C0280E690E00E945902C70164E6D5
:1006300070E00E94ED09862F805D0E944A02C7018A
:100640006AE070E00E94ED09CB016AE070E00E9470
:10065000ED09805D0E944A02C7016AE070E00E94D5
:10066000ED09182F105D812F0E944A0288E690E064
:100670000E94590282E060E00E947B028CE690E0DA
:100680000E945902C601B50120E030E048EC52E476
:100690000E94F905A40193010E94F3060E94FD0740
:1006A000DC01CB016AE070E00E94ED09862F805DDD
:1006B0000E944A02812F0E944A0280E20E944A025E
:1006C00085E20E944A0289CF809194018823C9F46F
:1006D0000E94FB0312BE109283011092820187E0F8
:1006E00090E0909385018093840184E00E94AF01A3
:1006F000109275001092740085E00E94FB0381E067
:1007000036C0809194018130A9F580E00E94FB03FE
:10071000609182017091830122B7762F6627620F64
:10072000711D882777FD8095982F0E949F072DEBDC
:1007300037E346E059E30E94F90560938601709320
:100740008701809388019093890112BE10928301E2
:100750001092820184E090E090938501809384015F
:1007600087E00E94AF0185E00E94FB0382E0809356
:1007700094010895809194018230A1F580E00E9457
:10078000FB03609182017091830122B7762F662767
:10079000620F711D882777FD8095982F0E949F0713
:1007A0002DEB37E346E059E30E94F90560938A0197
:1007B00070938B0180938C0190938D0112BE1092E7
:1007C00083011092820187E090E0909385018093ED
:1007D000840184E00E94AF0185E00E94FB0381E078
:1007E00080939401089585E083BF12BE08958CBF65
:1007F000089582BF089583BF089582B7089589B789
:10080000816089BF089589B7826089BF089589B7DB
:100810008E7F89BF089589B78E7F89BF089588B775
:10082000816088BF089588B78170089588B7826015
:1008300088BF089588B786958170089590938F0139
:1008400080938E0108951F920F920FB60F9211247C
:100850002F933F934F935F936F937F938F939F93C8
:10086000AF93BF93EF93FF93E0918E01F0918F01CF
:100870000995FF91EF91BF91AF919F918F917F91DA
:100880006F915F914F913F912F910F900FBE0F90FD
:100890001F90189590939101809390010895A0E086
:1008A000B0E0E5E5F4E00C94140ADC012B01FA0158
:1008B0009C91923008F439C1EB018881823008F4B0
:1008C00033C1943069F4843009F02FC111969C91A2
:1008D00011978981981709F428C1AAE7B0E025C1CA
:1008E000843009F421C18230A9F4923009F01DC18D
:1008F0009A01AD0188E0EA010990AE01E90109928F
:100900009E018150C1F7E201898111969C91892352
:10091000818308C1923009F407C112962D903C9052
:100920001397EB018A819B811496AD90BD90CD9079
:10093000DC901797EC80FD800E811F819101281BB0
:10094000390BB90137FF04C066277727621B730B89
:10095000603271050CF061C0121613066CF5370198
:100960004801062E04C096948794779467940A945D
:10097000D2F721E030E040E050E004C0220F331F06
:10098000441F551F6A95D2F72150304040405040D7
:100990002E213F21402351232115310541055105C9
:1009A00021F021E030E040E050E079018A01E628C2
:1009B000F728082919293CC0232BD1F1260E371E10
:1009C00035014601062E04C0969487947794679467
:1009D0000A94D2F721E030E040E050E004C0220F5A
:1009E000331F441F551F6A95D2F7215030404040B5
:1009F00050402A213B214C215D2121153105410523
:100A0000510521F021E030E040E050E059016A0159
:100A1000A628B728C828D9280BC0821593052CF022
:100A20001C01AA24BB24650103C0EE24FF24870116
:100A300011969C91D20111968C91981709F445C09A
:100A4000992339F0A80197012A193B094C095D093E
:100A500006C0A60195012E193F09400B510B57FD09
:100A600008C01182338222822483358346835783D0
:100A70001DC081E081833382228288279927DC018F
:100A8000821B930BA40BB50B84839583A683B7833A
:100A90000DC0220F331F441F551F24833583468307
:100AA0005783828193810197938382832481358147
:100AB00046815781DA01C9010197A109B1098F5F08
:100AC0009F4FAF4FBF4328F30BC0918333822282E5
:100AD000EA0CFB1C0C1D1D1DE482F58206831783A6
:100AE00083E08083248135814681578157FF1AC076
:100AF000C901AA2797FDA095BA2F81709070A070A8
:100B0000B0705695479537952795822B932BA42B3C
:100B1000B52B84839583A683B783828193810196C5
:100B200093838283DF0101C0D201CD01CDB7DEB74F
:100B3000E2E10C94300AA0E2B0E0E1EAF5E00C94C6
:100B4000200A69837A838B839C832D833E834F8322
:100B50005887E9E0EE2EF12CEC0EFD1ECE01019639
:100B6000B7010E9475098E010F5E1F4FCE010596D9
:100B7000B8010E9475098A8991E089278A8BC7018B
:100B8000B801AE01475E5F4F0E944F040E94A0086B
:100B9000A096E6E00C943C0AA0E2B0E0E2EDF5E0BD
:100BA0000C94200A69837A838B839C832D833E83F4
:100BB0004F835887F9E0EF2EF12CEC0EFD1ECE018D
:100BC0000196B7010E9475098E010F5E1F4FCE017D
:100BD0000596B8010E947509C701B801AE01475ECC
:100BE0005F4F0E944F040E94A008A096E6E00C947C
:100BF0003C0AA0E2B0E0EFEFF5E00C94140A698340
:100C00007A838B839C832D833E834F835887CE01C9
:100C10000196BE01675F7F4F0E947509CE01059660
:100C2000BE016F5E7F4F0E9475099985923088F0F2
:100C300089898230C8F0943019F4823051F404C0AC
:100C4000843029F4923081F48AE790E0C6C0923073
:100C500049F420E09A858A89981321E02A87CE01F9
:100C60000996BBC0823049F420E09A858A8998139E
:100C700021E02A8BCE014196B0C02D843E844F8462
:100C800058886D887E888F88988CEE24FF24870191
:100C9000AA24BB24650140E050E060E070E0E0E0A1
:100CA000F0E0C10181709070892BE9F0E60CF71C2F
:100CB000081D191D9A01AB012A0D3B1D4C1D5D1D20
:100CC00080E090E0A0E0B0E0E614F7040805190524
:100CD00020F481E090E0A0E0B0E0BA01A901480F63
:100CE000591F6A1F7B1FAA0CBB1CCC1CDD1C97FE66
:100CF00008C081E090E0A0E0B0E0A82AB92ACA2AA2
:100D0000DB2A3196E032F10549F0660C771C881C2D
:100D1000991C5694479437942794C3CFFA85EA894F
:100D20002B893C898B859C85280F391F2E5F3F4F6F
:100D300017C0CA0181709070892B61F016950795D4
:100D4000F794E79480E090E0A0E0B0E8E82AF92A80
:100D50000A2B1B2B76956795579547952F5F3F4F2D
:100D600077FDE7CF0CC0440F551F661F771F17FD97
:100D70004160EE0CFF1C001F111F2150304040301D
:100D800090E0590790E0690790E4790760F32B8FB2
:100D90003C8FDB01CA018F779070A070B0708034F7
:100DA0009105A105B10561F447FD0AC0E114F10404
:100DB0000105110529F0405C5F4F6F4F7F4F407870
:100DC0001A8EFE1711F081E08A8F4D8F5E8F6F8F24
:100DD00078A383E0898FCE0149960E94A008A0964F
:100DE000E2E10C94300AA8E1B0E0E9EFF6E00C94FF
:100DF0001C0A69837A838B839C832D833E834F8374
:100E00005887B9E0EB2EF12CEC0EFD1ECE010196B9
:100E1000B7010E9475098E010F5E1F4FCE01059626
:100E2000B8010E9475092985223008F47EC03989ED
:100E3000323010F4B8017CC08A859A8989278A8764
:100E4000243011F0223031F4231709F06EC06AE724
:100E500070E06EC0343039F41D861E861F86188AF5
:100E60001C861B8604C0323021F484E08987B701D8
:100E70005FC02B853C858B899C89281B390B3C875F
:100E80002B87ED84FE840F851889AD88BE88CF88B6
:100E9000D88CEA14FB040C051D0540F4EE0CFF1C75
:100EA000001F111F215030403C872B8720E030E08D
:100EB00040E050E080E090E0A0E0B0E460E070E06E
:100EC000EA14FB040C051D0540F0282B392B4A2B96
:100ED0005B2BEA18FB080C091D09B695A795979599
:100EE0008795EE0CFF1C001F111F6F5F7F4F6F3146
:100EF000710531F7DA01C9018F779070A070B07079
:100F000080349105A105B10561F427FD0AC0E11403
:100F1000F1040105110529F0205C3F4F4F4F5F4F51
:100F200020782D873E874F87588BBE01675F7F4FA4
:100F3000CB010E94A0086896EAE00C94380AA8E069
:100F4000B0E0E5EAF7E00C941D0A9B01AC0183E0F8
:100F50008983DA01C9018827B7FD83959927AA27D4
:100F6000BB27B82E211531054105510519F482E042
:100F700089833AC08823A9F0203080E0380780E0D8
:100F8000480780E8580729F460E070E080E09FECB3
:100F900030C0EE24FF248701E21AF30A040B150B7C
:100FA00002C079018A018EE1C82ED12CDC82CB826D
:100FB000ED82FE820F831887C801B7010E94510895
:100FC00001971816190684F4082E04C0EE0CFF1CB5
:100FD000001F111F0A94D2F7ED82FE820F8318873B
:100FE000C81AD90ADC82CB82BA82CE0101960E944D
:100FF000A0082896E9E00C94390AACE0B0E0E3E000
:10100000F8E00C94240A69837A838B839C83CE0155
:101010000196BE016B5F7F4F0E9475098D81823002
:1010200061F1823050F1843021F48E81882351F1B6
:101030002EC02F81388537FD20C06E812F313105BC
:101040001CF06623F9F023C08EE190E0821B930B25
:1010500029853A854B855C8504C05695479537951B
:1010600027958A95D2F76623B1F050954095309533
:1010700021953F4F4F4F5F4F0EC020E030E040E0E2
:1010800050E009C02FEF3FEF4FEF5FE704C020E0D3
:1010900030E040E050E8B901CA012C96E2E00C943F
:1010A000400AEF92FF920F931F937B018C0180E027
:1010B000E81680E0F80681E0080780E0180788F469
:1010C0008FEFE816F1040105110531F028F088E0F2
:1010D00090E0A0E0B0E017C080E090E0A0E0B0E0D9
:1010E00012C080E0E81680E0F80680E0080781E0A2
:1010F000180728F088E190E0A0E0B0E004C080E1AB
:1011000090E0A0E0B0E020E230E040E050E0281BBA
:10111000390B4A0B5B0B04C016950795F794E794BF
:101120008A95D2F7F701EE57FF4F8081281B3109CE
:1011300041095109C9011F910F91FF90EF90089546
:10114000DF92EF92FF920F931F93FC01E480F580F2
:1011500006811781D1808081823048F480E090E060
:10116000A0E1B0E0E82AF92A0A2B1B2BA5C08430A5
:1011700009F49FC0823021F4EE24FF24870105C0CA
:10118000E114F1040105110519F4E0E0F0E096C066
:10119000628173819FEF623879070CF05BC022E8AF
:1011A0003FEF261B370B2A3131052CF020E030E0D1
:1011B00040E050E02AC0B801A701022E04C0769595
:1011C0006795579547950A94D2F781E090E0A0E0A3
:1011D000B0E004C0880F991FAA1FBB1F2A95D2F741
:1011E0000197A109B1098E219F21A023B123009766
:1011F000A105B10521F081E090E0A0E0B0E09A0106
:10120000AB01282B392B4A2B5B2BDA01C9018F77D5
:101210009070A070B07080349105A105B10539F4CB
:1012200027FF09C0205C3F4F4F4F5F4F04C0215C38
:101230003F4F4F4F5F4FE0E0F0E02030A0E03A0733
:10124000A0E04A07A0E45A0710F0E1E0F0E07901DD
:101250008A0127C06038710564F5FB01E158FF4F32
:10126000D801C7018F779070A070B070803491055D
:10127000A105B10539F4E7FE0DC080E490E0A0E0DF
:10128000B0E004C08FE390E0A0E0B0E0E80EF91E0B
:101290000A1F1B1F17FF05C016950795F794E794C3
:1012A000319687E016950795F794E7948A95D1F7DC
:1012B00005C0EE24FF248701EFEFF0E06E2F679565
:1012C00066276795902F9F77D794DD24D7948E2F2C
:1012D0008695492F462B582F5D29B701CA011F91CA
:1012E0000F91FF90EF90DF900895FC01DB014081AA
:1012F00051812281622F6F7770E0221F2227221FE7
:101300009381892F880F822B282F30E0991F9927EE
:10131000991F11969C93119721153105A9F5411537
:1013200051056105710511F482E037C082E89FEF35
:1013300013969C938E9312979A01AB0167E0220F4C
:10134000331F441F551F6A95D1F783E08C930DC05E
:10135000220F331F441F551F12968D919C91139796
:10136000019713969C938E931297203080E0380754
:1013700080E0480780E4580758F314962D933D9376
:101380004D935C93179708952F3F310579F44115DC
:1013900051056105710519F484E08C93089564FF8B
:1013A00003C081E08C9312C01C9210C02F573040B4
:1013B00013963C932E93129783E08C9387E0440F0F
:1013C000551F661F771F8A95D1F7706414964D9349
:1013D0005D936D937C931797089597FB092E0726CD
:1013E0000AD077FD04D00CD006D000201AF47095F6
:1013F00061957F4F0895F6F7909581959F4F0895D9
:10140000AA1BBB1B51E107C0AA1FBB1FA617B7072A
:1014100010F0A61BB70B881F991F5A95A9F7809546
:101420009095BC01CD0108952F923F924F925F920B
:101430006F927F928F929F92AF92BF92CF92DF92E4
:10144000EF92FF920F931F93CF93DF93CDB7DEB749
:10145000CA1BDB0B0FB6F894DEBF0FBECDBF0994DD
:101460002A88398848885F846E847D848C849B8434
:10147000AA84B984C884DF80EE80FD800C811B8142
:10148000AA81B981CE0FD11D0FB6F894DEBF0FBE71
:0A149000CDBFED010895F894FFCFE1
:10149A0046726571203D200020485A0044757479CF
:1014AA00203D20000100BD37063900000000000081
:1014BA0000000001020203030303040404040404F9
:1014CA0004040505050505050505050505050505C4
:1014DA0005050606060606060606060606060606A4
:1014EA000606060606060606060606060606060692
:1014FA000606070707070707070707070707070774
:10150A000707070707070707070707070707070761
:10151A000707070707070707070707070707070751
:10152A000707070707070707070707070707070741
:10153A000707080808080808080808080808080823
:10154A000808080808080808080808080808080811
:10155A000808080808080808080808080808080801
:10156A0008080808080808080808080808080808F1
:10157A0008080808080808080808080808080808E1
:10158A0008080808080808080808080808080808D1
:10159A0008080808080808080808080808080808C1
:1015AA0008080808080808080808080808080808B1
:0215BA0008081F
:00000001FF
