:100000000C942A000C9408040C942F040C945604AD
:100010000C9447000C9447000C9447000C94470044
:100020000C9447000C9447000C947D040C94A60497
:100030000C9447000C9447000C9447000C94470024
:100040000C9494020C9447000C9447000C944700C5
:100050000C94470011241FBECFE5D8E0DEBFCDBF12
:1000600010E0A0E6B0E0ECE0FAE002C005900D92EE
:10007000A639B107D9F720E0A6E9B0E001C01D928A
:10008000AC3AB207E1F70E94F0010C9404050C941D
:100090000000CF93C0E00EC0EC2FF0E0EE0FFF1F8A
:1000A000EE0FFF1FEF59FF4F40E0628181810E94F8
:1000B000BD02CF5F80916000C81770F3CF910895A3
:1000C00041E062E080E00E942A038FE99FE001970F
:1000D000F1F700C0000040E062E080E00E942A03E7
:1000E0008FE99FE00197F1F700C000000895CF93DA
:1000F000C82F40E063E080E00E942A0340E069E00E
:1001000080E00E942A03C4FB442740F960E081E0BC
:100110000E942A03C5FB442740F961E081E00E9468
:100120002A03C6FB442740F962E081E00E942A03CB
:100130004C2F441F4427441F64E081E00E942A039F
:100140000E9460004C2F417060E081E00E942A0311
:10015000C1FB442740F961E081E00E942A03C2FB11
:10016000442740F962E081E00E942A03C3FB442750
:1001700040F964E081E00E942A030E946000CF9170
:100180000895CF93C82F41E063E080E00E942A03E6
:1001900040E069E080E00E942A03C4FB442740F964
:1001A00060E081E00E942A03C5FB442740F961E03A
:1001B00081E00E942A03C6FB442740F962E081E007
:1001C0000E942A034C2F441F4427441F64E081E00F
:1001D0000E942A030E9460004C2F417060E081E081
:1001E0000E942A03C1FB442740F961E081E00E949C
:1001F0002A03C2FB442740F962E081E00E942A03FF
:10020000C3FB442740F964E081E00E942A030E9476
:100210006000CF91089541E063E080E00E94BD025C
:1002200041E062E080E00E94BD0241E069E080E0E0
:100230000E94BD0241E060E081E00E94BD0241E019
:1002400061E081E00E94BD0241E062E081E00E9445
:10025000BD0241E064E081E00E94BD0281E00E94B5
:10026000770082E00E94770088E20E94770086E0B3
:100270000E9477008FE00E9477000895811105C0E9
:1002800080E8860F0E9477000895813029F480EC81
:10029000860F0E9477000895823029F484E9860F42
:1002A0000E9477000895833021F484ED860F0E9428
:1002B00077000895CF93C82F862F642F0E943E01A8
:1002C0008C2F0E94C100CF910895FF920F931F932E
:1002D000CF93DF938C01F62ED42F642F8F2D0E94A5
:1002E0003E01C0E00EC00E94C1008D2F90E08C0F37
:1002F000911D45972CF0F39460E08F2D0E943E01F4
:10030000CF5FF801EC0FF11D80818111ECCFDF91FF
:10031000CF911F910F91FF900895CF93C0E00EC031
:10032000EC2FF0E0EE0FFF1FEE0FFF1FEE58FF4F18
:1003300041E0628181810E94BD02CF5F80917100A6
:10034000C81770F3CF910895CF93DF93D82FC0E0F3
:1003500018C0EC2FF0E0EE0FFF1FEE0FFF1FEE585E
:10036000FF4F80818D130CC0ED2FF0E0EE0FFF1FCB
:10037000EE0FFF1FEE58FF4F628181810E949703AD
:10038000CF5F80917100C81720F3DF91CF9108955E
:1003900082E00E94A401089581E080939700E0919B
:1003A0009600F0E084B195B1EE0FFF1FE856FF4FC5
:1003B00091838083809196008F5F8093960083E085
:1003C0000E94A40180919600843011F4109296004E
:1003D00087B1807787B98091960087B187B90895F2
:1003E000CF93DF93CDB7DEB72A970FB6F894DEBF71
:1003F0000FBECDBF0E948D010E940B010E944900DB
:1004000063E080E00E94CB0368EC71E080E00E9432
:10041000F30382E890E00E944A020E9483020E9455
:1004200087028CEC91E00E948F028FB780688FBFAB
:100430000E948B02809197008130E1F71092970023
:10044000E0919600F0E0EE0FFF1FE856FF4F4AE004
:10045000BE016F5F7F4F808191810E94CF046091C8
:10046000960040E0CE0101960E94650160919600E1
:100470008091960046E0805D0E945A012FEF83ED47
:1004800090E3215080409040E1F700C000000E94BE
:100490008B02D0CFFC0187B18F7387B987B191816F
:1004A00020E4929FA0011124482B47B987B18F7D8A
:1004B00087B987B19281292F217030E0220F331F35
:1004C00022953295307F3227207F3227282B27B97B
:1004D00087B1807787B987B187B986B1887F86B9B8
:1004E00096B184818770892B86B94AB321E030E0C8
:1004F000C901008002C0880F991F0A94E2F7809515
:1005000084238ABB089586B1806886B9089586B130
:10051000886086B9089586B1806486B908959093FD
:10052000A1008093A00008951F920F920FB60F9222
:1005300011242F933F934F935F936F937F938F93E8
:100540009F93AF93BF93EF93FF93E091A000F0913F
:10055000A100309709F00995FF91EF91BF91AF91FC
:100560009F918F917F916F915F914F913F912F91CB
:100570000F900FBE0F901F901895813001F130F051
:100580008230B1F1833009F44CC00895413059F400
:100590002AB381E090E002C0880F991F6A95E2F7C4
:1005A000822B8ABB08952AB381E090E002C0880FB5
:1005B000991F6A95E2F7809582238ABB089541309E
:1005C00059F427B381E090E002C0880F991F6A9523
:1005D000E2F7822B87BB089527B381E090E002C049
:1005E000880F991F6A95E2F78095822387BB08954B
:1005F000413059F424B381E090E002C0880F991F84
:100600006A95E2F7822B84BB089524B381E090E0E1
:1006100002C0880F991F6A95E2F78095822384BBF8
:100620000895413059F421B381E090E002C0880F71
:10063000991F6A95E2F7822B81BB089521B381E06F
:1006400090E002C0880F991F6A95E2F78095822397
:1006500081BB0895813001F130F08230B1F18330F7
:1006600009F44CC0089541110CC02BB381E090E017
:1006700002C0880F991F6A95E2F7809582238BBB91
:1006800008952BB381E090E002C0880F991F6A950E
:10069000E2F7822B8BBB089541110CC028B381E097
:1006A00090E002C0880F991F6A95E2F78095822337
:1006B00088BB089528B381E090E002C0880F991F9D
:1006C0006A95E2F7822B88BB089541110CC025B3CF
:1006D00081E090E002C0880F991F6A95E2F780954B
:1006E000822385BB089525B381E090E002C0880F86
:1006F000991F6A95E2F7822B85BB089541110CC0C2
:1007000022B381E090E002C0880F991F6A95E2F75A
:100710008095822382BB089522B381E090E002C0DD
:10072000880F991F6A95E2F7822B82BB089581306A
:1007300089F028F08230C9F0833011F108952BB38D
:1007400081E090E002C0880F991F6A95E2F7822746
:100750008BBB089528B381E090E002C0880F991FF9
:100760006A95E2F7822788BB089525B381E090E07F
:1007700002C0880F991F6A95E2F7822785BB08950A
:1007800022B381E090E002C0880F991F6A95E2F7DA
:10079000822782BB0895813079F018F08230B9F059
:1007A000089585B78C7F85BF85B76370682B65BF5B
:1007B0008BB780648BBF089585B7837F85BF85B76E
:1007C0006C70682B65BF8BB780688BBF089584B74A
:1007D0008F7B84BF84B762506072682B64BF8BB715
:1007E00080628BBF0895813049F018F0823059F053
:1007F00008957093A7006093A60008957093A300D6
:100800006093A20008957093A5006093A4000895DA
:100810001F920F920FB60F9211242F933F934F9375
:100820005F936F937F938F939F93AF93BF93EF9358
:10083000FF93E091A600F091A7000995FF91EF9139
:10084000BF91AF919F918F917F916F915F914F91E8
:100850003F912F910F900FBE0F901F9018951F92F0
:100860000F920FB60F9211242F933F934F935F93E4
:100870006F937F938F939F93AF93BF93EF93FF9368
:10088000E091A200F091A3000995FF91EF91BF9133
:10089000AF919F918F917F916F915F914F913F9118
:1008A0002F910F900FBE0F901F9018951F920F92CF
:1008B0000FB60F9211242F933F934F935F936F9333
:1008C0007F938F939F93AF93BF93EF93FF93E091A9
:1008D000A400F091A5000995FF91EF91BF91AF9110
:1008E0009F918F917F916F915F914F913F912F9148
:1008F0000F900FBE0F901F9018951F920F920FB67A
:100900000F9211242F933F934F935F936F937F9395
:100910008F939F93AF93BF93EF93FF93E091A800C2
:10092000F091A900309709F00995FF91EF91BF91DF
:10093000AF919F918F917F916F915F914F913F9177
:100940002F910F900FBE0F901F9018951F920F922E
:100950000FB60F9211242F933F934F935F936F9392
:100960007F938F939F93AF93BF93EF93FF93E09108
:10097000AA00F091AB00309709F00995FF91EF9133
:10098000BF91AF919F918F917F916F915F914F91A7
:100990003F912F910F900FBE0F901F901895BB277E
:1009A0004A3031F4992322F4BDE2909581959F4F0E
:1009B0000C94DB04BB27FB015527AA27880F991F3E
:1009C000AA1FA41710F0A41B83955051B9F7A05D7E
:1009D000AA3308F0A95DA193009779F7B111B193FB
:1009E0001192CB010C94F404DC01FC01672F71918E
:1009F0007723E1F7329704C07C916D937083629105
:0C0A0000AE17BF07C8F30895F894FFCFAD
:100A0C0004000303000103050002030600030307AF
:100A1C0000040000040101000601020107010300AB
:100A2C0005010001000007010100000702010000A0
:060A3C00070301000007A2
:00000001FF
